{
  "contractName": "OpenDeviceRegistry",
  "abi": [
    {
      "constant": true,
      "inputs": [],
      "name": "owner",
      "outputs": [
        {
          "name": "",
          "type": "address"
        }
      ],
      "payable": false,
      "stateMutability": "view",
      "type": "function"
    },
    {
      "constant": false,
      "inputs": [
        {
          "name": "newOwner",
          "type": "address"
        }
      ],
      "name": "transferOwnership",
      "outputs": [],
      "payable": false,
      "stateMutability": "nonpayable",
      "type": "function"
    },
    {
      "anonymous": false,
      "inputs": [
        {
          "indexed": false,
          "name": "id",
          "type": "uint256"
        },
        {
          "indexed": false,
          "name": "by",
          "type": "address"
        }
      ],
      "name": "GatewayAdded",
      "type": "event"
    },
    {
      "anonymous": false,
      "inputs": [
        {
          "indexed": false,
          "name": "ip",
          "type": "string"
        },
        {
          "indexed": false,
          "name": "by",
          "type": "address"
        }
      ],
      "name": "GatewayRemoved",
      "type": "event"
    },
    {
      "anonymous": false,
      "inputs": [
        {
          "indexed": true,
          "name": "previousOwner",
          "type": "address"
        },
        {
          "indexed": true,
          "name": "newOwner",
          "type": "address"
        }
      ],
      "name": "OwnershipTransferred",
      "type": "event"
    },
    {
      "constant": true,
      "inputs": [
        {
          "name": "id",
          "type": "uint256"
        }
      ],
      "name": "getGatewayOwner",
      "outputs": [
        {
          "name": "",
          "type": "address"
        }
      ],
      "payable": false,
      "stateMutability": "view",
      "type": "function"
    },
    {
      "constant": true,
      "inputs": [
        {
          "name": "sender",
          "type": "address"
        }
      ],
      "name": "getGatewayIdFromOwner",
      "outputs": [
        {
          "name": "",
          "type": "uint256"
        }
      ],
      "payable": false,
      "stateMutability": "view",
      "type": "function"
    },
    {
      "constant": true,
      "inputs": [
        {
          "name": "sender",
          "type": "address"
        }
      ],
      "name": "verifyGatewayOwner",
      "outputs": [
        {
          "name": "",
          "type": "bool"
        }
      ],
      "payable": false,
      "stateMutability": "view",
      "type": "function"
    },
    {
      "constant": false,
      "inputs": [
        {
          "name": "ip",
          "type": "string"
        },
        {
          "name": "lat",
          "type": "string"
        },
        {
          "name": "long",
          "type": "string"
        },
        {
          "name": "city",
          "type": "string"
        },
        {
          "name": "area",
          "type": "string"
        },
        {
          "name": "physicalAddressAndNumber",
          "type": "string"
        }
      ],
      "name": "addGateway",
      "outputs": [],
      "payable": false,
      "stateMutability": "nonpayable",
      "type": "function"
    },
    {
      "constant": false,
      "inputs": [
        {
          "name": "id",
          "type": "uint256"
        }
      ],
      "name": "removeGateway",
      "outputs": [],
      "payable": false,
      "stateMutability": "nonpayable",
      "type": "function"
    },
    {
      "constant": true,
      "inputs": [
        {
          "name": "city",
          "type": "string"
        },
        {
          "name": "area",
          "type": "string"
        }
      ],
      "name": "getGatewaysInRange",
      "outputs": [
        {
          "name": "",
          "type": "uint256[20]"
        }
      ],
      "payable": false,
      "stateMutability": "view",
      "type": "function"
    },
    {
      "constant": true,
      "inputs": [
        {
          "name": "id",
          "type": "uint256"
        }
      ],
      "name": "getGatewayCoordinates",
      "outputs": [
        {
          "name": "lat",
          "type": "string"
        },
        {
          "name": "long",
          "type": "string"
        }
      ],
      "payable": false,
      "stateMutability": "view",
      "type": "function"
    },
    {
      "constant": true,
      "inputs": [],
      "name": "getMyGatewayId",
      "outputs": [
        {
          "name": "",
          "type": "uint256"
        }
      ],
      "payable": false,
      "stateMutability": "view",
      "type": "function"
    },
    {
      "constant": true,
      "inputs": [],
      "name": "getMyGateway",
      "outputs": [
        {
          "name": "id",
          "type": "uint256"
        },
        {
          "name": "ip",
          "type": "string"
        },
        {
          "name": "lat",
          "type": "string"
        },
        {
          "name": "long",
          "type": "string"
        },
        {
          "name": "city",
          "type": "string"
        },
        {
          "name": "area",
          "type": "string"
        },
        {
          "name": "physicalAddressAndNumber",
          "type": "string"
        }
      ],
      "payable": false,
      "stateMutability": "view",
      "type": "function"
    },
    {
      "constant": true,
      "inputs": [
        {
          "name": "id",
          "type": "uint256"
        }
      ],
      "name": "getGateway",
      "outputs": [
        {
          "name": "owner",
          "type": "address"
        },
        {
          "name": "ip",
          "type": "string"
        },
        {
          "name": "lat",
          "type": "string"
        },
        {
          "name": "long",
          "type": "string"
        },
        {
          "name": "city",
          "type": "string"
        },
        {
          "name": "area",
          "type": "string"
        },
        {
          "name": "physicalAddressAndNumber",
          "type": "string"
        }
      ],
      "payable": false,
      "stateMutability": "view",
      "type": "function"
    },
    {
      "constant": true,
      "inputs": [],
      "name": "getGatewaysCount",
      "outputs": [
        {
          "name": "",
          "type": "uint256"
        }
      ],
      "payable": false,
      "stateMutability": "view",
      "type": "function"
    },
    {
      "constant": false,
      "inputs": [],
      "name": "destroy",
      "outputs": [],
      "payable": false,
      "stateMutability": "nonpayable",
      "type": "function"
    }
  ],
  "bytecode": "0x6060604052336000806101000a81548173ffffffffffffffffffffffffffffffffffffffff021916908373ffffffffffffffffffffffffffffffffffffffff160217905550612d2e806100536000396000f3006060604052600436106100d0576000357c0100000000000000000000000000000000000000000000000000000000900463ffffffff1680631c398289146100d55780631c4c3f7e14610167578063200f83ec146101e557806330cc0e0c1461020e5780633127a069146104f957806358bf404f1461054657806383197ef0146105975780638da5cb5b146105ac578063ba6ea59f14610601578063e44fe75e146108b2578063e5dac70314610915578063ec97d3d514610938578063f2fde38b14610961578063fbe669d51461099a575b600080fd5b34156100e057600080fd5b6101656004808035906020019082018035906020019190919290803590602001908201803590602001919091929080359060200190820180359060200191909192908035906020019082018035906020019190919290803590602001908201803590602001919091929080359060200190820180359060200191909192905050610aa2565b005b341561017257600080fd5b6101a7600480803590602001908201803590602001919091929080359060200190820180359060200191909192905050610f35565b6040518082601460200280838360005b838110156101d25780820151818401526020810190506101b7565b5050505090500191505060405180910390f35b34156101f057600080fd5b6101f8611040565b6040518082815260200191505060405180910390f35b341561021957600080fd5b61022f6004808035906020019091905050611106565b604051808873ffffffffffffffffffffffffffffffffffffffff1673ffffffffffffffffffffffffffffffffffffffff16815260200180602001806020018060200180602001806020018060200187810387528d818151815260200191508051906020019080838360005b838110156102b557808201518184015260208101905061029a565b50505050905090810190601f1680156102e25780820380516001836020036101000a031916815260200191505b5087810386528c818151815260200191508051906020019080838360005b8381101561031b578082015181840152602081019050610300565b50505050905090810190601f1680156103485780820380516001836020036101000a031916815260200191505b5087810385528b818151815260200191508051906020019080838360005b83811015610381578082015181840152602081019050610366565b50505050905090810190601f1680156103ae5780820380516001836020036101000a031916815260200191505b5087810384528a818151815260200191508051906020019080838360005b838110156103e75780820151818401526020810190506103cc565b50505050905090810190601f1680156104145780820380516001836020036101000a031916815260200191505b50878103835289818151815260200191508051906020019080838360005b8381101561044d578082015181840152602081019050610432565b50505050905090810190601f16801561047a5780820380516001836020036101000a031916815260200191505b50878103825288818151815260200191508051906020019080838360005b838110156104b3578082015181840152602081019050610498565b50505050905090810190601f1680156104e05780820380516001836020036101000a031916815260200191505b509d505050505050505050505050505060405180910390f35b341561050457600080fd5b610530600480803573ffffffffffffffffffffffffffffffffffffffff169060200190919050506116ae565b6040518082815260200191505060405180910390f35b341561055157600080fd5b61057d600480803573ffffffffffffffffffffffffffffffffffffffff169060200190919050506116f7565b604051808215151515815260200191505060405180910390f35b34156105a257600080fd5b6105aa6117ae565b005b34156105b757600080fd5b6105bf611843565b604051808273ffffffffffffffffffffffffffffffffffffffff1673ffffffffffffffffffffffffffffffffffffffff16815260200191505060405180910390f35b341561060c57600080fd5b610614611868565b6040518088815260200180602001806020018060200180602001806020018060200187810387528d818151815260200191508051906020019080838360005b8381101561066e578082015181840152602081019050610653565b50505050905090810190601f16801561069b5780820380516001836020036101000a031916815260200191505b5087810386528c818151815260200191508051906020019080838360005b838110156106d45780820151818401526020810190506106b9565b50505050905090810190601f1680156107015780820380516001836020036101000a031916815260200191505b5087810385528b818151815260200191508051906020019080838360005b8381101561073a57808201518184015260208101905061071f565b50505050905090810190601f1680156107675780820380516001836020036101000a031916815260200191505b5087810384528a818151815260200191508051906020019080838360005b838110156107a0578082015181840152602081019050610785565b50505050905090810190601f1680156107cd5780820380516001836020036101000a031916815260200191505b50878103835289818151815260200191508051906020019080838360005b838110156108065780820151818401526020810190506107eb565b50505050905090810190601f1680156108335780820380516001836020036101000a031916815260200191505b50878103825288818151815260200191508051906020019080838360005b8381101561086c578082015181840152602081019050610851565b50505050905090810190601f1680156108995780820380516001836020036101000a031916815260200191505b509d505050505050505050505050505060405180910390f35b34156108bd57600080fd5b6108d36004808035906020019091905050611e68565b604051808273ffffffffffffffffffffffffffffffffffffffff1673ffffffffffffffffffffffffffffffffffffffff16815260200191505060405180910390f35b341561092057600080fd5b6109366004808035906020019091905050611eb2565b005b341561094357600080fd5b61094b61265e565b6040518082815260200191505060405180910390f35b341561096c57600080fd5b610998600480803573ffffffffffffffffffffffffffffffffffffffff169060200190919050506126c6565b005b34156109a557600080fd5b6109bb600480803590602001909190505061281b565b604051808060200180602001838103835285818151815260200191508051906020019080838360005b838110156109ff5780820151818401526020810190506109e4565b50505050905090810190601f168015610a2c5780820380516001836020036101000a031916815260200191505b50838103825284818151815260200191508051906020019080838360005b83811015610a65578082015181840152602081019050610a4a565b50505050905090810190601f168015610a925780820380516001836020036101000a031916815260200191505b5094505050505060405180910390f35b610aaa612a24565b600080600260003373ffffffffffffffffffffffffffffffffffffffff1673ffffffffffffffffffffffffffffffffffffffff16815260200190815260200160002054141515610af957600080fd5b60008e8e905014151515610b0c57600080fd5b60008c8c905014151515610b1f57600080fd5b60008a8a905014151515610b3257600080fd5b610100604051908101604052803373ffffffffffffffffffffffffffffffffffffffff1681526020018f8f8080601f01602080910402602001604051908101604052809392919081815260200183838082843782019150505050505081526020018d8d8080601f01602080910402602001604051908101604052809392919081815260200183838082843782019150505050505081526020018b8b8080601f016020809104026020016040519081016040528093929190818152602001838380828437820191505050505050815260200189898080601f016020809104026020016040519081016040528093929190818152602001838380828437820191505050505050815260200187878080601f01602080910402602001604051908101604052809392919081815260200183838082843782019150505050505081526020016000815260200185858080601f01602080910402602001604051908101604052809392919081815260200183838082843782019150505050505081525091506001808054806001018281610cc79190612aa4565b9160005260206000209060080201600085909190915060008201518160000160006101000a81548173ffffffffffffffffffffffffffffffffffffffff021916908373ffffffffffffffffffffffffffffffffffffffff1602179055506020820151816001019080519060200190610d40929190612ad6565b506040820151816002019080519060200190610d5d929190612ad6565b506060820151816003019080519060200190610d7a929190612ad6565b506080820151816004019080519060200190610d97929190612ad6565b5060a0820151816005019080519060200190610db4929190612ad6565b5060c0820151816006015560e0820151816007019080519060200190610ddb929190612ad6565b50505003905080600260003373ffffffffffffffffffffffffffffffffffffffff1673ffffffffffffffffffffffffffffffffffffffff1681526020019081526020016000208190555060016003898960405180838380828437820191505092505050908152602001604051809103902087876040518083838082843782019150509250505090815260200160405180910390208054806001018281610e819190612b56565b916000526020600020900160008490919091505503600182815481101515610ea557fe5b9060005260206000209060080201600601819055507fa22c26e0a527742ea27221a5cc724d945aa88edbf15a26013bf34c6d56566c018133604051808381526020018273ffffffffffffffffffffffffffffffffffffffff1673ffffffffffffffffffffffffffffffffffffffff1681526020019250505060405180910390a15050505050505050505050505050565b610f3d612b82565b610f45612bab565b610f4d612b82565b6000600388886040518083838082843782019150509250505090815260200160405180910390208686604051808383808284378201915050925050509081526020016040518091039020805480602002602001604051908101604052809291908181526020018280548015610fe157602002820191906000526020600020905b815481526020019060010190808311610fcd575b50505050509250600090505b825181101561103257828181518110151561100457fe5b90602001906020020151828260148110151561101c57fe5b6020020181815250508080600101915050610fed565b819350505050949350505050565b600080600260003373ffffffffffffffffffffffffffffffffffffffff1673ffffffffffffffffffffffffffffffffffffffff1681526020019081526020016000205490503373ffffffffffffffffffffffffffffffffffffffff166001828154811015156110ab57fe5b906000526020600020906008020160000160009054906101000a900473ffffffffffffffffffffffffffffffffffffffff1673ffffffffffffffffffffffffffffffffffffffff161415156110ff57600080fd5b8091505090565b6000611110612bbf565b611118612bbf565b611120612bbf565b611128612bbf565b611130612bbf565b611138612bbf565b611140612a24565b6000809054906101000a900473ffffffffffffffffffffffffffffffffffffffff1673ffffffffffffffffffffffffffffffffffffffff163373ffffffffffffffffffffffffffffffffffffffff1614151561119b57600080fd5b88600073ffffffffffffffffffffffffffffffffffffffff166001828154811015156111c357fe5b906000526020600020906008020160000160009054906101000a900473ffffffffffffffffffffffffffffffffffffffff1673ffffffffffffffffffffffffffffffffffffffff161415151561121857600080fd5b60018a81548110151561122757fe5b906000526020600020906008020161010060405190810160405290816000820160009054906101000a900473ffffffffffffffffffffffffffffffffffffffff1673ffffffffffffffffffffffffffffffffffffffff1673ffffffffffffffffffffffffffffffffffffffff168152602001600182018054600181600116156101000203166002900480601f0160208091040260200160405190810160405280929190818152602001828054600181600116156101000203166002900480156113315780601f1061130657610100808354040283529160200191611331565b820191906000526020600020905b81548152906001019060200180831161131457829003601f168201915b50505050508152602001600282018054600181600116156101000203166002900480601f0160208091040260200160405190810160405280929190818152602001828054600181600116156101000203166002900480156113d35780601f106113a8576101008083540402835291602001916113d3565b820191906000526020600020905b8154815290600101906020018083116113b657829003601f168201915b50505050508152602001600382018054600181600116156101000203166002900480601f0160208091040260200160405190810160405280929190818152602001828054600181600116156101000203166002900480156114755780601f1061144a57610100808354040283529160200191611475565b820191906000526020600020905b81548152906001019060200180831161145857829003601f168201915b50505050508152602001600482018054600181600116156101000203166002900480601f0160208091040260200160405190810160405280929190818152602001828054600181600116156101000203166002900480156115175780601f106114ec57610100808354040283529160200191611517565b820191906000526020600020905b8154815290600101906020018083116114fa57829003601f168201915b50505050508152602001600582018054600181600116156101000203166002900480601f0160208091040260200160405190810160405280929190818152602001828054600181600116156101000203166002900480156115b95780601f1061158e576101008083540402835291602001916115b9565b820191906000526020600020905b81548152906001019060200180831161159c57829003601f168201915b5050505050815260200160068201548152602001600782018054600181600116156101000203166002900480601f0160208091040260200160405190810160405280929190818152602001828054600181600116156101000203166002900480156116655780601f1061163a57610100808354040283529160200191611665565b820191906000526020600020905b81548152906001019060200180831161164857829003601f168201915b505050505081525050915081600001519850816020015197508160400151965081606001519550816080015194508160a0015193508160e0015192505050919395979092949650565b6000600260008373ffffffffffffffffffffffffffffffffffffffff1673ffffffffffffffffffffffffffffffffffffffff168152602001908152602001600020549050919050565b60008173ffffffffffffffffffffffffffffffffffffffff166001600260008573ffffffffffffffffffffffffffffffffffffffff1673ffffffffffffffffffffffffffffffffffffffff1681526020019081526020016000205481548110151561175e57fe5b906000526020600020906008020160000160009054906101000a900473ffffffffffffffffffffffffffffffffffffffff1673ffffffffffffffffffffffffffffffffffffffff16149050919050565b6000809054906101000a900473ffffffffffffffffffffffffffffffffffffffff1673ffffffffffffffffffffffffffffffffffffffff163373ffffffffffffffffffffffffffffffffffffffff1614151561180957600080fd5b6000809054906101000a900473ffffffffffffffffffffffffffffffffffffffff1673ffffffffffffffffffffffffffffffffffffffff16ff5b6000809054906101000a900473ffffffffffffffffffffffffffffffffffffffff1681565b6000611872612bbf565b61187a612bbf565b611882612bbf565b61188a612bbf565b611892612bbf565b61189a612bbf565b6118a2612a24565b3373ffffffffffffffffffffffffffffffffffffffff166001600260003373ffffffffffffffffffffffffffffffffffffffff1673ffffffffffffffffffffffffffffffffffffffff1681526020019081526020016000205481548110151561190757fe5b906000526020600020906008020160000160009054906101000a900473ffffffffffffffffffffffffffffffffffffffff1673ffffffffffffffffffffffffffffffffffffffff1614151561195b57600080fd5b6001600260003373ffffffffffffffffffffffffffffffffffffffff1673ffffffffffffffffffffffffffffffffffffffff168152602001908152602001600020548154811015156119a957fe5b906000526020600020906008020161010060405190810160405290816000820160009054906101000a900473ffffffffffffffffffffffffffffffffffffffff1673ffffffffffffffffffffffffffffffffffffffff1673ffffffffffffffffffffffffffffffffffffffff168152602001600182018054600181600116156101000203166002900480601f016020809104026020016040519081016040528092919081815260200182805460018160011615610100020316600290048015611ab35780601f10611a8857610100808354040283529160200191611ab3565b820191906000526020600020905b815481529060010190602001808311611a9657829003601f168201915b50505050508152602001600282018054600181600116156101000203166002900480601f016020809104026020016040519081016040528092919081815260200182805460018160011615610100020316600290048015611b555780601f10611b2a57610100808354040283529160200191611b55565b820191906000526020600020905b815481529060010190602001808311611b3857829003601f168201915b50505050508152602001600382018054600181600116156101000203166002900480601f016020809104026020016040519081016040528092919081815260200182805460018160011615610100020316600290048015611bf75780601f10611bcc57610100808354040283529160200191611bf7565b820191906000526020600020905b815481529060010190602001808311611bda57829003601f168201915b50505050508152602001600482018054600181600116156101000203166002900480601f016020809104026020016040519081016040528092919081815260200182805460018160011615610100020316600290048015611c995780601f10611c6e57610100808354040283529160200191611c99565b820191906000526020600020905b815481529060010190602001808311611c7c57829003601f168201915b50505050508152602001600582018054600181600116156101000203166002900480601f016020809104026020016040519081016040528092919081815260200182805460018160011615610100020316600290048015611d3b5780601f10611d1057610100808354040283529160200191611d3b565b820191906000526020600020905b815481529060010190602001808311611d1e57829003601f168201915b5050505050815260200160068201548152602001600782018054600181600116156101000203166002900480601f016020809104026020016040519081016040528092919081815260200182805460018160011615610100020316600290048015611de75780601f10611dbc57610100808354040283529160200191611de7565b820191906000526020600020905b815481529060010190602001808311611dca57829003601f168201915b5050505050815250509050600260003373ffffffffffffffffffffffffffffffffffffffff1673ffffffffffffffffffffffffffffffffffffffff168152602001908152602001600020549750806020015196508060400151955080606001519450806080015193508060a0015192508060e0015191505090919293949596565b6000600182815481101515611e7957fe5b906000526020600020906008020160000160009054906101000a900473ffffffffffffffffffffffffffffffffffffffff169050919050565b611eba612a24565b611ec2612bbf565b3373ffffffffffffffffffffffffffffffffffffffff16600184815481101515611ee857fe5b906000526020600020906008020160000160009054906101000a900473ffffffffffffffffffffffffffffffffffffffff1673ffffffffffffffffffffffffffffffffffffffff16141515611f3c57600080fd5b600183815481101515611f4b57fe5b906000526020600020906008020161010060405190810160405290816000820160009054906101000a900473ffffffffffffffffffffffffffffffffffffffff1673ffffffffffffffffffffffffffffffffffffffff1673ffffffffffffffffffffffffffffffffffffffff168152602001600182018054600181600116156101000203166002900480601f0160208091040260200160405190810160405280929190818152602001828054600181600116156101000203166002900480156120555780601f1061202a57610100808354040283529160200191612055565b820191906000526020600020905b81548152906001019060200180831161203857829003601f168201915b50505050508152602001600282018054600181600116156101000203166002900480601f0160208091040260200160405190810160405280929190818152602001828054600181600116156101000203166002900480156120f75780601f106120cc576101008083540402835291602001916120f7565b820191906000526020600020905b8154815290600101906020018083116120da57829003601f168201915b50505050508152602001600382018054600181600116156101000203166002900480601f0160208091040260200160405190810160405280929190818152602001828054600181600116156101000203166002900480156121995780601f1061216e57610100808354040283529160200191612199565b820191906000526020600020905b81548152906001019060200180831161217c57829003601f168201915b50505050508152602001600482018054600181600116156101000203166002900480601f01602080910402602001604051908101604052809291908181526020018280546001816001161561010002031660029004801561223b5780601f106122105761010080835404028352916020019161223b565b820191906000526020600020905b81548152906001019060200180831161221e57829003601f168201915b50505050508152602001600582018054600181600116156101000203166002900480601f0160208091040260200160405190810160405280929190818152602001828054600181600116156101000203166002900480156122dd5780601f106122b2576101008083540402835291602001916122dd565b820191906000526020600020905b8154815290600101906020018083116122c057829003601f168201915b5050505050815260200160068201548152602001600782018054600181600116156101000203166002900480601f0160208091040260200160405190810160405280929190818152602001828054600181600116156101000203166002900480156123895780601f1061235e57610100808354040283529160200191612389565b820191906000526020600020905b81548152906001019060200180831161236c57829003601f168201915b505050505081525050915081602001519050600382608001516040518082805190602001908083835b6020831015156123d757805182526020820191506020810190506020830392506123b2565b6001836020036101000a03801982511681845116808217855250505050505090500191505090815260200160405180910390208260a001516040518082805190602001908083835b602083101515612444578051825260208201915060208101905060208303925061241f565b6001836020036101000a03801982511681845116808217855250505050505090500191505090815260200160405180910390208260c0015181548110151561248857fe5b9060005260206000209001600090556001838154811015156124a657fe5b9060005260206000209060080201600080820160006101000a81549073ffffffffffffffffffffffffffffffffffffffff02191690556001820160006124ec9190612bd3565b6002820160006124fc9190612bd3565b60038201600061250c9190612bd3565b60048201600061251c9190612bd3565b60058201600061252c9190612bd3565b60068201600090556007820160006125449190612bd3565b5050600260003373ffffffffffffffffffffffffffffffffffffffff1673ffffffffffffffffffffffffffffffffffffffff168152602001908152602001600020600090557fe5e6e5f3b122e8a87f58ce846d5ece95208ab36e03181ea1c48599922411167f813360405180806020018373ffffffffffffffffffffffffffffffffffffffff1673ffffffffffffffffffffffffffffffffffffffff168152602001828103825284818151815260200191508051906020019080838360005b8381101561261e578082015181840152602081019050612603565b50505050905090810190601f16801561264b5780820380516001836020036101000a031916815260200191505b50935050505060405180910390a1505050565b60008060009054906101000a900473ffffffffffffffffffffffffffffffffffffffff1673ffffffffffffffffffffffffffffffffffffffff163373ffffffffffffffffffffffffffffffffffffffff161415156126bb57600080fd5b600180549050905090565b6000809054906101000a900473ffffffffffffffffffffffffffffffffffffffff1673ffffffffffffffffffffffffffffffffffffffff163373ffffffffffffffffffffffffffffffffffffffff1614151561272157600080fd5b600073ffffffffffffffffffffffffffffffffffffffff168173ffffffffffffffffffffffffffffffffffffffff161415151561275d57600080fd5b8073ffffffffffffffffffffffffffffffffffffffff166000809054906101000a900473ffffffffffffffffffffffffffffffffffffffff1673ffffffffffffffffffffffffffffffffffffffff167f8be0079c531659141344cd1fd0a4f28419497f9722a3daafe3b4186f6b6457e060405160405180910390a3806000806101000a81548173ffffffffffffffffffffffffffffffffffffffff021916908373ffffffffffffffffffffffffffffffffffffffff16021790555050565b612823612bbf565b61282b612bbf565b82600073ffffffffffffffffffffffffffffffffffffffff1660018281548110151561285357fe5b906000526020600020906008020160000160009054906101000a900473ffffffffffffffffffffffffffffffffffffffff1673ffffffffffffffffffffffffffffffffffffffff16141515156128a857600080fd5b6001848154811015156128b757fe5b90600052602060002090600802016002018054600181600116156101000203166002900480601f01602080910402602001604051908101604052809291908181526020018280546001816001161561010002031660029004801561295c5780601f106129315761010080835404028352916020019161295c565b820191906000526020600020905b81548152906001019060200180831161293f57829003601f168201915b5050505050925060018481548110151561297257fe5b90600052602060002090600802016003018054600181600116156101000203166002900480601f016020809104026020016040519081016040528092919081815260200182805460018160011615610100020316600290048015612a175780601f106129ec57610100808354040283529160200191612a17565b820191906000526020600020905b8154815290600101906020018083116129fa57829003601f168201915b5050505050915050915091565b61010060405190810160405280600073ffffffffffffffffffffffffffffffffffffffff168152602001612a56612c1b565b8152602001612a63612c1b565b8152602001612a70612c1b565b8152602001612a7d612c1b565b8152602001612a8a612c1b565b815260200160008152602001612a9e612c1b565b81525090565b815481835581811511612ad157600802816008028360005260206000209182019101612ad09190612c2f565b5b505050565b828054600181600116156101000203166002900490600052602060002090601f016020900481019282601f10612b1757805160ff1916838001178555612b45565b82800160010185558215612b45579182015b82811115612b44578251825591602001919060010190612b29565b5b509050612b529190612cdd565b5090565b815481835581811511612b7d57818360005260206000209182019101612b7c9190612cdd565b5b505050565b610280604051908101604052806014905b6000815260200190600190039081612b935790505090565b602060405190810160405280600081525090565b602060405190810160405280600081525090565b50805460018160011615610100020316600290046000825580601f10612bf95750612c18565b601f016020900490600052602060002090810190612c179190612cdd565b5b50565b602060405190810160405280600081525090565b612cda91905b80821115612cd657600080820160006101000a81549073ffffffffffffffffffffffffffffffffffffffff0219169055600182016000612c759190612bd3565b600282016000612c859190612bd3565b600382016000612c959190612bd3565b600482016000612ca59190612bd3565b600582016000612cb59190612bd3565b6006820160009055600782016000612ccd9190612bd3565b50600801612c35565b5090565b90565b612cff91905b80821115612cfb576000816000905550600101612ce3565b5090565b905600a165627a7a7230582074ee2b76b9a10f07f5e8edcffe14a60d727cbd3a54149d95289b93446bf93e1a0029",
  "source": "pragma solidity ^0.4.18;\n\nimport '../node_modules/zeppelin-solidity/contracts/ownership/Ownable.sol';\n\n/**\n * @title OpenDeviceRegistry\n * @author Carlos Beltran <imthatcarlos@gmail.com>\n *\n * @dev The ODR consists of a registry of gateways with IP addresses, latitude\n * /longitude coordinates, technical specifications like wireless technology,\n * and other data about the gateway that can assist a software client in\n * routing a request efficiently.\n * NOTE: gateway ids are zero-based, so we should create a dummy gateway on\n * contract initialization\n */\ncontract OpenDeviceRegistry is Ownable {\n\n  //============================================================================\n  // EVENTS\n  //============================================================================\n\n  event GatewayAdded(uint id, address by);\n  event GatewayRemoved(string ip, address by);\n\n  //============================================================================\n  // STORAGE\n  //============================================================================\n\n  struct Gateway {\n    address owner;\n    string ip;\n    string lat;\n    string long;\n    string city;\n    string area;\n    uint areaIndex;\n    string physicalAddressAndNumber;\n  }\n\n  struct InvokableGateway {\n    uint id;\n    string lat;\n    string long;\n  }\n\n  /* *\n   * NOTE: Valid city and area values need to be tracked as well, not doing\n   * so for the demo.\n   */\n  Gateway[] gateways;\n  mapping (address => uint) ownerToGatewayIds;\n  mapping (string => mapping(string => uint[])) cityToAreaToGatewayIds;\n\n  //============================================================================\n  // MODIFIERS\n  //============================================================================\n\n  modifier validGateway(uint id) {\n    require(gateways[id].owner != address(0));\n    _;\n  }\n\n  modifier onlyGatewayOwner {\n    require(gateways[ownerToGatewayIds[msg.sender]].owner == msg.sender);\n    _;\n  }\n\n  //============================================================================\n  // PUBLIC FUNCTIONS\n  //============================================================================\n\n  /**\n   * Returns the gateway owner's address\n   *\n   * @param id the gateway id\n   */\n  function getGatewayOwner(uint id)\n    public\n    view\n    returns (address)\n  {\n    return gateways[id].owner;\n  }\n\n  /**\n   * Returns the gateway id\n   *\n   * @param sender The address of the account\n   */\n  function getGatewayIdFromOwner(address sender)\n    public\n    view\n    returns (uint)\n  {\n    return ownerToGatewayIds[sender];\n  }\n\n  /**\n   * Verify that the account owns a gateway\n   *\n   */\n  function verifyGatewayOwner(address sender)\n    public\n    view\n    returns (bool)\n  {\n    return gateways[ownerToGatewayIds[sender]].owner == sender;\n  }\n\n  //============================================================================\n  // EXTERNAL FUNCTIONS\n  //============================================================================\n\n  /**\n   * Gateway is added to the registry, with the public address of the\n   * sender being its 'owner' - an address that is payable\n   *\n   * @param ip           The IP address of the gateway\n   * @param lat          The geo latitude of the gateway (at register time)\n   * @param long         The geo longitude of the gateway (at register time)\n   * @param city         The geo city of the gateway\n   * @param area         The geo area of the gateway NOTE: This could be\n                         postal code if following Google Maps API, otherwise\n   *                     some other local geo filter.\n   * @param physicalAddressAndNumber Concatenated address and phone number,\n                                     delimited by '+'\n   */\n  function addGateway(\n      string ip,\n      string lat,\n      string long,\n      string city,\n      string area,\n      string physicalAddressAndNumber\n  )\n    external\n  {\n    // sanity checks\n    require(ownerToGatewayIds[msg.sender] == 0);\n    require(bytes(ip).length != 0);\n    require(bytes(lat).length != 0);\n    require(bytes(long).length != 0);\n\n    Gateway memory newGateway = Gateway({\n      owner: msg.sender,\n      ip: ip,\n      lat: lat,\n      long: long,\n      city: city,\n      area: area,\n      physicalAddressAndNumber: physicalAddressAndNumber,\n      areaIndex: 0\n    });\n\n    // add to storage and lookup tables\n    uint id = gateways.push(newGateway) - 1;\n    ownerToGatewayIds[msg.sender] = id;\n    gateways[id].areaIndex = cityToAreaToGatewayIds[city][area].push(id) - 1;\n\n    GatewayAdded(id, msg.sender);\n  }\n\n  /**\n   * Gateway is removed from the registry\n   *\n   * @param id The id of the gateway to be removed\n   */\n  function removeGateway(uint id) external {\n    require(gateways[id].owner == msg.sender);\n\n    Gateway memory gateway = gateways[id];\n\n    string memory ip = gateway.ip;\n\n    // delete from storage and lookup tables\n    delete cityToAreaToGatewayIds[gateway.city][gateway.area][gateway.areaIndex];\n    delete gateways[id];\n    delete ownerToGatewayIds[msg.sender];\n\n    GatewayRemoved(ip, msg.sender);\n  }\n\n  /**\n   * Returns a STATIC array of gateway ids within the city and area specified\n   * NOTE: Solidity does not allow using .push() on non-storage arrays\n   * http://solidity.readthedocs.io/en/develop/types.html#members\n   * NOTE: Can't return structs, so returning ids for now\n   *\n   * @param city The city the user wants gateways for\n   * @param area The area the user wants gateways for\n   */\n  function getGatewaysInRange(string city, string area)\n    external\n    view\n    returns (uint[20])\n  {\n    uint[] memory ids = cityToAreaToGatewayIds[city][area];\n    uint[20] memory data;\n\n    for(uint i = 0; i < ids.length; i++) {\n      /* TODO: need truffle to allow solidity@0.4.19 */\n      /* data[i] = InvokableGateway({\n        id: cityToAreaToGatewayIds[city][area][i],\n        lat: gateways[cityToAreaToGatewayIds[city][area][i]].lat,\n        long: gateways[cityToAreaToGatewayIds[city][area][i]].long\n      }); */\n      data[i] = ids[i];\n    }\n\n    return data;\n  }\n\n  /**\n   * Returns geo location for a gateway\n   *\n   * @param id The gateway id\n   */\n  function getGatewayCoordinates(uint id)\n    external\n    view\n    validGateway(id)\n    returns (string lat, string long)\n  {\n    lat = gateways[id].lat;\n    long = gateways[id].long;\n  }\n\n  //============================================================================\n  // PERMISSIONED FUNCTIONS\n  //============================================================================\n\n  /**\n   * Returns the account's gateway id\n   *\n   */\n  function getMyGatewayId() external view returns (uint) {\n    uint id = ownerToGatewayIds[msg.sender];\n    require(gateways[id].owner == msg.sender); // make sure it's not nil\n    return id;\n  }\n\n  /**\n   * Returns the account's gateway information\n   *\n   */\n  function getMyGateway()\n    external\n    view\n    onlyGatewayOwner\n    returns (\n      uint id,\n      string ip,\n      string lat,\n      string long,\n      string city,\n      string area,\n      string physicalAddressAndNumber\n    )\n  {\n    Gateway memory gateway = gateways[ownerToGatewayIds[msg.sender]];\n\n    id = ownerToGatewayIds[msg.sender];\n    ip = gateway.ip;\n    lat = gateway.lat;\n    long = gateway.long;\n    city = gateway.city;\n    area = gateway.area;\n    physicalAddressAndNumber = gateway.physicalAddressAndNumber;\n  }\n\n  /**\n   * Returns all information for one gateway\n   * Can only be called by the contract owner\n   *\n   * @param id The gateway id\n   */\n  function getGateway(uint id)\n    external\n    view\n    onlyOwner\n    validGateway(id)\n    returns (\n      address owner,\n      string ip,\n      string lat,\n      string long,\n      string city,\n      string area,\n      string physicalAddressAndNumber\n    )\n  {\n    Gateway memory gateway = gateways[id];\n\n    owner = gateway.owner;\n    ip = gateway.ip;\n    lat = gateway.lat;\n    long = gateway.long;\n    city = gateway.city;\n    area = gateway.area;\n    physicalAddressAndNumber = gateway.physicalAddressAndNumber;\n  }\n\n  /**\n   * Returns the number of gateways in storage\n   * Can only be called by the contract owner\n   */\n  function getGatewaysCount()\n    external\n    view\n    onlyOwner\n    returns (uint)\n  {\n    return gateways.length;\n  }\n\n  function destroy() external onlyOwner {\n    selfdestruct(owner);\n  }\n}\n",
  "sourcePath": "/Users/carlos/Desktop/imthatcarlos/uvt-network/contracts/OpenDeviceRegistry.sol",
  "compiler": {
    "name": "solc",
    "version": "0.4.19+commit.c4cbbb05.Emscripten.clang"
  },
  "schemaVersion": "2.0.0",
  "updatedAt": "2018-03-04T23:07:01.450Z"
}