{
  "contractName": "UVTCore",
  "abi": [
    {
      "constant": true,
      "inputs": [],
      "name": "deviceRegistry",
      "outputs": [
        {
          "name": "",
          "type": "address"
        }
      ],
      "payable": false,
      "stateMutability": "view",
      "type": "function"
    },
    {
      "constant": true,
      "inputs": [
        {
          "name": "id",
          "type": "bytes32"
        }
      ],
      "name": "getChannel",
      "outputs": [
        {
          "name": "sender",
          "type": "address"
        },
        {
          "name": "gatewayIds",
          "type": "uint256[]"
        },
        {
          "name": "deposit",
          "type": "uint256"
        },
        {
          "name": "state",
          "type": "uint8"
        },
        {
          "name": "paidOut",
          "type": "uint256"
        }
      ],
      "payable": false,
      "stateMutability": "view",
      "type": "function"
    },
    {
      "constant": true,
      "inputs": [],
      "name": "owner",
      "outputs": [
        {
          "name": "",
          "type": "address"
        }
      ],
      "payable": false,
      "stateMutability": "view",
      "type": "function"
    },
    {
      "constant": true,
      "inputs": [
        {
          "name": "id",
          "type": "bytes32"
        }
      ],
      "name": "getChannelState",
      "outputs": [
        {
          "name": "",
          "type": "uint8"
        }
      ],
      "payable": false,
      "stateMutability": "view",
      "type": "function"
    },
    {
      "constant": true,
      "inputs": [
        {
          "name": "sender",
          "type": "address"
        }
      ],
      "name": "getChannelId",
      "outputs": [
        {
          "name": "",
          "type": "bytes32"
        }
      ],
      "payable": false,
      "stateMutability": "view",
      "type": "function"
    },
    {
      "constant": false,
      "inputs": [
        {
          "name": "newOwner",
          "type": "address"
        }
      ],
      "name": "transferOwnership",
      "outputs": [],
      "payable": false,
      "stateMutability": "nonpayable",
      "type": "function"
    },
    {
      "constant": true,
      "inputs": [],
      "name": "GATEWAY_COST_UVT",
      "outputs": [
        {
          "name": "",
          "type": "uint256"
        }
      ],
      "payable": false,
      "stateMutability": "view",
      "type": "function"
    },
    {
      "inputs": [
        {
          "name": "tokenAddress",
          "type": "address"
        },
        {
          "name": "odrAddress",
          "type": "address"
        }
      ],
      "payable": false,
      "stateMutability": "nonpayable",
      "type": "constructor"
    },
    {
      "payable": true,
      "stateMutability": "payable",
      "type": "fallback"
    },
    {
      "anonymous": false,
      "inputs": [
        {
          "indexed": true,
          "name": "owner",
          "type": "address"
        },
        {
          "indexed": false,
          "name": "id",
          "type": "bytes32"
        },
        {
          "indexed": false,
          "name": "endpointId",
          "type": "bytes32"
        }
      ],
      "name": "SearchInitiated",
      "type": "event"
    },
    {
      "anonymous": false,
      "inputs": [
        {
          "indexed": true,
          "name": "id",
          "type": "uint256"
        },
        {
          "indexed": false,
          "name": "endpointId",
          "type": "bytes32"
        },
        {
          "indexed": false,
          "name": "requestId",
          "type": "bytes32"
        }
      ],
      "name": "InvokeGateway",
      "type": "event"
    },
    {
      "anonymous": false,
      "inputs": [
        {
          "indexed": true,
          "name": "id",
          "type": "bytes32"
        },
        {
          "indexed": false,
          "name": "gatewayId",
          "type": "uint256"
        },
        {
          "indexed": false,
          "name": "time",
          "type": "uint256"
        },
        {
          "indexed": false,
          "name": "lat",
          "type": "string"
        },
        {
          "indexed": false,
          "name": "long",
          "type": "string"
        }
      ],
      "name": "SearchEndpointFound",
      "type": "event"
    },
    {
      "anonymous": false,
      "inputs": [
        {
          "indexed": true,
          "name": "id",
          "type": "bytes32"
        },
        {
          "indexed": false,
          "name": "gatewaysPaid",
          "type": "bool"
        }
      ],
      "name": "SearchCancelled",
      "type": "event"
    },
    {
      "anonymous": false,
      "inputs": [
        {
          "indexed": true,
          "name": "id",
          "type": "bytes32"
        }
      ],
      "name": "SearchExpired",
      "type": "event"
    },
    {
      "anonymous": false,
      "inputs": [
        {
          "indexed": true,
          "name": "id",
          "type": "bytes32"
        }
      ],
      "name": "ApprovedEndpointFound",
      "type": "event"
    },
    {
      "anonymous": false,
      "inputs": [
        {
          "indexed": true,
          "name": "account",
          "type": "address"
        },
        {
          "indexed": false,
          "name": "amount",
          "type": "uint256"
        }
      ],
      "name": "PurchasedUVT",
      "type": "event"
    },
    {
      "anonymous": false,
      "inputs": [
        {
          "indexed": false,
          "name": "sender",
          "type": "address"
        },
        {
          "indexed": false,
          "name": "value",
          "type": "uint256"
        }
      ],
      "name": "ReceivedFunds",
      "type": "event"
    },
    {
      "anonymous": false,
      "inputs": [
        {
          "indexed": true,
          "name": "previousOwner",
          "type": "address"
        },
        {
          "indexed": true,
          "name": "newOwner",
          "type": "address"
        }
      ],
      "name": "OwnershipTransferred",
      "type": "event"
    },
    {
      "anonymous": false,
      "inputs": [
        {
          "indexed": true,
          "name": "id",
          "type": "bytes32"
        }
      ],
      "name": "ChannelOpened",
      "type": "event"
    },
    {
      "anonymous": false,
      "inputs": [
        {
          "indexed": true,
          "name": "id",
          "type": "bytes32"
        }
      ],
      "name": "ChannelClosed",
      "type": "event"
    },
    {
      "constant": false,
      "inputs": [
        {
          "name": "amount",
          "type": "uint256"
        }
      ],
      "name": "buyUVT",
      "outputs": [],
      "payable": true,
      "stateMutability": "payable",
      "type": "function"
    },
    {
      "constant": false,
      "inputs": [
        {
          "name": "endpointId",
          "type": "bytes32"
        },
        {
          "name": "gatewayIds",
          "type": "uint256[]"
        }
      ],
      "name": "createSearchRequest",
      "outputs": [
        {
          "name": "",
          "type": "bytes32"
        }
      ],
      "payable": false,
      "stateMutability": "nonpayable",
      "type": "function"
    },
    {
      "constant": false,
      "inputs": [
        {
          "name": "id",
          "type": "bytes32"
        }
      ],
      "name": "searchExpired",
      "outputs": [
        {
          "name": "",
          "type": "bool"
        }
      ],
      "payable": false,
      "stateMutability": "nonpayable",
      "type": "function"
    },
    {
      "constant": false,
      "inputs": [
        {
          "name": "id",
          "type": "bytes32"
        }
      ],
      "name": "cancelSearch",
      "outputs": [],
      "payable": false,
      "stateMutability": "nonpayable",
      "type": "function"
    },
    {
      "constant": false,
      "inputs": [
        {
          "name": "requestId",
          "type": "bytes32"
        },
        {
          "name": "gatewayFoundId",
          "type": "uint256"
        }
      ],
      "name": "approveEndpointFound",
      "outputs": [],
      "payable": false,
      "stateMutability": "nonpayable",
      "type": "function"
    },
    {
      "constant": true,
      "inputs": [],
      "name": "getSearchRequestId",
      "outputs": [
        {
          "name": "id",
          "type": "bytes32"
        }
      ],
      "payable": false,
      "stateMutability": "view",
      "type": "function"
    },
    {
      "constant": true,
      "inputs": [],
      "name": "getSearchRequest",
      "outputs": [
        {
          "name": "owner",
          "type": "address"
        },
        {
          "name": "endpointId",
          "type": "bytes32"
        },
        {
          "name": "invokedGateways",
          "type": "uint256[]"
        },
        {
          "name": "channelId",
          "type": "bytes32"
        },
        {
          "name": "state",
          "type": "uint8"
        },
        {
          "name": "expires",
          "type": "uint256"
        }
      ],
      "payable": false,
      "stateMutability": "view",
      "type": "function"
    },
    {
      "constant": true,
      "inputs": [],
      "name": "getSearchRequestStatus",
      "outputs": [
        {
          "name": "state",
          "type": "uint8"
        }
      ],
      "payable": false,
      "stateMutability": "view",
      "type": "function"
    },
    {
      "constant": true,
      "inputs": [
        {
          "name": "id",
          "type": "bytes32"
        }
      ],
      "name": "getSearchRequestById",
      "outputs": [
        {
          "name": "owner",
          "type": "address"
        },
        {
          "name": "endpointId",
          "type": "bytes32"
        },
        {
          "name": "invokedGateways",
          "type": "uint256[]"
        },
        {
          "name": "channelId",
          "type": "bytes32"
        },
        {
          "name": "state",
          "type": "uint8"
        },
        {
          "name": "expires",
          "type": "uint256"
        }
      ],
      "payable": false,
      "stateMutability": "view",
      "type": "function"
    },
    {
      "constant": false,
      "inputs": [],
      "name": "withdrawBalance",
      "outputs": [],
      "payable": false,
      "stateMutability": "nonpayable",
      "type": "function"
    },
    {
      "constant": false,
      "inputs": [],
      "name": "destroy",
      "outputs": [],
      "payable": false,
      "stateMutability": "nonpayable",
      "type": "function"
    }
  ],
  "bytecode": "0x6060604052600a600755341561001457600080fd5b6040516040806130fc8339810160405280805190602001909190805190602001909190505033600260006101000a81548173ffffffffffffffffffffffffffffffffffffffff021916908373ffffffffffffffffffffffffffffffffffffffff16021790555033600260006101000a81548173ffffffffffffffffffffffffffffffffffffffff021916908373ffffffffffffffffffffffffffffffffffffffff16021790555081600560006101000a81548173ffffffffffffffffffffffffffffffffffffffff021916908373ffffffffffffffffffffffffffffffffffffffff16021790555080600660006101000a81548173ffffffffffffffffffffffffffffffffffffffff021916908373ffffffffffffffffffffffffffffffffffffffff1602179055505050612fae8061014e6000396000f3006060604052600436106100fc576000357c0100000000000000000000000000000000000000000000000000000000900463ffffffff1680630eb86c42146101695780635efb870a146101a05780635fd8c710146101f557806365e0c5fa1461020a5780638297c1d61461022257806383197ef014610253578063831c2b82146102685780638da5cb5b1461033a57806392e9df731461038f578063992a6bc3146103bf578063a1d88770146104a8578063a500fd201461052b578063bf664aeb1461056a578063c3cc87f314610641578063d18da8b114610668578063eb295b27146106b1578063f2fde38b14610706578063fdc226361461073f575b7f5741979df5f3e491501da74d3b0a83dd2496ab1f34929865b3e190a8ad75859a3334604051808373ffffffffffffffffffffffffffffffffffffffff1673ffffffffffffffffffffffffffffffffffffffff1681526020018281526020019250505060405180910390a1005b341561017457600080fd5b61017c610768565b6040518082600381111561018c57fe5b60ff16815260200191505060405180910390f35b34156101ab57600080fd5b6101b3610913565b604051808273ffffffffffffffffffffffffffffffffffffffff1673ffffffffffffffffffffffffffffffffffffffff16815260200191505060405180910390f35b341561020057600080fd5b610208610939565b005b6102206004808035906020019091905050610a10565b005b341561022d57600080fd5b610235610b5a565b60405180826000191660001916815260200191505060405180910390f35b341561025e57600080fd5b610266610c58565b005b341561027357600080fd5b61028d600480803560001916906020019091905050610cef565b604051808673ffffffffffffffffffffffffffffffffffffffff1673ffffffffffffffffffffffffffffffffffffffff168152602001806020018581526020018460018111156102d957fe5b60ff168152602001838152602001828103825286818151815260200191508051906020019060200280838360005b83811015610322578082015181840152602081019050610307565b50505050905001965050505050505060405180910390f35b341561034557600080fd5b61034d610e79565b604051808273ffffffffffffffffffffffffffffffffffffffff1673ffffffffffffffffffffffffffffffffffffffff16815260200191505060405180910390f35b341561039a57600080fd5b6103bd600480803560001916906020019091908035906020019091905050610e9f565b005b34156103ca57600080fd5b6103e46004808035600019169060200190919050506110df565b604051808773ffffffffffffffffffffffffffffffffffffffff1673ffffffffffffffffffffffffffffffffffffffff168152602001866000191660001916815260200180602001856000191660001916815260200184600381111561044657fe5b60ff168152602001838152602001828103825286818151815260200191508051906020019060200280838360005b8381101561048f578082015181840152602081019050610474565b5050505090500197505050505050505060405180910390f35b34156104b357600080fd5b61050d600480803560001916906020019091908035906020019082018035906020019080806020026020016040519081016040528093929190818152602001838360200280828437820191505050505050919050506113a3565b60405180826000191660001916815260200191505060405180910390f35b341561053657600080fd5b6105506004808035600019169060200190919050506116f6565b604051808215151515815260200191505060405180910390f35b341561057557600080fd5b61057d6119b9565b604051808773ffffffffffffffffffffffffffffffffffffffff1673ffffffffffffffffffffffffffffffffffffffff16815260200186600019166000191681526020018060200185600019166000191681526020018460038111156105df57fe5b60ff168152602001838152602001828103825286818151815260200191508051906020019060200280838360005b8381101561062857808201518184015260208101905061060d565b5050505090500197505050505050505060405180910390f35b341561064c57600080fd5b610666600480803560001916906020019091905050611c2c565b005b341561067357600080fd5b61068d600480803560001916906020019091905050611ee2565b6040518082600181111561069d57fe5b60ff16815260200191505060405180910390f35b34156106bc57600080fd5b6106e8600480803573ffffffffffffffffffffffffffffffffffffffff16906020019091905050611f45565b60405180826000191660001916815260200191505060405180910390f35b341561071157600080fd5b61073d600480803573ffffffffffffffffffffffffffffffffffffffff16906020019091905050611f8e565b005b341561074a57600080fd5b6107526120e6565b6040518082815260200191505060405180910390f35b6000803373ffffffffffffffffffffffffffffffffffffffff1660036000600460003373ffffffffffffffffffffffffffffffffffffffff1673ffffffffffffffffffffffffffffffffffffffff168152602001908152602001600020546000191660001916815260200190815260200160002060000160009054906101000a900473ffffffffffffffffffffffffffffffffffffffff1673ffffffffffffffffffffffffffffffffffffffff1614151561082257600080fd5b600460003373ffffffffffffffffffffffffffffffffffffffff1673ffffffffffffffffffffffffffffffffffffffff1681526020019081526020016000205490506000600381111561087157fe5b60036000836000191660001916815260200190815260200160002060040160009054906101000a900460ff1660038111156108a857fe5b1480156108d257504260036000836000191660001916815260200190815260200160002060050154105b156108e0576003915061090f565b60036000826000191660001916815260200190815260200160002060040160009054906101000a900460ff1691505b5090565b600660009054906101000a900473ffffffffffffffffffffffffffffffffffffffff1681565b600260009054906101000a900473ffffffffffffffffffffffffffffffffffffffff1673ffffffffffffffffffffffffffffffffffffffff163373ffffffffffffffffffffffffffffffffffffffff1614151561099557600080fd5b600260009054906101000a900473ffffffffffffffffffffffffffffffffffffffff1673ffffffffffffffffffffffffffffffffffffffff166108fc3073ffffffffffffffffffffffffffffffffffffffff16319081150290604051600060405180830381858888f193505050501515610a0e57600080fd5b565b6000600560009054906101000a900473ffffffffffffffffffffffffffffffffffffffff1690508073ffffffffffffffffffffffffffffffffffffffff1663a9059cbb33846000604051602001526040518363ffffffff167c0100000000000000000000000000000000000000000000000000000000028152600401808373ffffffffffffffffffffffffffffffffffffffff1673ffffffffffffffffffffffffffffffffffffffff16815260200182815260200192505050602060405180830381600087803b1515610ae257600080fd5b6102c65a03f11515610af357600080fd5b505050604051805190501515610b0857600080fd5b3373ffffffffffffffffffffffffffffffffffffffff167f0f6830e83634599a8b9cb956c7162a03638744c637464b528f7a86fe1250f866836040518082815260200191505060405180910390a25050565b60003373ffffffffffffffffffffffffffffffffffffffff1660036000600460003373ffffffffffffffffffffffffffffffffffffffff1673ffffffffffffffffffffffffffffffffffffffff168152602001908152602001600020546000191660001916815260200190815260200160002060000160009054906101000a900473ffffffffffffffffffffffffffffffffffffffff1673ffffffffffffffffffffffffffffffffffffffff16141515610c1357600080fd5b600460003373ffffffffffffffffffffffffffffffffffffffff1673ffffffffffffffffffffffffffffffffffffffff16815260200190815260200160002054905090565b600260009054906101000a900473ffffffffffffffffffffffffffffffffffffffff1673ffffffffffffffffffffffffffffffffffffffff163373ffffffffffffffffffffffffffffffffffffffff16141515610cb457600080fd5b600260009054906101000a900473ffffffffffffffffffffffffffffffffffffffff1673ffffffffffffffffffffffffffffffffffffffff16ff5b6000610cf9612e2d565b6000806000610d06612e41565b86600080600083600019166000191681526020019081526020016000206002015414151515610d3457600080fd5b600080896000191660001916815260200190815260200160002060a060405190810160405290816000820160009054906101000a900473ffffffffffffffffffffffffffffffffffffffff1673ffffffffffffffffffffffffffffffffffffffff1673ffffffffffffffffffffffffffffffffffffffff16815260200160018201805480602002602001604051908101604052809291908181526020018280548015610dff57602002820191906000526020600020905b815481526020019060010190808311610deb575b50505050508152602001600282015481526020016003820160009054906101000a900460ff166001811115610e3057fe5b6001811115610e3b57fe5b815260200160048201548152505091508160000151965081602001519550816040015194508160600151935081608001519250505091939590929450565b600260009054906101000a900473ffffffffffffffffffffffffffffffffffffffff1681565b600082600073ffffffffffffffffffffffffffffffffffffffff1660036000836000191660001916815260200190815260200160002060000160009054906101000a900473ffffffffffffffffffffffffffffffffffffffff1673ffffffffffffffffffffffffffffffffffffffff1614151515610f1c57600080fd5b834260036000836000191660001916815260200190815260200160002060050154111515610f4957600080fd5b3373ffffffffffffffffffffffffffffffffffffffff1660036000600460003373ffffffffffffffffffffffffffffffffffffffff1673ffffffffffffffffffffffffffffffffffffffff168152602001908152602001600020546000191660001916815260200190815260200160002060000160009054906101000a900473ffffffffffffffffffffffffffffffffffffffff1673ffffffffffffffffffffffffffffffffffffffff1614151561100057600080fd5b600360008660001916600019168152602001908152602001600020925061102f836003015460018660016120ec565b5061103d836003015461281b565b5060018360040160006101000a81548160ff0219169083600381111561105f57fe5b0217905550600460003373ffffffffffffffffffffffffffffffffffffffff1673ffffffffffffffffffffffffffffffffffffffff1681526020019081526020016000206000905584600019167f5fe26329ad25f541e7885fc79741cb035f666284bb5c415ae275dbde76fbcdd360405160405180910390a25050505050565b6000806110ea612e2d565b60008060006110f7612e98565b873373ffffffffffffffffffffffffffffffffffffffff1660036000836000191660001916815260200190815260200160002060000160009054906101000a900473ffffffffffffffffffffffffffffffffffffffff1673ffffffffffffffffffffffffffffffffffffffff1614806111bd5750600260009054906101000a900473ffffffffffffffffffffffffffffffffffffffff1673ffffffffffffffffffffffffffffffffffffffff163373ffffffffffffffffffffffffffffffffffffffff16145b8061123157503273ffffffffffffffffffffffffffffffffffffffff1660036000836000191660001916815260200190815260200160002060000160009054906101000a900473ffffffffffffffffffffffffffffffffffffffff1673ffffffffffffffffffffffffffffffffffffffff16145b151561123c57600080fd5b600360008a6000191660001916815260200190815260200160002060c060405190810160405290816000820160009054906101000a900473ffffffffffffffffffffffffffffffffffffffff1673ffffffffffffffffffffffffffffffffffffffff1673ffffffffffffffffffffffffffffffffffffffff1681526020016001820154600019166000191681526020016002820180548060200260200160405190810160405280929190818152602001828054801561131a57602002820191906000526020600020905b815481526020019060010190808311611306575b505050505081526020016003820154600019166000191681526020016004820160009054906101000a900460ff16600381111561135357fe5b600381111561135e57fe5b8152602001600582015481525050915081600001519750816020015196508160400151955081606001519450816080015193508160a001519250505091939550919395565b6000806000806113b1612e98565b600080600102600019168860001916141515156113cd57600080fd5b60008751141515156113de57600080fd5b6113e88751612967565b94506114178786600560009054906101000a900473ffffffffffffffffffffffffffffffffffffffff16612aa6565b9350328442604051808473ffffffffffffffffffffffffffffffffffffffff1673ffffffffffffffffffffffffffffffffffffffff166c01000000000000000000000000028152601401836000191660001916815260200182815260200193505050506040518091039020925060c0604051908101604052803273ffffffffffffffffffffffffffffffffffffffff1681526020018960001916815260200188815260200185600019168152602001600060038111156114d357fe5b8152602001610e10420181525091508160036000856000191660001916815260200190815260200160002060008201518160000160006101000a81548173ffffffffffffffffffffffffffffffffffffffff021916908373ffffffffffffffffffffffffffffffffffffffff160217905550602082015181600101906000191690556040820151816002019080519060200190611571929190612efc565b506060820151816003019060001916905560808201518160040160006101000a81548160ff021916908360038111156115a657fe5b021790555060a0820151816005015590505082600460003273ffffffffffffffffffffffffffffffffffffffff1673ffffffffffffffffffffffffffffffffffffffff16815260200190815260200160002081600019169055503273ffffffffffffffffffffffffffffffffffffffff167f6dbed0ca6b6711aef30d0a1175094855f83d0d6b9d7a7d0bf104862c9170a2e6848a60405180836000191660001916815260200182600019166000191681526020019250505060405180910390a2600090505b86518110156116e857868181518110151561168257fe5b906020019060200201517f028712afc64b05883886f38c7937529d87a27e1738b955a0569401b6c13cc526898560405180836000191660001916815260200182600019166000191681526020019250505060405180910390a2808060010191505061166b565b829550505050505092915050565b600081600073ffffffffffffffffffffffffffffffffffffffff1660036000836000191660001916815260200190815260200160002060000160009054906101000a900473ffffffffffffffffffffffffffffffffffffffff1673ffffffffffffffffffffffffffffffffffffffff161415151561177357600080fd5b3373ffffffffffffffffffffffffffffffffffffffff1660036000600460003373ffffffffffffffffffffffffffffffffffffffff1673ffffffffffffffffffffffffffffffffffffffff168152602001908152602001600020546000191660001916815260200190815260200160002060000160009054906101000a900473ffffffffffffffffffffffffffffffffffffffff1673ffffffffffffffffffffffffffffffffffffffff1614151561182a57600080fd5b6000600381111561183757fe5b60036000856000191660001916815260200190815260200160002060040160009054906101000a900460ff16600381111561186e57fe5b14801561189857504260036000856000191660001916815260200190815260200160002060050154105b156119ae576118c96003600085600019166000191681526020019081526020016000206003015460008060016120ec565b506118f16003600085600019166000191681526020019081526020016000206003015461281b565b506003806000856000191660001916815260200190815260200160002060040160006101000a81548160ff0219169083600381111561192c57fe5b021790555082600019167f04388b6f7fba70cae8baa27ebc0929159f5e767b2de8814e79e59ce1ea7a705e60405160405180910390a2600460003373ffffffffffffffffffffffffffffffffffffffff1673ffffffffffffffffffffffffffffffffffffffff16815260200190815260200160002060009055600191506119b3565b600091505b50919050565b6000806119c4612e2d565b60008060006119d1612e98565b3373ffffffffffffffffffffffffffffffffffffffff1660036000600460003373ffffffffffffffffffffffffffffffffffffffff1673ffffffffffffffffffffffffffffffffffffffff168152602001908152602001600020546000191660001916815260200190815260200160002060000160009054906101000a900473ffffffffffffffffffffffffffffffffffffffff1673ffffffffffffffffffffffffffffffffffffffff16141515611a8857600080fd5b60036000600460003373ffffffffffffffffffffffffffffffffffffffff1673ffffffffffffffffffffffffffffffffffffffff168152602001908152602001600020546000191660001916815260200190815260200160002060c060405190810160405290816000820160009054906101000a900473ffffffffffffffffffffffffffffffffffffffff1673ffffffffffffffffffffffffffffffffffffffff1673ffffffffffffffffffffffffffffffffffffffff16815260200160018201546000191660001916815260200160028201805480602002602001604051908101604052809291908181526020018280548015611ba557602002820191906000526020600020905b815481526020019060010190808311611b91575b505050505081526020016003820154600019166000191681526020016004820160009054906101000a900460ff166003811115611bde57fe5b6003811115611be957fe5b8152602001600582015481525050905080600001519650806020015195508060400151945080606001519350806080015192508060a00151915050909192939495565b600081600073ffffffffffffffffffffffffffffffffffffffff1660036000836000191660001916815260200190815260200160002060000160009054906101000a900473ffffffffffffffffffffffffffffffffffffffff1673ffffffffffffffffffffffffffffffffffffffff1614151515611ca957600080fd5b824260036000836000191660001916815260200190815260200160002060050154111515611cd657600080fd5b3373ffffffffffffffffffffffffffffffffffffffff1660036000600460003373ffffffffffffffffffffffffffffffffffffffff1673ffffffffffffffffffffffffffffffffffffffff168152602001908152602001600020546000191660001916815260200190815260200160002060000160009054906101000a900473ffffffffffffffffffffffffffffffffffffffff1673ffffffffffffffffffffffffffffffffffffffff16141515611d8d57600080fd5b610a8c4260036000876000191660001916815260200190815260200160002060050154031115611dc05760009250611dc5565b600192505b611df060036000866000191660001916815260200190815260200160002060030154600080866120ec565b50611e186003600086600019166000191681526020019081526020016000206003015461281b565b50600260036000866000191660001916815260200190815260200160002060040160006101000a81548160ff02191690836003811115611e5457fe5b0217905550600460003373ffffffffffffffffffffffffffffffffffffffff1673ffffffffffffffffffffffffffffffffffffffff1681526020019081526020016000206000905583600019167f667043bfb51a81e4328acc863f6e40a64851a37e88152011d1a7db47286ae60b84604051808215151515815260200191505060405180910390a250505050565b600081600080600083600019166000191681526020019081526020016000206002015414151515611f1257600080fd5b600080846000191660001916815260200190815260200160002060030160009054906101000a900460ff16915050919050565b6000600160008373ffffffffffffffffffffffffffffffffffffffff1673ffffffffffffffffffffffffffffffffffffffff168152602001908152602001600020549050919050565b600260009054906101000a900473ffffffffffffffffffffffffffffffffffffffff1673ffffffffffffffffffffffffffffffffffffffff163373ffffffffffffffffffffffffffffffffffffffff16141515611fea57600080fd5b600073ffffffffffffffffffffffffffffffffffffffff168173ffffffffffffffffffffffffffffffffffffffff161415151561202657600080fd5b8073ffffffffffffffffffffffffffffffffffffffff16600260009054906101000a900473ffffffffffffffffffffffffffffffffffffffff1673ffffffffffffffffffffffffffffffffffffffff167f8be0079c531659141344cd1fd0a4f28419497f9722a3daafe3b4186f6b6457e060405160405180910390a380600260006101000a81548173ffffffffffffffffffffffffffffffffffffffff021916908373ffffffffffffffffffffffffffffffffffffffff16021790555050565b60075481565b60008060008060008060008060008060008e600019166000191681526020019081526020016000209750600560009054906101000a900473ffffffffffffffffffffffffffffffffffffffff1696508915612708578760040154886002015403955061215f868960010180549050612dc2565b94508b1561253057612172856005612dc2565b8503935084612195612185876005612dc2565b60018b6001018054905003612ddd565b019250600091505b876001018054905082101561252b578a88600101838154811015156121be57fe5b9060005260206000209001541415612379578673ffffffffffffffffffffffffffffffffffffffff1663a9059cbb600660009054906101000a900473ffffffffffffffffffffffffffffffffffffffff1673ffffffffffffffffffffffffffffffffffffffff1663e44fe75e8b6001018681548110151561223b57fe5b9060005260206000209001546000604051602001526040518263ffffffff167c010000000000000000000000000000000000000000000000000000000002815260040180828152602001915050602060405180830381600087803b15156122a157600080fd5b6102c65a03f115156122b257600080fd5b50505060405180519050856000604051602001526040518363ffffffff167c0100000000000000000000000000000000000000000000000000000000028152600401808373ffffffffffffffffffffffffffffffffffffffff1673ffffffffffffffffffffffffffffffffffffffff16815260200182815260200192505050602060405180830381600087803b151561234a57600080fd5b6102c65a03f1151561235b57600080fd5b505050604051805190501515612374576000985061280b565b61251e565b8673ffffffffffffffffffffffffffffffffffffffff1663a9059cbb600660009054906101000a900473ffffffffffffffffffffffffffffffffffffffff1673ffffffffffffffffffffffffffffffffffffffff1663e44fe75e8b600101868154811015156123e457fe5b9060005260206000209001546000604051602001526040518263ffffffff167c010000000000000000000000000000000000000000000000000000000002815260040180828152602001915050602060405180830381600087803b151561244a57600080fd5b6102c65a03f1151561245b57600080fd5b50505060405180519050866000604051602001526040518363ffffffff167c0100000000000000000000000000000000000000000000000000000000028152600401808373ffffffffffffffffffffffffffffffffffffffff1673ffffffffffffffffffffffffffffffffffffffff16815260200182815260200192505050602060405180830381600087803b15156124f357600080fd5b6102c65a03f1151561250457600080fd5b50505060405180519050151561251d576000985061280b565b5b818060010192505061219d565b6126f6565b600090505b87600101805490508110156126f5578673ffffffffffffffffffffffffffffffffffffffff1663a9059cbb600660009054906101000a900473ffffffffffffffffffffffffffffffffffffffff1673ffffffffffffffffffffffffffffffffffffffff1663e44fe75e8b600101858154811015156125af57fe5b9060005260206000209001546000604051602001526040518263ffffffff167c010000000000000000000000000000000000000000000000000000000002815260040180828152602001915050602060405180830381600087803b151561261557600080fd5b6102c65a03f1151561262657600080fd5b50505060405180519050876000604051602001526040518363ffffffff167c0100000000000000000000000000000000000000000000000000000000028152600401808373ffffffffffffffffffffffffffffffffffffffff1673ffffffffffffffffffffffffffffffffffffffff16815260200182815260200192505050602060405180830381600087803b15156126be57600080fd5b6102c65a03f115156126cf57600080fd5b5050506040518051905015156126e8576000985061280b565b8080600101915050612535565b5b87600201548860040181905550612806565b8673ffffffffffffffffffffffffffffffffffffffff1663a9059cbb8960000160009054906101000a900473ffffffffffffffffffffffffffffffffffffffff168a600201546000604051602001526040518363ffffffff167c0100000000000000000000000000000000000000000000000000000000028152600401808373ffffffffffffffffffffffffffffffffffffffff1673ffffffffffffffffffffffffffffffffffffffff16815260200182815260200192505050602060405180830381600087803b15156127db57600080fd5b6102c65a03f115156127ec57600080fd5b505050604051805190501515612805576000985061280b565b5b600198505b5050505050505050949350505050565b60008160018081111561282a57fe5b600080836000191660001916815260200190815260200160002060030160009054906101000a900460ff16600181111561286057fe5b1415151561286d57600080fd5b6001600080856000191660001916815260200190815260200160002060030160006101000a81548160ff021916908360018111156128a757fe5b021790555060016000806000866000191660001916815260200190815260200160002060000160009054906101000a900473ffffffffffffffffffffffffffffffffffffffff1673ffffffffffffffffffffffffffffffffffffffff1673ffffffffffffffffffffffffffffffffffffffff1681526020019081526020016000206000905582600019167fceeab2eef998c17fe96f30f83fbf3c55fc5047f6e40c55a0cf72d236e9d2ba7260405160405180910390a26001915050919050565b6000806000600560009054906101000a900473ffffffffffffffffffffffffffffffffffffffff16915061299a84612e18565b9050808273ffffffffffffffffffffffffffffffffffffffff1663dd62ed3e32306000604051602001526040518363ffffffff167c0100000000000000000000000000000000000000000000000000000000028152600401808373ffffffffffffffffffffffffffffffffffffffff1673ffffffffffffffffffffffffffffffffffffffff1681526020018273ffffffffffffffffffffffffffffffffffffffff1673ffffffffffffffffffffffffffffffffffffffff16815260200192505050602060405180830381600087803b1515612a7457600080fd5b6102c65a03f11515612a8557600080fd5b5050506040518051905010151515612a9c57600080fd5b8092505050919050565b600080612ab1612e41565b32866000815181101515612ac157fe5b9060200190602002015142604051808473ffffffffffffffffffffffffffffffffffffffff1673ffffffffffffffffffffffffffffffffffffffff166c0100000000000000000000000002815260140183815260200182815260200193505050506040518091039020915060a0604051908101604052803273ffffffffffffffffffffffffffffffffffffffff16815260200187815260200186815260200160006001811115612b6d57fe5b8152602001600081525090508373ffffffffffffffffffffffffffffffffffffffff166323b872dd3230886000604051602001526040518463ffffffff167c0100000000000000000000000000000000000000000000000000000000028152600401808473ffffffffffffffffffffffffffffffffffffffff1673ffffffffffffffffffffffffffffffffffffffff1681526020018373ffffffffffffffffffffffffffffffffffffffff1673ffffffffffffffffffffffffffffffffffffffff1681526020018281526020019350505050602060405180830381600087803b1515612c5857600080fd5b6102c65a03f11515612c6957600080fd5b505050604051805190501515612c7e57600080fd5b80600080846000191660001916815260200190815260200160002060008201518160000160006101000a81548173ffffffffffffffffffffffffffffffffffffffff021916908373ffffffffffffffffffffffffffffffffffffffff1602179055506020820151816001019080519060200190612cfc929190612efc565b506040820151816002015560608201518160030160006101000a81548160ff02191690836001811115612d2b57fe5b02179055506080820151816004015590505081600160003273ffffffffffffffffffffffffffffffffffffffff1673ffffffffffffffffffffffffffffffffffffffff168152602001908152602001600020816000191690555081600019167f7ffc675d721b8768e035a323722842743bb523487b535906abc97e6b3e2095d060405160405180910390a281925050509392505050565b6000808284811515612dd057fe5b0490508091505092915050565b6000806000841415612df25760009150612e11565b8284029050828482811515612e0357fe5b04141515612e0d57fe5b8091505b5092915050565b6000612e2682600754612ddd565b9050919050565b602060405190810160405280600081525090565b60a060405190810160405280600073ffffffffffffffffffffffffffffffffffffffff168152602001612e72612f49565b81526020016000815260200160006001811115612e8b57fe5b8152602001600081525090565b60c060405190810160405280600073ffffffffffffffffffffffffffffffffffffffff16815260200160008019168152602001612ed3612f49565b81526020016000801916815260200160006003811115612eef57fe5b8152602001600081525090565b828054828255906000526020600020908101928215612f38579160200282015b82811115612f37578251825591602001919060010190612f1c565b5b509050612f459190612f5d565b5090565b602060405190810160405280600081525090565b612f7f91905b80821115612f7b576000816000905550600101612f63565b5090565b905600a165627a7a7230582009745b8d0c64e2057201b00a53ebe412d4379e700951079951d88b764ddf1ce20029",
  "source": "pragma solidity ^0.4.18;\n//pragma experimental ABIEncoderV2;\n\nimport './UVTChannels.sol';\nimport './OpenDeviceRegistry.sol';\nimport '../node_modules/zeppelin-solidity/contracts/math/SafeMath.sol';\nimport '../node_modules/zeppelin-solidity/contracts/token/ERC20.sol';\nimport '../node_modules/zeppelin-solidity/contracts/ownership/Ownable.sol';\n\n/**\n * @title UVTCore\n * @author Carlos Beltran <imthatcarlos@gmail.com>\n *\n * @dev This contract manages the ODR, payment channels, and the invokation\n * of gateways when a user submits a search request. Certain functionality\n * is limited to the contract's owner, such as manually closing channels.\n * TODO: Contract is too large, gas exceeds the mainnet gasLimit\n * OpenDeviceRegistry could be deployed on its own\n */\ncontract UVTCore is UVTChannels, Ownable {\n\n  //============================================================================\n  // EVENTS\n  //============================================================================\n\n  event SearchInitiated(address indexed owner, bytes32 id, bytes32 endpointId);\n  event InvokeGateway(uint indexed id, bytes32 endpointId, bytes32 requestId);\n  event SearchEndpointFound(bytes32 indexed id, uint gatewayId, uint time, string lat, string long);\n  event SearchCancelled(bytes32 indexed id, bool gatewaysPaid);\n  event SearchExpired(bytes32 indexed id);\n  event ApprovedEndpointFound(bytes32 indexed id);\n\n  event PurchasedUVT(address indexed account, uint amount);\n  event ReceivedFunds(address sender, uint value);\n\n  //============================================================================\n  // STORAGE\n  //============================================================================\n\n  enum SearchState { Searching, Found, Cancelled, Expired }\n\n  struct SearchRequest {\n    address owner;\n    bytes32 endpointId;\n    uint[] invokedGateways;\n    bytes32 channelId;\n    SearchState state;\n    uint expires;\n  }\n\n  mapping (bytes32 => SearchRequest) searchRequests;\n  mapping (address => bytes32) accountToRequestIds;\n\n  address uvtTokenAddress;\n  OpenDeviceRegistry public deviceRegistry;\n\n  uint public GATEWAY_COST_UVT = 10;\n\n  //============================================================================\n  // MODIFIERS\n  //============================================================================\n\n  modifier validRequest(bytes32 id) {\n    require(searchRequests[id].owner != address(0));\n    _;\n  }\n\n  modifier notExpired(bytes32 id) {\n    require(searchRequests[id].expires > now);\n    _;\n  }\n\n  modifier onlyRequestOwner {\n    require(searchRequests[accountToRequestIds[msg.sender]].owner == msg.sender);\n    _;\n  }\n\n  modifier onlyOwnerOrRequestOwner(bytes32 id) {\n    require(\n      searchRequests[id].owner == msg.sender\n      || msg.sender == owner\n      || searchRequests[id].owner == tx.origin\n    );\n    _;\n  }\n\n  /**\n   * The contract's constructor\n   * Upon initializing, the owner MUST send UVT to this contract in order to\n   * fund accounts when they would like to buy UVT with ETH.\n   *\n   * @param tokenAddress The address of the UVTToken contract\n   */\n  function UVTCore(address tokenAddress, address odrAddress) public {\n    owner = msg.sender;\n    uvtTokenAddress = tokenAddress;\n    deviceRegistry = OpenDeviceRegistry(odrAddress);\n  }\n\n  //============================================================================\n  // EXTERNAL FUNCTIONS\n  //============================================================================\n\n  /**\n   * Transfer UVT tokens to the account in exchange for ETH\n   * NOTE: the exchange is 0.000450 ETH per UVT\n   */\n  function buyUVT(uint amount) external payable {\n    // not necessary?\n    //require(msg.value >= amount);\n\n    ERC20 uvtToken = ERC20(uvtTokenAddress);\n    require(uvtToken.transfer(msg.sender, amount));\n    PurchasedUVT(msg.sender, amount);\n  }\n\n  /**\n   * Create a new search request. By now, the user has selected which gateways\n   * to invoke and has approved the fee.\n   * A channel is created between the user and the invoked gateways, depositing\n   * UVT tokens from user's account.\n   * Invoked gateways are notified of the request.\n   * The search is set to expire in 1 hour\n   * TODO: tx.origin shouldn't be used but we are calling from UVTToken\n   *\n   * @param endpointId      The id of the endpoint gateways are to find\n   * @param gatewayIds The ids of gateways to be invoked\n   */\n  function createSearchRequest(bytes32 endpointId, uint[] gatewayIds)\n    public\n    returns (bytes32)\n  {\n    // sanity checks\n    require(endpointId != bytes32(0));\n    require(gatewayIds.length != 0);\n\n    uint totalCost = _verifyPayment(gatewayIds.length);\n\n    // open the channel and fund it with the account's tokens\n    bytes32 channelId = _openChannel(gatewayIds, totalCost, ERC20(uvtTokenAddress));\n\n    // create the request\n    bytes32 id = keccak256(tx.origin, channelId, now);\n    SearchRequest memory request = SearchRequest({\n      owner: tx.origin,\n      endpointId: endpointId,\n      invokedGateways: gatewayIds,\n      channelId: channelId,\n      state: SearchState.Searching,\n      expires: (now + 1 hours)\n    });\n\n    // save to storage and lookup table\n    searchRequests[id] = request;\n    accountToRequestIds[tx.origin] = id;\n\n    // invoke gateways\n    SearchInitiated(tx.origin, id, endpointId);\n    for(uint i = 0; i < gatewayIds.length; i++) {\n      InvokeGateway(gatewayIds[i], endpointId, id);\n    }\n\n    return id;\n  }\n\n  /**\n   * Called from a gateway when it locates the missing item. Broadcasts an event\n   * for the endpoint's owner to acknowledge\n   *\n   * @param requestId   The id of the search request\n   * @param endpointSig [hash, r, s] Signature data provided by the missing item's LoRa\n   * transmitter proving that it was indeed found\n   * @param v           The \"v\" value of endpointSig\n   * @param lat         The latitude part of the endpoint's current location\n   * @param long        The longitude part of the endpoint's current location\n   */\n  /* function endpointFound(\n    bytes32 requestId,\n    bytes32[3] endpointSig,\n    uint8 v,\n    string lat,\n    string long\n  )\n    external\n    validRequest(requestId)\n    notExpired(requestId)\n  {\n    // only a gateway owner may call this\n    require(deviceRegistry.verifyGatewayOwner(msg.sender));\n\n    uint gatewayId = deviceRegistry.getGatewayIdFromOwner(msg.sender);\n    SearchRequest storage request = searchRequests[requestId];\n    // verify the endpoint's signaure\n    // TODO: not working atm\n    //_verifyEndpoint(requestId, request.endpointId, endpointSig, v);\n\n    // disburse the funds and close the channel\n    _disburseFunds(request.channelId, true, gatewayId, true);\n    _closeChannel(request.channelId);\n\n    // update search state\n    request.state = SearchState.Found;\n\n    // remove from lookup table\n    delete accountToRequestIds[msg.sender];\n\n    SearchEndpointFound(requestId, gatewayId, now, lat, long);\n  } */\n\n  /**\n   * Called to check if the request has expired, and if so, update the state\n   * and close the channel.\n   * This is called by the software client after the search period - the\n   * invoked gateways should manage themselves\n   */\n  function searchExpired(bytes32 id)\n    external\n    validRequest(id)\n    onlyRequestOwner\n    returns (bool)\n  {\n    if (searchRequests[id].state == SearchState.Searching &&\n      searchRequests[id].expires < now)\n    {\n      // disburse the funds and close the channel\n      _disburseFunds(searchRequests[id].channelId, false, 0, true);\n      _closeChannel(searchRequests[id].channelId);\n\n      // update search state\n      searchRequests[id].state = SearchState.Expired;\n      SearchExpired(id);\n\n      // remove from lookup table\n      delete accountToRequestIds[msg.sender];\n\n      return true;\n    } else {\n      return false;\n    }\n  }\n\n  /**\n   * Cancels the search request. The account is given a grace period of\n   * 15 minutes where they cancel and be refunded their UVT tokens.\n   * This is called by the search request owner\n   */\n  function cancelSearch(bytes32 id)\n    external\n    validRequest(id)\n    notExpired(id)\n    onlyRequestOwner\n  {\n    // diff between expiry and now should be > 45 min for refund\n    bool shouldPayGateways;\n    if ((searchRequests[id].expires - now) > 45 minutes) {\n      shouldPayGateways = false;\n    } else {\n      shouldPayGateways = true;\n    }\n\n    // disburse the funds and close the channel\n    _disburseFunds(searchRequests[id].channelId, false, 0, shouldPayGateways);\n    _closeChannel(searchRequests[id].channelId);\n\n    // update search state\n    searchRequests[id].state = SearchState.Cancelled;\n\n    // remove from lookup table\n    delete accountToRequestIds[msg.sender];\n\n    SearchCancelled(id, shouldPayGateways);\n  }\n\n  /**\n   * Called from the software client to approve the item was found, close the\n   * channel and release escrow\n   *\n   * @param requestId       The id of the search request\n   * @param gatewayFoundId  The id of the gateway that found the item\n   */\n  function approveEndpointFound(\n    bytes32 requestId,\n    uint gatewayFoundId\n  )\n    external\n    validRequest(requestId)\n    notExpired(requestId)\n    onlyRequestOwner()\n  {\n    SearchRequest storage request = searchRequests[requestId];\n\n    // disburse the funds and close the channel\n    _disburseFunds(request.channelId, true, gatewayFoundId, true);\n    _closeChannel(request.channelId);\n\n    // update search state\n    request.state = SearchState.Found;\n\n    // remove from lookup table\n    delete accountToRequestIds[msg.sender];\n\n    ApprovedEndpointFound(requestId);\n  }\n\n  /**\n   * Renews the search request with the same parameters\n   * Can only be called if the state is != Searching\n   * NOTE: only possible because we don't clear the request OR channels from storage...\n   * TODO: we should do this without an extra transaction, just update the channel's value\n   * and notify the gateways to extend the expiry\n   */\n  /* function renewSearch(bytes32 id)\n    external\n    validRequest(id)\n    onlyRequestOwner\n  {\n    SearchRequest storage request = searchRequests[id];\n\n    // can only renew an expired or cancelled request\n    require(request.state != SearchState.Searching);\n\n    uint[] memory gatewayIds = channels[request.channelId].gatewayIds;\n\n    // might not be necessary?\n    _verifyPayment(gatewayIds.length);\n\n    // open the channel and fund it with the account's tokens\n    _reopenChannel(request.channelId);\n    require(ERC20(uvtTokenAddress).transferFrom(\n      msg.sender,\n      address(this),\n      channels[request.channelId].deposit\n    ));\n\n    // opened with same number of gateways, so new cost is the same\n    channels[request.channelId].deposit = channels[request.channelId].deposit + channels[request.channelId].deposit;\n\n    // update search state & expire time\n    request.state = SearchState.Searching;\n    request.expires = now + 1 hours;\n\n    // re-add to lookup table\n    accountToRequestIds[msg.sender] = id;\n\n    // invoke gateways\n    SearchInitiated(msg.sender, id, request.endpointId);\n    for(uint i = 0; i < gatewayIds.length; i++) {\n      InvokeGateway(gatewayIds[i], request.endpointId, id);\n    }\n  } */\n\n  /**\n   * Returns the id of the owner's search request\n   * Can only be called by the owner of the request\n   */\n  function getSearchRequestId()\n    external\n    view\n    onlyRequestOwner\n    returns (bytes32 id)\n  {\n\n    return accountToRequestIds[msg.sender];\n  }\n\n  /**\n   * Returns all information for the owner's search request\n   * Can only be called by the owner of the request\n   */\n  function getSearchRequest()\n    external\n    view\n    onlyRequestOwner\n    returns (\n      address owner,\n      bytes32 endpointId,\n      uint[] invokedGateways,\n      bytes32 channelId,\n      SearchState state,\n      uint expires\n    )\n  {\n    SearchRequest memory request = searchRequests[accountToRequestIds[msg.sender]];\n\n    owner = request.owner;\n    endpointId = request.endpointId;\n    invokedGateways = request.invokedGateways;\n    channelId = request.channelId;\n    state = request.state;\n    expires = request.expires;\n  }\n\n  /**\n   * Returns the state of the owner's search request\n   * Can only be called by the owner of the request\n   */\n  function getSearchRequestStatus()\n    external\n    view\n    onlyRequestOwner\n    returns (SearchState state)\n  {\n    bytes32 id = accountToRequestIds[msg.sender];\n\n    if (\n      searchRequests[id].state == SearchState.Searching\n      && searchRequests[id].expires < now\n    ) {\n      return SearchState.Expired;\n    } else {\n      return searchRequests[id].state;\n    }\n  }\n\n  /**\n   * Returns all information for the given search request\n   * Can only be called by the contract owner or request owner\n   *\n   * @param id The SearchRequest id\n   */\n  function getSearchRequestById(bytes32 id)\n    public\n    view\n    onlyOwnerOrRequestOwner(id)\n    returns (\n      address owner,\n      bytes32 endpointId,\n      uint[] invokedGateways,\n      bytes32 channelId,\n      SearchState state,\n      uint expires\n    )\n  {\n    SearchRequest memory request = searchRequests[id];\n\n    owner = request.owner;\n    endpointId = request.endpointId;\n    invokedGateways = request.invokedGateways;\n    channelId = request.channelId;\n    state = request.state;\n    expires = request.expires;\n  }\n\n  function() external payable {\n    ReceivedFunds(msg.sender, msg.value);\n  }\n\n  function withdrawBalance() external onlyOwner {\n    owner.transfer(this.balance);\n  }\n\n  function destroy() external onlyOwner {\n    selfdestruct(owner);\n  }\n\n  //============================================================================\n  // INTERNAL FUNCTIONS\n  //============================================================================\n\n  /*\n   * Disburse the channel's funds. If the gatewayIdFound param is set (> 0)\n   * that gateway receives 50% of all other payouts\n   *\n   * @param channelId         The channel id\n   * @param gatewayIdFound    The id of the gateway that located the endpoint.\n   * Set to -1 if no gateway found the endpoint\n   * @param shouldPayGateways Flag for whether the gateways are being paid out\n   */\n  function _disburseFunds(\n      bytes32 channelId,\n      bool endointFound,\n      uint gatewayIdFound,\n      bool shouldPayGateways\n  )\n    internal\n    returns (bool)\n  {\n    Channel storage channel = channels[channelId];\n    ERC20 uvtToken = ERC20(uvtTokenAddress);\n\n    // if user cancelled within grace period, they get refunded\n    if (shouldPayGateways) {\n      // in case they renew the search, paidOut is updated with what they've\n      // already paid\n      uint value = channel.deposit - channel.paidOut;\n\n      // what each gateway should get if evenly distributed\n      uint allPayout = SafeMath.div(value, channel.gatewayIds.length);\n\n      if (endointFound) {\n        // pay gatewayIdFound 20% from everyone else's\n        uint othersPayout = allPayout - SafeMath.div(allPayout, 5);\n        uint finderPayout = SafeMath.mul(\n          SafeMath.div(allPayout, 5),\n          (channel.gatewayIds.length - 1)\n        ) + allPayout;\n\n        for (uint i = 0; i < channel.gatewayIds.length; i++) {\n          if (channel.gatewayIds[i] == gatewayIdFound) {\n            if (!uvtToken.transfer(deviceRegistry.getGatewayOwner(channel.gatewayIds[i]), finderPayout)) {\n              return false;\n            }\n          } else {\n            if (!uvtToken.transfer(deviceRegistry.getGatewayOwner(channel.gatewayIds[i]), othersPayout)) {\n              return false;\n            }\n          }\n        }\n      } else {\n        // pay everyone equally\n        for (uint j = 0; j < channel.gatewayIds.length; j++) {\n          if (!uvtToken.transfer(deviceRegistry.getGatewayOwner(channel.gatewayIds[j]), allPayout)) {\n            return false;\n          }\n        }\n      }\n\n      /* TODO: a require() for the payouts being equal to the value */\n\n      channel.paidOut = channel.deposit;\n    } else {\n      if (!uvtToken.transfer(channel.sender, channel.deposit)) {\n        return false;\n      }\n    }\n\n    return true;\n  }\n\n  /**\n   * Verify that the account has approved the fee\n   * TODO: tx.origin shouldn't be used but we are calling from UVTToken\n   *\n   * @param gatewaysCount The number of gateways the account is paying for\n   */\n  function _verifyPayment(uint gatewaysCount) internal view returns (uint) {\n    ERC20 uvtToken = ERC20(uvtTokenAddress);\n    uint totalCost = _searchCost(gatewaysCount);\n\n    // make sure they've approved the fee\n    /* TODO: not working after using tx.origin */\n    require(uvtToken.allowance(tx.origin, address(this)) >= totalCost);\n\n    return totalCost;\n  }\n\n  /**\n   * The total cost (in UVT) for the search - in this case, the number of\n   * gateways to be invoked\n   *\n   * @param gatewaysCount The number of gateways the account is paying for\n   */\n  function _searchCost(uint gatewaysCount) internal view returns (uint) {\n    return SafeMath.mul(gatewaysCount, GATEWAY_COST_UVT);\n  }\n\n  /**\n   * Verify that the endpoint is valid and signed by the account that initiated\n   * the request.\n   * TODO: ecrecover giving issues sometimes\n   *\n   * @param requestId   Id of the search request\n   * @param h           Data for the endpoint's signed data [hash, r, s]\n   * @param v           The \"v\" value of the endpoint signaure\n   */\n  function _verifyEndpoint(bytes32 requestId, bytes32 endpointId, bytes32[3] h, uint8 v)\n    internal\n    view\n  {\n    // testrpc and parity adds prefix when signing\n    // https://github.com/ethereum/wiki/wiki/JSON-RPC#eth_sign\n    bytes memory prefix = \"\\x19Ethereum Signed Message:\\n32\";\n    bytes32 prefixedHash = keccak256(prefix, h[0]);\n\n    address signer = ecrecover(prefixedHash, v, h[1], h[2]);\n    require(signer == searchRequests[requestId].owner);\n\n    /* TODO: verify the endpointID is the same too */\n  }\n}\n",
  "sourcePath": "/Users/carlos/Desktop/imthatcarlos/uvt-network/contracts/UVTCore.sol",
  "compiler": {
    "name": "solc",
    "version": "0.4.19+commit.c4cbbb05.Emscripten.clang"
  },
  "schemaVersion": "2.0.0",
  "updatedAt": "2018-03-04T23:07:01.469Z"
}