{
  "contractName": "UVTCore",
  "abi": [
    {
      "constant": true,
      "inputs": [],
      "name": "getSearchRequestStatus",
      "outputs": [
        {
          "name": "state",
          "type": "uint8"
        }
      ],
      "payable": false,
      "stateMutability": "view",
      "type": "function"
    },
    {
      "constant": false,
      "inputs": [
        {
          "name": "ip",
          "type": "string"
        },
        {
          "name": "lat",
          "type": "string"
        },
        {
          "name": "long",
          "type": "string"
        },
        {
          "name": "city",
          "type": "string"
        },
        {
          "name": "area",
          "type": "string"
        },
        {
          "name": "physicalAddressAndNumber",
          "type": "string"
        }
      ],
      "name": "addGateway",
      "outputs": [],
      "payable": false,
      "stateMutability": "nonpayable",
      "type": "function"
    },
    {
      "constant": true,
      "inputs": [
        {
          "name": "city",
          "type": "string"
        },
        {
          "name": "area",
          "type": "string"
        }
      ],
      "name": "getGatewaysInRange",
      "outputs": [
        {
          "name": "",
          "type": "uint256[20]"
        }
      ],
      "payable": false,
      "stateMutability": "view",
      "type": "function"
    },
    {
      "constant": true,
      "inputs": [],
      "name": "getMyGatewayId",
      "outputs": [
        {
          "name": "",
          "type": "uint256"
        }
      ],
      "payable": false,
      "stateMutability": "view",
      "type": "function"
    },
    {
      "constant": true,
      "inputs": [
        {
          "name": "id",
          "type": "uint256"
        }
      ],
      "name": "getGateway",
      "outputs": [
        {
          "name": "owner",
          "type": "address"
        },
        {
          "name": "ip",
          "type": "string"
        },
        {
          "name": "lat",
          "type": "string"
        },
        {
          "name": "long",
          "type": "string"
        },
        {
          "name": "city",
          "type": "string"
        },
        {
          "name": "area",
          "type": "string"
        },
        {
          "name": "physicalAddressAndNumber",
          "type": "string"
        }
      ],
      "payable": false,
      "stateMutability": "view",
      "type": "function"
    },
    {
      "constant": false,
      "inputs": [
        {
          "name": "requestId",
          "type": "bytes32"
        },
        {
          "name": "endpointSig",
          "type": "bytes32[3]"
        },
        {
          "name": "v",
          "type": "uint8"
        },
        {
          "name": "lat",
          "type": "string"
        },
        {
          "name": "long",
          "type": "string"
        }
      ],
      "name": "endpointFound",
      "outputs": [],
      "payable": false,
      "stateMutability": "nonpayable",
      "type": "function"
    },
    {
      "constant": false,
      "inputs": [],
      "name": "withdrawBalance",
      "outputs": [],
      "payable": false,
      "stateMutability": "nonpayable",
      "type": "function"
    },
    {
      "constant": false,
      "inputs": [
        {
          "name": "amount",
          "type": "uint256"
        }
      ],
      "name": "buyUVT",
      "outputs": [],
      "payable": true,
      "stateMutability": "payable",
      "type": "function"
    },
    {
      "constant": true,
      "inputs": [],
      "name": "getSearchRequestId",
      "outputs": [
        {
          "name": "id",
          "type": "bytes32"
        }
      ],
      "payable": false,
      "stateMutability": "view",
      "type": "function"
    },
    {
      "constant": true,
      "inputs": [
        {
          "name": "id",
          "type": "bytes32"
        }
      ],
      "name": "getChannel",
      "outputs": [
        {
          "name": "sender",
          "type": "address"
        },
        {
          "name": "gatewayIds",
          "type": "uint256[]"
        },
        {
          "name": "deposit",
          "type": "uint256"
        },
        {
          "name": "state",
          "type": "uint8"
        },
        {
          "name": "paidOut",
          "type": "uint256"
        }
      ],
      "payable": false,
      "stateMutability": "view",
      "type": "function"
    },
    {
      "constant": true,
      "inputs": [],
      "name": "owner",
      "outputs": [
        {
          "name": "",
          "type": "address"
        }
      ],
      "payable": false,
      "stateMutability": "view",
      "type": "function"
    },
    {
      "constant": true,
      "inputs": [
        {
          "name": "id",
          "type": "bytes32"
        }
      ],
      "name": "getSearchRequestById",
      "outputs": [
        {
          "name": "owner",
          "type": "address"
        },
        {
          "name": "endpointId",
          "type": "bytes32"
        },
        {
          "name": "invokedGateways",
          "type": "uint256[]"
        },
        {
          "name": "channelId",
          "type": "bytes32"
        },
        {
          "name": "state",
          "type": "uint8"
        },
        {
          "name": "expires",
          "type": "uint256"
        }
      ],
      "payable": false,
      "stateMutability": "view",
      "type": "function"
    },
    {
      "constant": false,
      "inputs": [
        {
          "name": "endpointId",
          "type": "bytes32"
        },
        {
          "name": "gatewayIds",
          "type": "uint256[]"
        }
      ],
      "name": "createSearchRequest",
      "outputs": [],
      "payable": false,
      "stateMutability": "nonpayable",
      "type": "function"
    },
    {
      "constant": false,
      "inputs": [
        {
          "name": "id",
          "type": "bytes32"
        }
      ],
      "name": "searchExpired",
      "outputs": [
        {
          "name": "",
          "type": "bool"
        }
      ],
      "payable": false,
      "stateMutability": "nonpayable",
      "type": "function"
    },
    {
      "constant": true,
      "inputs": [],
      "name": "getMyGateway",
      "outputs": [
        {
          "name": "id",
          "type": "uint256"
        },
        {
          "name": "ip",
          "type": "string"
        },
        {
          "name": "lat",
          "type": "string"
        },
        {
          "name": "long",
          "type": "string"
        },
        {
          "name": "city",
          "type": "string"
        },
        {
          "name": "area",
          "type": "string"
        },
        {
          "name": "physicalAddressAndNumber",
          "type": "string"
        }
      ],
      "payable": false,
      "stateMutability": "view",
      "type": "function"
    },
    {
      "constant": true,
      "inputs": [],
      "name": "getSearchRequest",
      "outputs": [
        {
          "name": "owner",
          "type": "address"
        },
        {
          "name": "endpointId",
          "type": "bytes32"
        },
        {
          "name": "invokedGateways",
          "type": "uint256[]"
        },
        {
          "name": "channelId",
          "type": "bytes32"
        },
        {
          "name": "state",
          "type": "uint8"
        },
        {
          "name": "expires",
          "type": "uint256"
        }
      ],
      "payable": false,
      "stateMutability": "view",
      "type": "function"
    },
    {
      "constant": false,
      "inputs": [
        {
          "name": "id",
          "type": "bytes32"
        }
      ],
      "name": "cancelSearch",
      "outputs": [],
      "payable": false,
      "stateMutability": "nonpayable",
      "type": "function"
    },
    {
      "constant": true,
      "inputs": [
        {
          "name": "id",
          "type": "bytes32"
        }
      ],
      "name": "getChannelState",
      "outputs": [
        {
          "name": "",
          "type": "uint8"
        }
      ],
      "payable": false,
      "stateMutability": "view",
      "type": "function"
    },
    {
      "constant": false,
      "inputs": [
        {
          "name": "id",
          "type": "uint256"
        }
      ],
      "name": "removeGateway",
      "outputs": [],
      "payable": false,
      "stateMutability": "nonpayable",
      "type": "function"
    },
    {
      "constant": true,
      "inputs": [
        {
          "name": "sender",
          "type": "address"
        }
      ],
      "name": "getChannelId",
      "outputs": [
        {
          "name": "",
          "type": "bytes32"
        }
      ],
      "payable": false,
      "stateMutability": "view",
      "type": "function"
    },
    {
      "constant": true,
      "inputs": [],
      "name": "getGatewaysCount",
      "outputs": [
        {
          "name": "",
          "type": "uint256"
        }
      ],
      "payable": false,
      "stateMutability": "view",
      "type": "function"
    },
    {
      "constant": false,
      "inputs": [
        {
          "name": "newOwner",
          "type": "address"
        }
      ],
      "name": "transferOwnership",
      "outputs": [],
      "payable": false,
      "stateMutability": "nonpayable",
      "type": "function"
    },
    {
      "constant": true,
      "inputs": [
        {
          "name": "id",
          "type": "uint256"
        }
      ],
      "name": "getGatewayCoordinates",
      "outputs": [
        {
          "name": "lat",
          "type": "string"
        },
        {
          "name": "long",
          "type": "string"
        }
      ],
      "payable": false,
      "stateMutability": "view",
      "type": "function"
    },
    {
      "constant": true,
      "inputs": [],
      "name": "GATEWAY_COST_UVT",
      "outputs": [
        {
          "name": "",
          "type": "uint256"
        }
      ],
      "payable": false,
      "stateMutability": "view",
      "type": "function"
    },
    {
      "inputs": [
        {
          "name": "tokenAddress",
          "type": "address"
        }
      ],
      "payable": false,
      "stateMutability": "nonpayable",
      "type": "constructor"
    },
    {
      "payable": true,
      "stateMutability": "payable",
      "type": "fallback"
    },
    {
      "anonymous": false,
      "inputs": [
        {
          "indexed": true,
          "name": "owner",
          "type": "address"
        },
        {
          "indexed": false,
          "name": "id",
          "type": "bytes32"
        },
        {
          "indexed": false,
          "name": "endpointId",
          "type": "bytes32"
        }
      ],
      "name": "SearchInitiated",
      "type": "event"
    },
    {
      "anonymous": false,
      "inputs": [
        {
          "indexed": true,
          "name": "id",
          "type": "uint256"
        },
        {
          "indexed": false,
          "name": "endpointId",
          "type": "bytes32"
        },
        {
          "indexed": false,
          "name": "requestId",
          "type": "bytes32"
        }
      ],
      "name": "InvokeGateway",
      "type": "event"
    },
    {
      "anonymous": false,
      "inputs": [
        {
          "indexed": true,
          "name": "id",
          "type": "bytes32"
        },
        {
          "indexed": false,
          "name": "gatewayId",
          "type": "uint256"
        },
        {
          "indexed": false,
          "name": "time",
          "type": "uint256"
        },
        {
          "indexed": false,
          "name": "lat",
          "type": "string"
        },
        {
          "indexed": false,
          "name": "long",
          "type": "string"
        }
      ],
      "name": "SearchEndpointFound",
      "type": "event"
    },
    {
      "anonymous": false,
      "inputs": [
        {
          "indexed": true,
          "name": "id",
          "type": "bytes32"
        },
        {
          "indexed": false,
          "name": "gatewaysPaid",
          "type": "bool"
        }
      ],
      "name": "SearchCancelled",
      "type": "event"
    },
    {
      "anonymous": false,
      "inputs": [
        {
          "indexed": true,
          "name": "id",
          "type": "bytes32"
        }
      ],
      "name": "SearchExpired",
      "type": "event"
    },
    {
      "anonymous": false,
      "inputs": [
        {
          "indexed": true,
          "name": "account",
          "type": "address"
        },
        {
          "indexed": false,
          "name": "amount",
          "type": "uint256"
        }
      ],
      "name": "PurchasedUVT",
      "type": "event"
    },
    {
      "anonymous": false,
      "inputs": [
        {
          "indexed": false,
          "name": "sender",
          "type": "address"
        },
        {
          "indexed": false,
          "name": "value",
          "type": "uint256"
        }
      ],
      "name": "ReceivedFunds",
      "type": "event"
    },
    {
      "anonymous": false,
      "inputs": [
        {
          "indexed": true,
          "name": "id",
          "type": "bytes32"
        }
      ],
      "name": "ChannelOpened",
      "type": "event"
    },
    {
      "anonymous": false,
      "inputs": [
        {
          "indexed": true,
          "name": "id",
          "type": "bytes32"
        }
      ],
      "name": "ChannelClosed",
      "type": "event"
    },
    {
      "anonymous": false,
      "inputs": [
        {
          "indexed": false,
          "name": "id",
          "type": "uint256"
        },
        {
          "indexed": false,
          "name": "by",
          "type": "address"
        }
      ],
      "name": "GatewayAdded",
      "type": "event"
    },
    {
      "anonymous": false,
      "inputs": [
        {
          "indexed": false,
          "name": "ip",
          "type": "string"
        },
        {
          "indexed": false,
          "name": "by",
          "type": "address"
        }
      ],
      "name": "GatewayRemoved",
      "type": "event"
    },
    {
      "anonymous": false,
      "inputs": [
        {
          "indexed": true,
          "name": "previousOwner",
          "type": "address"
        },
        {
          "indexed": true,
          "name": "newOwner",
          "type": "address"
        }
      ],
      "name": "OwnershipTransferred",
      "type": "event"
    }
  ],
  "bytecode": "0x6060604052600a600955341561001457600080fd5b60405160208061562a83398101604052808051906020019091905050336000806101000a81548173ffffffffffffffffffffffffffffffffffffffff021916908373ffffffffffffffffffffffffffffffffffffffff160217905550336000806101000a81548173ffffffffffffffffffffffffffffffffffffffff021916908373ffffffffffffffffffffffffffffffffffffffff16021790555080600860006101000a81548173ffffffffffffffffffffffffffffffffffffffff021916908373ffffffffffffffffffffffffffffffffffffffff16021790555050615529806101016000396000f30060606040526004361061013e576000357c0100000000000000000000000000000000000000000000000000000000900463ffffffff1680630eb86c42146101ab5780631c398289146101e25780631c4c3f7e14610274578063200f83ec146102f257806330cc0e0c1461031b5780634143aef0146106065780635fd8c7101461066857806365e0c5fa1461067d5780638297c1d614610695578063831c2b82146106c65780638da5cb5b14610798578063992a6bc3146107ed578063a1d88770146108d6578063a500fd2014610911578063ba6ea59f14610950578063bf664aeb14610c01578063c3cc87f314610cd8578063d18da8b114610cff578063e5dac70314610d48578063eb295b2714610d6b578063ec97d3d514610dc0578063f2fde38b14610de9578063fbe669d514610e22578063fdc2263614610f2a575b7f5741979df5f3e491501da74d3b0a83dd2496ab1f34929865b3e190a8ad75859a3334604051808373ffffffffffffffffffffffffffffffffffffffff1673ffffffffffffffffffffffffffffffffffffffff1681526020018281526020019250505060405180910390a1005b34156101b657600080fd5b6101be610f53565b604051808260038111156101ce57fe5b60ff16815260200191505060405180910390f35b34156101ed57600080fd5b61027260048080359060200190820180359060200191909192908035906020019082018035906020019190919290803590602001908201803590602001919091929080359060200190820180359060200191909192908035906020019082018035906020019190919290803590602001908201803590602001919091929050506110fe565b005b341561027f57600080fd5b6102b4600480803590602001908201803590602001919091929080359060200190820180359060200191909192905050611591565b6040518082601460200280838360005b838110156102df5780820151818401526020810190506102c4565b5050505090500191505060405180910390f35b34156102fd57600080fd5b61030561169c565b6040518082815260200191505060405180910390f35b341561032657600080fd5b61033c6004808035906020019091905050611762565b604051808873ffffffffffffffffffffffffffffffffffffffff1673ffffffffffffffffffffffffffffffffffffffff16815260200180602001806020018060200180602001806020018060200187810387528d818151815260200191508051906020019080838360005b838110156103c25780820151818401526020810190506103a7565b50505050905090810190601f1680156103ef5780820380516001836020036101000a031916815260200191505b5087810386528c818151815260200191508051906020019080838360005b8381101561042857808201518184015260208101905061040d565b50505050905090810190601f1680156104555780820380516001836020036101000a031916815260200191505b5087810385528b818151815260200191508051906020019080838360005b8381101561048e578082015181840152602081019050610473565b50505050905090810190601f1680156104bb5780820380516001836020036101000a031916815260200191505b5087810384528a818151815260200191508051906020019080838360005b838110156104f45780820151818401526020810190506104d9565b50505050905090810190601f1680156105215780820380516001836020036101000a031916815260200191505b50878103835289818151815260200191508051906020019080838360005b8381101561055a57808201518184015260208101905061053f565b50505050905090810190601f1680156105875780820380516001836020036101000a031916815260200191505b50878103825288818151815260200191508051906020019080838360005b838110156105c05780820151818401526020810190506105a5565b50505050905090810190601f1680156105ed5780820380516001836020036101000a031916815260200191505b509d505050505050505050505050505060405180910390f35b341561061157600080fd5b6106666004808035600019169060200190919080606001909190803560ff1690602001909190803590602001908201803590602001919091929080359060200190820180359060200191909192905050611d0a565b005b341561067357600080fd5b61067b611fec565b005b61069360048080359060200190919050506120c1565b005b34156106a057600080fd5b6106a8612219565b60405180826000191660001916815260200191505060405180910390f35b34156106d157600080fd5b6106eb600480803560001916906020019091905050612317565b604051808673ffffffffffffffffffffffffffffffffffffffff1673ffffffffffffffffffffffffffffffffffffffff1681526020018060200185815260200184600181111561073757fe5b60ff168152602001838152602001828103825286818151815260200191508051906020019060200280838360005b83811015610780578082015181840152602081019050610765565b50505050905001965050505050505060405180910390f35b34156107a357600080fd5b6107ab6124a3565b604051808273ffffffffffffffffffffffffffffffffffffffff1673ffffffffffffffffffffffffffffffffffffffff16815260200191505060405180910390f35b34156107f857600080fd5b6108126004808035600019169060200190919050506124c8565b604051808773ffffffffffffffffffffffffffffffffffffffff1673ffffffffffffffffffffffffffffffffffffffff168152602001866000191660001916815260200180602001856000191660001916815260200184600381111561087457fe5b60ff168152602001838152602001828103825286818151815260200191508051906020019060200280838360005b838110156108bd5780820151818401526020810190506108a2565b5050505090500197505050505050505060405180910390f35b34156108e157600080fd5b61090f6004808035600019169060200190919080359060200190820180359060200191909192905050612754565b005b341561091c57600080fd5b610936600480803560001916906020019091905050612b03565b604051808215151515815260200191505060405180910390f35b341561095b57600080fd5b610963612dc7565b6040518088815260200180602001806020018060200180602001806020018060200187810387528d818151815260200191508051906020019080838360005b838110156109bd5780820151818401526020810190506109a2565b50505050905090810190601f1680156109ea5780820380516001836020036101000a031916815260200191505b5087810386528c818151815260200191508051906020019080838360005b83811015610a23578082015181840152602081019050610a08565b50505050905090810190601f168015610a505780820380516001836020036101000a031916815260200191505b5087810385528b818151815260200191508051906020019080838360005b83811015610a89578082015181840152602081019050610a6e565b50505050905090810190601f168015610ab65780820380516001836020036101000a031916815260200191505b5087810384528a818151815260200191508051906020019080838360005b83811015610aef578082015181840152602081019050610ad4565b50505050905090810190601f168015610b1c5780820380516001836020036101000a031916815260200191505b50878103835289818151815260200191508051906020019080838360005b83811015610b55578082015181840152602081019050610b3a565b50505050905090810190601f168015610b825780820380516001836020036101000a031916815260200191505b50878103825288818151815260200191508051906020019080838360005b83811015610bbb578082015181840152602081019050610ba0565b50505050905090810190601f168015610be85780820380516001836020036101000a031916815260200191505b509d505050505050505050505050505060405180910390f35b3415610c0c57600080fd5b610c146133c7565b604051808773ffffffffffffffffffffffffffffffffffffffff1673ffffffffffffffffffffffffffffffffffffffff1681526020018660001916600019168152602001806020018560001916600019168152602001846003811115610c7657fe5b60ff168152602001838152602001828103825286818151815260200191508051906020019060200280838360005b83811015610cbf578082015181840152602081019050610ca4565b5050505090500197505050505050505060405180910390f35b3415610ce357600080fd5b610cfd60048080356000191690602001909190505061363a565b005b3415610d0a57600080fd5b610d246004808035600019169060200190919050506138f0565b60405180826001811115610d3457fe5b60ff16815260200191505060405180910390f35b3415610d5357600080fd5b610d696004808035906020019091905050613955565b005b3415610d7657600080fd5b610da2600480803573ffffffffffffffffffffffffffffffffffffffff16906020019091905050614101565b60405180826000191660001916815260200191505060405180910390f35b3415610dcb57600080fd5b610dd361414a565b6040518082815260200191505060405180910390f35b3415610df457600080fd5b610e20600480803573ffffffffffffffffffffffffffffffffffffffff169060200190919050506141b2565b005b3415610e2d57600080fd5b610e436004808035906020019091905050614307565b604051808060200180602001838103835285818151815260200191508051906020019080838360005b83811015610e87578082015181840152602081019050610e6c565b50505050905090810190601f168015610eb45780820380516001836020036101000a031916815260200191505b50838103825284818151815260200191508051906020019080838360005b83811015610eed578082015181840152602081019050610ed2565b50505050905090810190601f168015610f1a5780820380516001836020036101000a031916815260200191505b5094505050505060405180910390f35b3415610f3557600080fd5b610f3d614510565b6040518082815260200191505060405180910390f35b6000803373ffffffffffffffffffffffffffffffffffffffff1660066000600760003373ffffffffffffffffffffffffffffffffffffffff1673ffffffffffffffffffffffffffffffffffffffff168152602001908152602001600020546000191660001916815260200190815260200160002060000160009054906101000a900473ffffffffffffffffffffffffffffffffffffffff1673ffffffffffffffffffffffffffffffffffffffff1614151561100d57600080fd5b600760003373ffffffffffffffffffffffffffffffffffffffff1673ffffffffffffffffffffffffffffffffffffffff1681526020019081526020016000205490506000600381111561105c57fe5b60066000836000191660001916815260200190815260200160002060040160009054906101000a900460ff16600381111561109357fe5b1480156110bd57504260066000836000191660001916815260200190815260200160002060050154105b156110cb57600391506110fa565b60066000826000191660001916815260200190815260200160002060040160009054906101000a900460ff1691505b5090565b611106615103565b600080600260003373ffffffffffffffffffffffffffffffffffffffff1673ffffffffffffffffffffffffffffffffffffffff1681526020019081526020016000205414151561115557600080fd5b60008e8e90501415151561116857600080fd5b60008c8c90501415151561117b57600080fd5b60008a8a90501415151561118e57600080fd5b610100604051908101604052803373ffffffffffffffffffffffffffffffffffffffff1681526020018f8f8080601f01602080910402602001604051908101604052809392919081815260200183838082843782019150505050505081526020018d8d8080601f01602080910402602001604051908101604052809392919081815260200183838082843782019150505050505081526020018b8b8080601f016020809104026020016040519081016040528093929190818152602001838380828437820191505050505050815260200189898080601f016020809104026020016040519081016040528093929190818152602001838380828437820191505050505050815260200187878080601f01602080910402602001604051908101604052809392919081815260200183838082843782019150505050505081526020016000815260200185858080601f016020809104026020016040519081016040528093929190818152602001838380828437820191505050505050815250915060018080548060010182816113239190615183565b9160005260206000209060080201600085909190915060008201518160000160006101000a81548173ffffffffffffffffffffffffffffffffffffffff021916908373ffffffffffffffffffffffffffffffffffffffff160217905550602082015181600101908051906020019061139c9291906151b5565b5060408201518160020190805190602001906113b99291906151b5565b5060608201518160030190805190602001906113d69291906151b5565b5060808201518160040190805190602001906113f39291906151b5565b5060a08201518160050190805190602001906114109291906151b5565b5060c0820151816006015560e08201518160070190805190602001906114379291906151b5565b50505003905080600260003373ffffffffffffffffffffffffffffffffffffffff1673ffffffffffffffffffffffffffffffffffffffff16815260200190815260200160002081905550600160038989604051808383808284378201915050925050509081526020016040518091039020878760405180838380828437820191505092505050908152602001604051809103902080548060010182816114dd9190615235565b91600052602060002090016000849091909150550360018281548110151561150157fe5b9060005260206000209060080201600601819055507fa22c26e0a527742ea27221a5cc724d945aa88edbf15a26013bf34c6d56566c018133604051808381526020018273ffffffffffffffffffffffffffffffffffffffff1673ffffffffffffffffffffffffffffffffffffffff1681526020019250505060405180910390a15050505050505050505050505050565b611599615261565b6115a161528a565b6115a9615261565b600060038888604051808383808284378201915050925050509081526020016040518091039020868660405180838380828437820191505092505050908152602001604051809103902080548060200260200160405190810160405280929190818152602001828054801561163d57602002820191906000526020600020905b815481526020019060010190808311611629575b50505050509250600090505b825181101561168e57828181518110151561166057fe5b90602001906020020151828260148110151561167857fe5b6020020181815250508080600101915050611649565b819350505050949350505050565b600080600260003373ffffffffffffffffffffffffffffffffffffffff1673ffffffffffffffffffffffffffffffffffffffff1681526020019081526020016000205490503373ffffffffffffffffffffffffffffffffffffffff1660018281548110151561170757fe5b906000526020600020906008020160000160009054906101000a900473ffffffffffffffffffffffffffffffffffffffff1673ffffffffffffffffffffffffffffffffffffffff1614151561175b57600080fd5b8091505090565b600061176c61529e565b61177461529e565b61177c61529e565b61178461529e565b61178c61529e565b61179461529e565b61179c615103565b6000809054906101000a900473ffffffffffffffffffffffffffffffffffffffff1673ffffffffffffffffffffffffffffffffffffffff163373ffffffffffffffffffffffffffffffffffffffff161415156117f757600080fd5b88600073ffffffffffffffffffffffffffffffffffffffff1660018281548110151561181f57fe5b906000526020600020906008020160000160009054906101000a900473ffffffffffffffffffffffffffffffffffffffff1673ffffffffffffffffffffffffffffffffffffffff161415151561187457600080fd5b60018a81548110151561188357fe5b906000526020600020906008020161010060405190810160405290816000820160009054906101000a900473ffffffffffffffffffffffffffffffffffffffff1673ffffffffffffffffffffffffffffffffffffffff1673ffffffffffffffffffffffffffffffffffffffff168152602001600182018054600181600116156101000203166002900480601f01602080910402602001604051908101604052809291908181526020018280546001816001161561010002031660029004801561198d5780601f106119625761010080835404028352916020019161198d565b820191906000526020600020905b81548152906001019060200180831161197057829003601f168201915b50505050508152602001600282018054600181600116156101000203166002900480601f016020809104026020016040519081016040528092919081815260200182805460018160011615610100020316600290048015611a2f5780601f10611a0457610100808354040283529160200191611a2f565b820191906000526020600020905b815481529060010190602001808311611a1257829003601f168201915b50505050508152602001600382018054600181600116156101000203166002900480601f016020809104026020016040519081016040528092919081815260200182805460018160011615610100020316600290048015611ad15780601f10611aa657610100808354040283529160200191611ad1565b820191906000526020600020905b815481529060010190602001808311611ab457829003601f168201915b50505050508152602001600482018054600181600116156101000203166002900480601f016020809104026020016040519081016040528092919081815260200182805460018160011615610100020316600290048015611b735780601f10611b4857610100808354040283529160200191611b73565b820191906000526020600020905b815481529060010190602001808311611b5657829003601f168201915b50505050508152602001600582018054600181600116156101000203166002900480601f016020809104026020016040519081016040528092919081815260200182805460018160011615610100020316600290048015611c155780601f10611bea57610100808354040283529160200191611c15565b820191906000526020600020905b815481529060010190602001808311611bf857829003601f168201915b5050505050815260200160068201548152602001600782018054600181600116156101000203166002900480601f016020809104026020016040519081016040528092919081815260200182805460018160011615610100020316600290048015611cc15780601f10611c9657610100808354040283529160200191611cc1565b820191906000526020600020905b815481529060010190602001808311611ca457829003601f168201915b505050505081525050915081600001519850816020015197508160400151965081606001519550816080015194508160a0015193508160e0015192505050919395979092949650565b60008088600073ffffffffffffffffffffffffffffffffffffffff1660066000836000191660001916815260200190815260200160002060000160009054906101000a900473ffffffffffffffffffffffffffffffffffffffff1673ffffffffffffffffffffffffffffffffffffffff1614151515611d8857600080fd5b894260066000836000191660001916815260200190815260200160002060050154111515611db557600080fd5b3373ffffffffffffffffffffffffffffffffffffffff166001600260003373ffffffffffffffffffffffffffffffffffffffff1673ffffffffffffffffffffffffffffffffffffffff16815260200190815260200160002054815481101515611e1a57fe5b906000526020600020906008020160000160009054906101000a900473ffffffffffffffffffffffffffffffffffffffff1673ffffffffffffffffffffffffffffffffffffffff16141515611e6e57600080fd5b600260003373ffffffffffffffffffffffffffffffffffffffff1673ffffffffffffffffffffffffffffffffffffffff168152602001908152602001600020549350600660008c600019166000191681526020019081526020016000209250611edf83600301546001866001614516565b50611eed8360030154614aed565b5060018360040160006101000a81548160ff02191690836003811115611f0f57fe5b0217905550600760003373ffffffffffffffffffffffffffffffffffffffff1673ffffffffffffffffffffffffffffffffffffffff168152602001908152602001600020600090558a600019167f251c0e6973c1af719986613a7fb64206214a19eeddd90b6f1fad5a93b423fba785428b8b8b8b60405180878152602001868152602001806020018060200183810383528787828181526020019250808284378201915050838103825285858281815260200192508082843782019150509850505050505050505060405180910390a25050505050505050505050565b6000809054906101000a900473ffffffffffffffffffffffffffffffffffffffff1673ffffffffffffffffffffffffffffffffffffffff163373ffffffffffffffffffffffffffffffffffffffff1614151561204757600080fd5b6000809054906101000a900473ffffffffffffffffffffffffffffffffffffffff1673ffffffffffffffffffffffffffffffffffffffff166108fc3073ffffffffffffffffffffffffffffffffffffffff16319081150290604051600060405180830381858888f1935050505015156120bf57600080fd5b565b600081341415156120d157600080fd5b600860009054906101000a900473ffffffffffffffffffffffffffffffffffffffff1690508073ffffffffffffffffffffffffffffffffffffffff1663a9059cbb33846000604051602001526040518363ffffffff167c0100000000000000000000000000000000000000000000000000000000028152600401808373ffffffffffffffffffffffffffffffffffffffff1673ffffffffffffffffffffffffffffffffffffffff16815260200182815260200192505050602060405180830381600087803b15156121a157600080fd5b6102c65a03f115156121b257600080fd5b5050506040518051905015156121c757600080fd5b3373ffffffffffffffffffffffffffffffffffffffff167f0f6830e83634599a8b9cb956c7162a03638744c637464b528f7a86fe1250f866836040518082815260200191505060405180910390a25050565b60003373ffffffffffffffffffffffffffffffffffffffff1660066000600760003373ffffffffffffffffffffffffffffffffffffffff1673ffffffffffffffffffffffffffffffffffffffff168152602001908152602001600020546000191660001916815260200190815260200160002060000160009054906101000a900473ffffffffffffffffffffffffffffffffffffffff1673ffffffffffffffffffffffffffffffffffffffff161415156122d257600080fd5b600760003373ffffffffffffffffffffffffffffffffffffffff1673ffffffffffffffffffffffffffffffffffffffff16815260200190815260200160002054905090565b600061232161528a565b600080600061232e6152b2565b866000600460008360001916600019168152602001908152602001600020600201541415151561235d57600080fd5b60046000896000191660001916815260200190815260200160002060a060405190810160405290816000820160009054906101000a900473ffffffffffffffffffffffffffffffffffffffff1673ffffffffffffffffffffffffffffffffffffffff1673ffffffffffffffffffffffffffffffffffffffff1681526020016001820180548060200260200160405190810160405280929190818152602001828054801561242957602002820191906000526020600020905b815481526020019060010190808311612415575b50505050508152602001600282015481526020016003820160009054906101000a900460ff16600181111561245a57fe5b600181111561246557fe5b815260200160048201548152505091508160000151965081602001519550816040015194508160600151935081608001519250505091939590929450565b6000809054906101000a900473ffffffffffffffffffffffffffffffffffffffff1681565b6000806124d361528a565b60008060006124e0615309565b3373ffffffffffffffffffffffffffffffffffffffff1660066000600760003373ffffffffffffffffffffffffffffffffffffffff1673ffffffffffffffffffffffffffffffffffffffff168152602001908152602001600020546000191660001916815260200190815260200160002060000160009054906101000a900473ffffffffffffffffffffffffffffffffffffffff1673ffffffffffffffffffffffffffffffffffffffff1614806125e357506000809054906101000a900473ffffffffffffffffffffffffffffffffffffffff1673ffffffffffffffffffffffffffffffffffffffff163373ffffffffffffffffffffffffffffffffffffffff16145b15156125ee57600080fd5b60066000896000191660001916815260200190815260200160002060c060405190810160405290816000820160009054906101000a900473ffffffffffffffffffffffffffffffffffffffff1673ffffffffffffffffffffffffffffffffffffffff1673ffffffffffffffffffffffffffffffffffffffff168152602001600182015460001916600019168152602001600282018054806020026020016040519081016040528092919081815260200182805480156126cc57602002820191906000526020600020905b8154815260200190600101908083116126b8575b505050505081526020016003820154600019166000191681526020016004820160009054906101000a900460ff16600381111561270557fe5b600381111561271057fe5b8152602001600582015481525050905080600001519650806020015195508060400151945080606001519350806080015192508060a0015191505091939550919395565b6000806000612761615309565b6000806001026000191688600019161415151561277d57600080fd5b6000878790501415151561279057600080fd5b61279c87879050614c3c565b94506127fa87878080602002602001604051908101604052809392919081815260200183836020028082843782019150505050505086600860009054906101000a900473ffffffffffffffffffffffffffffffffffffffff16614d7b565b9350338442604051808473ffffffffffffffffffffffffffffffffffffffff1673ffffffffffffffffffffffffffffffffffffffff166c01000000000000000000000000028152601401836000191660001916815260200182815260200193505050506040518091039020925060c0604051908101604052803373ffffffffffffffffffffffffffffffffffffffff16815260200189600019168152602001888880806020026020016040519081016040528093929190818152602001838360200280828437820191505050505050815260200185600019168152602001600060038111156128e557fe5b8152602001610e10420181525091508160066000856000191660001916815260200190815260200160002060008201518160000160006101000a81548173ffffffffffffffffffffffffffffffffffffffff021916908373ffffffffffffffffffffffffffffffffffffffff16021790555060208201518160010190600019169055604082015181600201908051906020019061298392919061536d565b506060820151816003019060001916905560808201518160040160006101000a81548160ff021916908360038111156129b857fe5b021790555060a0820151816005015590505082600760003373ffffffffffffffffffffffffffffffffffffffff1673ffffffffffffffffffffffffffffffffffffffff16815260200190815260200160002081600019169055503373ffffffffffffffffffffffffffffffffffffffff167f6dbed0ca6b6711aef30d0a1175094855f83d0d6b9d7a7d0bf104862c9170a2e6848a60405180836000191660001916815260200182600019166000191681526020019250505060405180910390a2600090505b86869050811015612af9578686828181101515612a9657fe5b905060200201357f028712afc64b05883886f38c7937529d87a27e1738b955a0569401b6c13cc526898560405180836000191660001916815260200182600019166000191681526020019250505060405180910390a28080600101915050612a7d565b5050505050505050565b600081600073ffffffffffffffffffffffffffffffffffffffff1660066000836000191660001916815260200190815260200160002060000160009054906101000a900473ffffffffffffffffffffffffffffffffffffffff1673ffffffffffffffffffffffffffffffffffffffff1614151515612b8057600080fd5b3373ffffffffffffffffffffffffffffffffffffffff1660066000600760003373ffffffffffffffffffffffffffffffffffffffff1673ffffffffffffffffffffffffffffffffffffffff168152602001908152602001600020546000191660001916815260200190815260200160002060000160009054906101000a900473ffffffffffffffffffffffffffffffffffffffff1673ffffffffffffffffffffffffffffffffffffffff16141515612c3757600080fd5b60006003811115612c4457fe5b60066000856000191660001916815260200190815260200160002060040160009054906101000a900460ff166003811115612c7b57fe5b148015612ca557504260066000856000191660001916815260200190815260200160002060050154105b15612dbc57612cd6600660008560001916600019168152602001908152602001600020600301546000806001614516565b50612cfe60066000856000191660001916815260200190815260200160002060030154614aed565b50600360066000856000191660001916815260200190815260200160002060040160006101000a81548160ff02191690836003811115612d3a57fe5b021790555082600019167f04388b6f7fba70cae8baa27ebc0929159f5e767b2de8814e79e59ce1ea7a705e60405160405180910390a2600760003373ffffffffffffffffffffffffffffffffffffffff1673ffffffffffffffffffffffffffffffffffffffff1681526020019081526020016000206000905560019150612dc1565b600091505b50919050565b6000612dd161529e565b612dd961529e565b612de161529e565b612de961529e565b612df161529e565b612df961529e565b612e01615103565b3373ffffffffffffffffffffffffffffffffffffffff166001600260003373ffffffffffffffffffffffffffffffffffffffff1673ffffffffffffffffffffffffffffffffffffffff16815260200190815260200160002054815481101515612e6657fe5b906000526020600020906008020160000160009054906101000a900473ffffffffffffffffffffffffffffffffffffffff1673ffffffffffffffffffffffffffffffffffffffff16141515612eba57600080fd5b6001600260003373ffffffffffffffffffffffffffffffffffffffff1673ffffffffffffffffffffffffffffffffffffffff16815260200190815260200160002054815481101515612f0857fe5b906000526020600020906008020161010060405190810160405290816000820160009054906101000a900473ffffffffffffffffffffffffffffffffffffffff1673ffffffffffffffffffffffffffffffffffffffff1673ffffffffffffffffffffffffffffffffffffffff168152602001600182018054600181600116156101000203166002900480601f0160208091040260200160405190810160405280929190818152602001828054600181600116156101000203166002900480156130125780601f10612fe757610100808354040283529160200191613012565b820191906000526020600020905b815481529060010190602001808311612ff557829003601f168201915b50505050508152602001600282018054600181600116156101000203166002900480601f0160208091040260200160405190810160405280929190818152602001828054600181600116156101000203166002900480156130b45780601f10613089576101008083540402835291602001916130b4565b820191906000526020600020905b81548152906001019060200180831161309757829003601f168201915b50505050508152602001600382018054600181600116156101000203166002900480601f0160208091040260200160405190810160405280929190818152602001828054600181600116156101000203166002900480156131565780601f1061312b57610100808354040283529160200191613156565b820191906000526020600020905b81548152906001019060200180831161313957829003601f168201915b50505050508152602001600482018054600181600116156101000203166002900480601f0160208091040260200160405190810160405280929190818152602001828054600181600116156101000203166002900480156131f85780601f106131cd576101008083540402835291602001916131f8565b820191906000526020600020905b8154815290600101906020018083116131db57829003601f168201915b50505050508152602001600582018054600181600116156101000203166002900480601f01602080910402602001604051908101604052809291908181526020018280546001816001161561010002031660029004801561329a5780601f1061326f5761010080835404028352916020019161329a565b820191906000526020600020905b81548152906001019060200180831161327d57829003601f168201915b5050505050815260200160068201548152602001600782018054600181600116156101000203166002900480601f0160208091040260200160405190810160405280929190818152602001828054600181600116156101000203166002900480156133465780601f1061331b57610100808354040283529160200191613346565b820191906000526020600020905b81548152906001019060200180831161332957829003601f168201915b5050505050815250509050600260003373ffffffffffffffffffffffffffffffffffffffff1673ffffffffffffffffffffffffffffffffffffffff168152602001908152602001600020549750806020015196508060400151955080606001519450806080015193508060a0015192508060e0015191505090919293949596565b6000806133d261528a565b60008060006133df615309565b3373ffffffffffffffffffffffffffffffffffffffff1660066000600760003373ffffffffffffffffffffffffffffffffffffffff1673ffffffffffffffffffffffffffffffffffffffff168152602001908152602001600020546000191660001916815260200190815260200160002060000160009054906101000a900473ffffffffffffffffffffffffffffffffffffffff1673ffffffffffffffffffffffffffffffffffffffff1614151561349657600080fd5b60066000600760003373ffffffffffffffffffffffffffffffffffffffff1673ffffffffffffffffffffffffffffffffffffffff168152602001908152602001600020546000191660001916815260200190815260200160002060c060405190810160405290816000820160009054906101000a900473ffffffffffffffffffffffffffffffffffffffff1673ffffffffffffffffffffffffffffffffffffffff1673ffffffffffffffffffffffffffffffffffffffff168152602001600182015460001916600019168152602001600282018054806020026020016040519081016040528092919081815260200182805480156135b357602002820191906000526020600020905b81548152602001906001019080831161359f575b505050505081526020016003820154600019166000191681526020016004820160009054906101000a900460ff1660038111156135ec57fe5b60038111156135f757fe5b8152602001600582015481525050905080600001519650806020015195508060400151945080606001519350806080015192508060a00151915050909192939495565b600081600073ffffffffffffffffffffffffffffffffffffffff1660066000836000191660001916815260200190815260200160002060000160009054906101000a900473ffffffffffffffffffffffffffffffffffffffff1673ffffffffffffffffffffffffffffffffffffffff16141515156136b757600080fd5b8242600660008360001916600019168152602001908152602001600020600501541115156136e457600080fd5b3373ffffffffffffffffffffffffffffffffffffffff1660066000600760003373ffffffffffffffffffffffffffffffffffffffff1673ffffffffffffffffffffffffffffffffffffffff168152602001908152602001600020546000191660001916815260200190815260200160002060000160009054906101000a900473ffffffffffffffffffffffffffffffffffffffff1673ffffffffffffffffffffffffffffffffffffffff1614151561379b57600080fd5b610a8c42600660008760001916600019168152602001908152602001600020600501540311156137ce57600092506137d3565b600192505b6137fe6006600086600019166000191681526020019081526020016000206003015460008086614516565b5061382660066000866000191660001916815260200190815260200160002060030154614aed565b50600260066000866000191660001916815260200190815260200160002060040160006101000a81548160ff0219169083600381111561386257fe5b0217905550600760003373ffffffffffffffffffffffffffffffffffffffff1673ffffffffffffffffffffffffffffffffffffffff1681526020019081526020016000206000905583600019167f667043bfb51a81e4328acc863f6e40a64851a37e88152011d1a7db47286ae60b84604051808215151515815260200191505060405180910390a250505050565b6000816000600460008360001916600019168152602001908152602001600020600201541415151561392157600080fd5b60046000846000191660001916815260200190815260200160002060030160009054906101000a900460ff16915050919050565b61395d615103565b61396561529e565b3373ffffffffffffffffffffffffffffffffffffffff1660018481548110151561398b57fe5b906000526020600020906008020160000160009054906101000a900473ffffffffffffffffffffffffffffffffffffffff1673ffffffffffffffffffffffffffffffffffffffff161415156139df57600080fd5b6001838154811015156139ee57fe5b906000526020600020906008020161010060405190810160405290816000820160009054906101000a900473ffffffffffffffffffffffffffffffffffffffff1673ffffffffffffffffffffffffffffffffffffffff1673ffffffffffffffffffffffffffffffffffffffff168152602001600182018054600181600116156101000203166002900480601f016020809104026020016040519081016040528092919081815260200182805460018160011615610100020316600290048015613af85780601f10613acd57610100808354040283529160200191613af8565b820191906000526020600020905b815481529060010190602001808311613adb57829003601f168201915b50505050508152602001600282018054600181600116156101000203166002900480601f016020809104026020016040519081016040528092919081815260200182805460018160011615610100020316600290048015613b9a5780601f10613b6f57610100808354040283529160200191613b9a565b820191906000526020600020905b815481529060010190602001808311613b7d57829003601f168201915b50505050508152602001600382018054600181600116156101000203166002900480601f016020809104026020016040519081016040528092919081815260200182805460018160011615610100020316600290048015613c3c5780601f10613c1157610100808354040283529160200191613c3c565b820191906000526020600020905b815481529060010190602001808311613c1f57829003601f168201915b50505050508152602001600482018054600181600116156101000203166002900480601f016020809104026020016040519081016040528092919081815260200182805460018160011615610100020316600290048015613cde5780601f10613cb357610100808354040283529160200191613cde565b820191906000526020600020905b815481529060010190602001808311613cc157829003601f168201915b50505050508152602001600582018054600181600116156101000203166002900480601f016020809104026020016040519081016040528092919081815260200182805460018160011615610100020316600290048015613d805780601f10613d5557610100808354040283529160200191613d80565b820191906000526020600020905b815481529060010190602001808311613d6357829003601f168201915b5050505050815260200160068201548152602001600782018054600181600116156101000203166002900480601f016020809104026020016040519081016040528092919081815260200182805460018160011615610100020316600290048015613e2c5780601f10613e0157610100808354040283529160200191613e2c565b820191906000526020600020905b815481529060010190602001808311613e0f57829003601f168201915b505050505081525050915081602001519050600382608001516040518082805190602001908083835b602083101515613e7a5780518252602082019150602081019050602083039250613e55565b6001836020036101000a03801982511681845116808217855250505050505090500191505090815260200160405180910390208260a001516040518082805190602001908083835b602083101515613ee75780518252602082019150602081019050602083039250613ec2565b6001836020036101000a03801982511681845116808217855250505050505090500191505090815260200160405180910390208260c00151815481101515613f2b57fe5b906000526020600020900160009055600183815481101515613f4957fe5b9060005260206000209060080201600080820160006101000a81549073ffffffffffffffffffffffffffffffffffffffff0219169055600182016000613f8f91906153ba565b600282016000613f9f91906153ba565b600382016000613faf91906153ba565b600482016000613fbf91906153ba565b600582016000613fcf91906153ba565b6006820160009055600782016000613fe791906153ba565b5050600260003373ffffffffffffffffffffffffffffffffffffffff1673ffffffffffffffffffffffffffffffffffffffff168152602001908152602001600020600090557fe5e6e5f3b122e8a87f58ce846d5ece95208ab36e03181ea1c48599922411167f813360405180806020018373ffffffffffffffffffffffffffffffffffffffff1673ffffffffffffffffffffffffffffffffffffffff168152602001828103825284818151815260200191508051906020019080838360005b838110156140c15780820151818401526020810190506140a6565b50505050905090810190601f1680156140ee5780820380516001836020036101000a031916815260200191505b50935050505060405180910390a1505050565b6000600560008373ffffffffffffffffffffffffffffffffffffffff1673ffffffffffffffffffffffffffffffffffffffff168152602001908152602001600020549050919050565b60008060009054906101000a900473ffffffffffffffffffffffffffffffffffffffff1673ffffffffffffffffffffffffffffffffffffffff163373ffffffffffffffffffffffffffffffffffffffff161415156141a757600080fd5b600180549050905090565b6000809054906101000a900473ffffffffffffffffffffffffffffffffffffffff1673ffffffffffffffffffffffffffffffffffffffff163373ffffffffffffffffffffffffffffffffffffffff1614151561420d57600080fd5b600073ffffffffffffffffffffffffffffffffffffffff168173ffffffffffffffffffffffffffffffffffffffff161415151561424957600080fd5b8073ffffffffffffffffffffffffffffffffffffffff166000809054906101000a900473ffffffffffffffffffffffffffffffffffffffff1673ffffffffffffffffffffffffffffffffffffffff167f8be0079c531659141344cd1fd0a4f28419497f9722a3daafe3b4186f6b6457e060405160405180910390a3806000806101000a81548173ffffffffffffffffffffffffffffffffffffffff021916908373ffffffffffffffffffffffffffffffffffffffff16021790555050565b61430f61529e565b61431761529e565b82600073ffffffffffffffffffffffffffffffffffffffff1660018281548110151561433f57fe5b906000526020600020906008020160000160009054906101000a900473ffffffffffffffffffffffffffffffffffffffff1673ffffffffffffffffffffffffffffffffffffffff161415151561439457600080fd5b6001848154811015156143a357fe5b90600052602060002090600802016002018054600181600116156101000203166002900480601f0160208091040260200160405190810160405280929190818152602001828054600181600116156101000203166002900480156144485780601f1061441d57610100808354040283529160200191614448565b820191906000526020600020905b81548152906001019060200180831161442b57829003601f168201915b5050505050925060018481548110151561445e57fe5b90600052602060002090600802016003018054600181600116156101000203166002900480601f0160208091040260200160405190810160405280929190818152602001828054600181600116156101000203166002900480156145035780601f106144d857610100808354040283529160200191614503565b820191906000526020600020905b8154815290600101906020018083116144e657829003601f168201915b5050505050915050915091565b60095481565b6000806000806000806000806000600460008e600019166000191681526020019081526020016000209750600860009054906101000a900473ffffffffffffffffffffffffffffffffffffffff16965089156149da578760040154886002015403955061458a868960010180549050615098565b94508b156148755761459d856005615098565b85039350846145c06145b0876005615098565b60018b60010180549050036150b3565b019250600091505b8760010180549050821015614870578a88600101838154811015156145e957fe5b9060005260206000209001541415614731578673ffffffffffffffffffffffffffffffffffffffff1663a9059cbb60018a6001018581548110151561462a57fe5b90600052602060002090015481548110151561464257fe5b906000526020600020906008020160000160009054906101000a900473ffffffffffffffffffffffffffffffffffffffff16856000604051602001526040518363ffffffff167c0100000000000000000000000000000000000000000000000000000000028152600401808373ffffffffffffffffffffffffffffffffffffffff1673ffffffffffffffffffffffffffffffffffffffff16815260200182815260200192505050602060405180830381600087803b151561470257600080fd5b6102c65a03f1151561471357600080fd5b50505060405180519050151561472c5760009850614add565b614863565b8673ffffffffffffffffffffffffffffffffffffffff1663a9059cbb60018a6001018581548110151561476057fe5b90600052602060002090015481548110151561477857fe5b906000526020600020906008020160000160009054906101000a900473ffffffffffffffffffffffffffffffffffffffff16866000604051602001526040518363ffffffff167c0100000000000000000000000000000000000000000000000000000000028152600401808373ffffffffffffffffffffffffffffffffffffffff1673ffffffffffffffffffffffffffffffffffffffff16815260200182815260200192505050602060405180830381600087803b151561483857600080fd5b6102c65a03f1151561484957600080fd5b5050506040518051905015156148625760009850614add565b5b81806001019250506145c8565b6149c8565b600090505b87600101805490508110156149c7578673ffffffffffffffffffffffffffffffffffffffff1663a9059cbb60018a600101848154811015156148b857fe5b9060005260206000209001548154811015156148d057fe5b906000526020600020906008020160000160009054906101000a900473ffffffffffffffffffffffffffffffffffffffff16876000604051602001526040518363ffffffff167c0100000000000000000000000000000000000000000000000000000000028152600401808373ffffffffffffffffffffffffffffffffffffffff1673ffffffffffffffffffffffffffffffffffffffff16815260200182815260200192505050602060405180830381600087803b151561499057600080fd5b6102c65a03f115156149a157600080fd5b5050506040518051905015156149ba5760009850614add565b808060010191505061487a565b5b87600201548860040181905550614ad8565b8673ffffffffffffffffffffffffffffffffffffffff1663a9059cbb8960000160009054906101000a900473ffffffffffffffffffffffffffffffffffffffff168a600201546000604051602001526040518363ffffffff167c0100000000000000000000000000000000000000000000000000000000028152600401808373ffffffffffffffffffffffffffffffffffffffff1673ffffffffffffffffffffffffffffffffffffffff16815260200182815260200192505050602060405180830381600087803b1515614aad57600080fd5b6102c65a03f11515614abe57600080fd5b505050604051805190501515614ad75760009850614add565b5b600198505b5050505050505050949350505050565b600081600180811115614afc57fe5b60046000836000191660001916815260200190815260200160002060030160009054906101000a900460ff166001811115614b3357fe5b14151515614b4057600080fd5b600160046000856000191660001916815260200190815260200160002060030160006101000a81548160ff02191690836001811115614b7b57fe5b02179055506005600060046000866000191660001916815260200190815260200160002060000160009054906101000a900473ffffffffffffffffffffffffffffffffffffffff1673ffffffffffffffffffffffffffffffffffffffff1673ffffffffffffffffffffffffffffffffffffffff1681526020019081526020016000206000905582600019167fceeab2eef998c17fe96f30f83fbf3c55fc5047f6e40c55a0cf72d236e9d2ba7260405160405180910390a26001915050919050565b6000806000600860009054906101000a900473ffffffffffffffffffffffffffffffffffffffff169150614c6f846150ee565b9050808273ffffffffffffffffffffffffffffffffffffffff1663dd62ed3e33306000604051602001526040518363ffffffff167c0100000000000000000000000000000000000000000000000000000000028152600401808373ffffffffffffffffffffffffffffffffffffffff1673ffffffffffffffffffffffffffffffffffffffff1681526020018273ffffffffffffffffffffffffffffffffffffffff1673ffffffffffffffffffffffffffffffffffffffff16815260200192505050602060405180830381600087803b1515614d4957600080fd5b6102c65a03f11515614d5a57600080fd5b5050506040518051905010151515614d7157600080fd5b8092505050919050565b600080614d866152b2565b33866000815181101515614d9657fe5b9060200190602002015142604051808473ffffffffffffffffffffffffffffffffffffffff1673ffffffffffffffffffffffffffffffffffffffff166c0100000000000000000000000002815260140183815260200182815260200193505050506040518091039020915060a0604051908101604052803373ffffffffffffffffffffffffffffffffffffffff16815260200187815260200186815260200160006001811115614e4257fe5b8152602001600081525090508373ffffffffffffffffffffffffffffffffffffffff166323b872dd3330886000604051602001526040518463ffffffff167c0100000000000000000000000000000000000000000000000000000000028152600401808473ffffffffffffffffffffffffffffffffffffffff1673ffffffffffffffffffffffffffffffffffffffff1681526020018373ffffffffffffffffffffffffffffffffffffffff1673ffffffffffffffffffffffffffffffffffffffff1681526020018281526020019350505050602060405180830381600087803b1515614f2d57600080fd5b6102c65a03f11515614f3e57600080fd5b505050604051805190501515614f5357600080fd5b8060046000846000191660001916815260200190815260200160002060008201518160000160006101000a81548173ffffffffffffffffffffffffffffffffffffffff021916908373ffffffffffffffffffffffffffffffffffffffff1602179055506020820151816001019080519060200190614fd292919061536d565b506040820151816002015560608201518160030160006101000a81548160ff0219169083600181111561500157fe5b02179055506080820151816004015590505081600560003373ffffffffffffffffffffffffffffffffffffffff1673ffffffffffffffffffffffffffffffffffffffff168152602001908152602001600020816000191690555081600019167f7ffc675d721b8768e035a323722842743bb523487b535906abc97e6b3e2095d060405160405180910390a281925050509392505050565b60008082848115156150a657fe5b0490508091505092915050565b60008060008414156150c857600091506150e7565b82840290508284828115156150d957fe5b041415156150e357fe5b8091505b5092915050565b60006150fc826009546150b3565b9050919050565b61010060405190810160405280600073ffffffffffffffffffffffffffffffffffffffff168152602001615135615402565b8152602001615142615402565b815260200161514f615402565b815260200161515c615402565b8152602001615169615402565b81526020016000815260200161517d615402565b81525090565b8154818355818115116151b0576008028160080283600052602060002091820191016151af9190615416565b5b505050565b828054600181600116156101000203166002900490600052602060002090601f016020900481019282601f106151f657805160ff1916838001178555615224565b82800160010185558215615224579182015b82811115615223578251825591602001919060010190615208565b5b50905061523191906154c4565b5090565b81548183558181151161525c5781836000526020600020918201910161525b91906154c4565b5b505050565b610280604051908101604052806014905b60008152602001906001900390816152725790505090565b602060405190810160405280600081525090565b602060405190810160405280600081525090565b60a060405190810160405280600073ffffffffffffffffffffffffffffffffffffffff1681526020016152e36154e9565b815260200160008152602001600060018111156152fc57fe5b8152602001600081525090565b60c060405190810160405280600073ffffffffffffffffffffffffffffffffffffffff168152602001600080191681526020016153446154e9565b8152602001600080191681526020016000600381111561536057fe5b8152602001600081525090565b8280548282559060005260206000209081019282156153a9579160200282015b828111156153a857825182559160200191906001019061538d565b5b5090506153b691906154c4565b5090565b50805460018160011615610100020316600290046000825580601f106153e057506153ff565b601f0160209004906000526020600020908101906153fe91906154c4565b5b50565b602060405190810160405280600081525090565b6154c191905b808211156154bd57600080820160006101000a81549073ffffffffffffffffffffffffffffffffffffffff021916905560018201600061545c91906153ba565b60028201600061546c91906153ba565b60038201600061547c91906153ba565b60048201600061548c91906153ba565b60058201600061549c91906153ba565b60068201600090556007820160006154b491906153ba565b5060080161541c565b5090565b90565b6154e691905b808211156154e25760008160009055506001016154ca565b5090565b90565b6020604051908101604052806000815250905600a165627a7a72305820ce822d32cd388116eafb60a41f8183c89458063893930a0f5193ec3f0e8f90110029",
  "source": "pragma solidity ^0.4.18;\n//pragma experimental ABIEncoderV2;\n\nimport './OpenDeviceRegistry.sol';\nimport './UVTChannels.sol';\nimport '../node_modules/zeppelin-solidity/contracts/math/SafeMath.sol';\nimport '../node_modules/zeppelin-solidity/contracts/token/ERC20.sol';\n\n\n/**\n * @title UVTCore\n * @author Carlos Beltran <imthatcarlos@gmail.com>\n *\n * @dev This contract manages the ODR, payment channels, and the invokation\n * of gateways when a user submits a search request. Certain functionality\n * is limited to the contract's owner, such as manually closing channels.\n * TODO: Contract is too large, gas exceeds the mainnet gasLimit\n * OpenDeviceRegistry could be deployed on its own\n */\ncontract UVTCore is OpenDeviceRegistry, UVTChannels {\n\n  //============================================================================\n  // EVENTS\n  //============================================================================\n\n  event SearchInitiated(address indexed owner, bytes32 id, bytes32 endpointId);\n  event InvokeGateway(uint indexed id, bytes32 endpointId, bytes32 requestId);\n  event SearchEndpointFound(bytes32 indexed id, uint gatewayId, uint time, string lat, string long);\n  event SearchCancelled(bytes32 indexed id, bool gatewaysPaid);\n  event SearchExpired(bytes32 indexed id);\n\n  event PurchasedUVT(address indexed account, uint amount);\n  event ReceivedFunds(address sender, uint value);\n\n  //============================================================================\n  // STORAGE\n  //============================================================================\n\n  enum SearchState { Searching, Found, Cancelled, Expired }\n\n  struct SearchRequest {\n    address owner;\n    bytes32 endpointId;\n    uint[] invokedGateways;\n    bytes32 channelId;\n    SearchState state;\n    uint expires;\n  }\n\n  mapping (bytes32 => SearchRequest) searchRequests;\n  mapping (address => bytes32) accountToRequestIds;\n\n  address uvtTokenAddress;\n\n  uint public GATEWAY_COST_UVT = 10;\n\n  //============================================================================\n  // MODIFIERS\n  //============================================================================\n\n  modifier validRequest(bytes32 id) {\n    require(searchRequests[id].owner != address(0));\n    _;\n  }\n\n  modifier notExpired(bytes32 id) {\n    require(searchRequests[id].expires > now);\n    _;\n  }\n\n  modifier onlyRequestOwner {\n    require(searchRequests[accountToRequestIds[msg.sender]].owner == msg.sender);\n    _;\n  }\n\n  modifier onlyOwnerOrRequestOwner() {\n    require(\n      searchRequests[accountToRequestIds[msg.sender]].owner == msg.sender\n      || msg.sender == owner\n    );\n    _;\n  }\n\n  /**\n   * The contract's constructor\n   * Upon initializing, the owner MUST send UVT to this contract in order to\n   * fund accounts when they would like to buy UVT with ETH.\n   *\n   * @param tokenAddress The address of the UVTToken contract\n   */\n  function UVTCore(address tokenAddress) public {\n    owner = msg.sender;\n    uvtTokenAddress = tokenAddress;\n  }\n\n  //============================================================================\n  // EXTERNAL FUNCTIONS\n  //============================================================================\n\n  /**\n   * Transfer UVT tokens to the account in exchange for ETH\n   * TODO: the exchange is 1-1 for demo purposes\n   */\n  function buyUVT(uint amount) external payable {\n    require(msg.value == amount);\n\n    ERC20 uvtToken = ERC20(uvtTokenAddress);\n    require(uvtToken.transfer(msg.sender, amount));\n    PurchasedUVT(msg.sender, amount);\n  }\n\n  /**\n   * Create a new search request. By now, the user has selected which gateways\n   * to invoke and has approved the fee.\n   * A channel is created between the user and the invoked gateways, depositing\n   * UVT tokens from user's account.\n   * Invoked gateways are notified of the request.\n   * The search is set to expire in 1 hour\n   *\n   * @param endpointId      The id of the endpoint gateways are to find\n   * @param gatewayIds The ids of gateways to be invoked\n   */\n  function createSearchRequest(bytes32 endpointId, uint[] gatewayIds)\n    external\n  {\n    // sanity checks\n    require(endpointId != bytes32(0));\n    require(gatewayIds.length != 0);\n\n    uint totalCost = _verifyPayment(gatewayIds.length);\n\n    // open the channel and fund it with the account's tokens\n    bytes32 channelId = _openChannel(gatewayIds, totalCost, ERC20(uvtTokenAddress));\n\n    // create the request\n    bytes32 id = keccak256(msg.sender, channelId, now);\n    SearchRequest memory request = SearchRequest({\n      owner: msg.sender,\n      endpointId: endpointId,\n      invokedGateways: gatewayIds,\n      channelId: channelId,\n      state: SearchState.Searching,\n      expires: (now + 1 hours)\n    });\n\n    // save to storage and lookup table\n    searchRequests[id] = request;\n    accountToRequestIds[msg.sender] = id;\n\n    // invoke gateways\n    SearchInitiated(msg.sender, id, endpointId);\n    for(uint i = 0; i < gatewayIds.length; i++) {\n      InvokeGateway(gatewayIds[i], endpointId, id);\n    }\n  }\n\n  /**\n   * Called from a gateway when it locates the missing item. Broadcasts an event\n   * for the endpoint's owner to acknowledge\n   *\n   * @param requestId   The id of the search request\n   * @param endpointSig [hash, r, s] Signature data provided by the missing item's LoRa\n   * transmitter proving that it was indeed found\n   * @param v           The \"v\" value of endpointSig\n   * @param lat         The latitude part of the endpoint's current location\n   * @param long        The longitude part of the endpoint's current location\n   */\n  function endpointFound(\n    bytes32 requestId,\n    bytes32[3] endpointSig,\n    uint8 v,\n    string lat,\n    string long\n  )\n    external\n    validRequest(requestId)\n    notExpired(requestId)\n    onlyGatewayOwner\n  {\n    uint gatewayId = ownerToGatewayIds[msg.sender];\n    SearchRequest storage request = searchRequests[requestId];\n    // verify the endpoint's signaure\n    // TODO: not working atm\n    //_verifyEndpoint(requestId, request.endpointId, endpointSig, v);\n\n    // disburse the funds and close the channel\n    _disburseFunds(request.channelId, true, gatewayId, true);\n    _closeChannel(request.channelId);\n\n    // update search state\n    request.state = SearchState.Found;\n\n    // remove from lookup table\n    delete accountToRequestIds[msg.sender];\n\n    SearchEndpointFound(requestId, gatewayId, now, lat, long);\n  }\n\n  /**\n   * Called to check if the request has expired, and if so, update the state\n   * and close the channel.\n   * This is called by the software client after the search period - the\n   * invoked gateways should manage themselves\n   */\n  function searchExpired(bytes32 id)\n    external\n    validRequest(id)\n    onlyRequestOwner\n    returns (bool)\n  {\n    if (searchRequests[id].state == SearchState.Searching &&\n      searchRequests[id].expires < now)\n    {\n      // disburse the funds and close the channel\n      _disburseFunds(searchRequests[id].channelId, false, 0, true);\n      _closeChannel(searchRequests[id].channelId);\n\n      // update search state\n      searchRequests[id].state = SearchState.Expired;\n      SearchExpired(id);\n\n      // remove from lookup table\n      delete accountToRequestIds[msg.sender];\n\n      return true;\n    } else {\n      return false;\n    }\n  }\n\n  /**\n   * Cancels the search request. The account is given a grace period of\n   * 15 minutes where they cancel and be refunded their UVT tokens.\n   * This is called by the search request owner\n   */\n  function cancelSearch(bytes32 id)\n    external\n    validRequest(id)\n    notExpired(id)\n    onlyRequestOwner\n  {\n    // diff between expiry and now should be > 45 min for refund\n    bool shouldPayGateways;\n    if ((searchRequests[id].expires - now) > 45 minutes) {\n      shouldPayGateways = false;\n    } else {\n      shouldPayGateways = true;\n    }\n\n    // disburse the funds and close the channel\n    _disburseFunds(searchRequests[id].channelId, false, 0, shouldPayGateways);\n    _closeChannel(searchRequests[id].channelId);\n\n    // update search state\n    searchRequests[id].state = SearchState.Cancelled;\n\n    // remove from lookup table\n    delete accountToRequestIds[msg.sender];\n\n    SearchCancelled(id, shouldPayGateways);\n  }\n\n  /**\n   * Renews the search request with the same parameters\n   * Can only be called if the state is != Searching\n   * NOTE: only possible because we don't clear the request OR channels from storage...\n   * TODO: we should do this without an extra transaction, just update the channel's value\n   * and notify the gateways to extend the expiry\n   */\n  /* function renewSearch(bytes32 id)\n    external\n    validRequest(id)\n    onlyRequestOwner\n  {\n    SearchRequest storage request = searchRequests[id];\n\n    // can only renew an expired or cancelled request\n    require(request.state != SearchState.Searching);\n\n    uint[] memory gatewayIds = channels[request.channelId].gatewayIds;\n\n    // might not be necessary?\n    _verifyPayment(gatewayIds.length);\n\n    // open the channel and fund it with the account's tokens\n    _reopenChannel(request.channelId);\n    require(ERC20(uvtTokenAddress).transferFrom(\n      msg.sender,\n      address(this),\n      channels[request.channelId].deposit\n    ));\n\n    // opened with same number of gateways, so new cost is the same\n    channels[request.channelId].deposit = channels[request.channelId].deposit + channels[request.channelId].deposit;\n\n    // update search state & expire time\n    request.state = SearchState.Searching;\n    request.expires = now + 1 hours;\n\n    // re-add to lookup table\n    accountToRequestIds[msg.sender] = id;\n\n    // invoke gateways\n    SearchInitiated(msg.sender, id, request.endpointId);\n    for(uint i = 0; i < gatewayIds.length; i++) {\n      InvokeGateway(gatewayIds[i], request.endpointId, id);\n    }\n  } */\n\n  /**\n   * Returns the id of the owner's search request\n   * Can only be called by the owner of the request\n   */\n  function getSearchRequestId()\n    external\n    view\n    onlyRequestOwner\n    returns (bytes32 id)\n  {\n\n    return accountToRequestIds[msg.sender];\n  }\n\n  /**\n   * Returns all information for the owner's search request\n   * Can only be called by the owner of the request\n   */\n  function getSearchRequest()\n    external\n    view\n    onlyRequestOwner\n    returns (\n      address owner,\n      bytes32 endpointId,\n      uint[] invokedGateways,\n      bytes32 channelId,\n      SearchState state,\n      uint expires\n    )\n  {\n    SearchRequest memory request = searchRequests[accountToRequestIds[msg.sender]];\n\n    owner = request.owner;\n    endpointId = request.endpointId;\n    invokedGateways = request.invokedGateways;\n    channelId = request.channelId;\n    state = request.state;\n    expires = request.expires;\n  }\n\n  /**\n   * Returns the state of the owner's search request\n   * Can only be called by the owner of the request\n   */\n  function getSearchRequestStatus()\n    external\n    view\n    onlyRequestOwner\n    returns (SearchState state)\n  {\n    bytes32 id = accountToRequestIds[msg.sender];\n\n    if (\n      searchRequests[id].state == SearchState.Searching\n      && searchRequests[id].expires < now\n    ) {\n      return SearchState.Expired;\n    } else {\n      return searchRequests[id].state;\n    }\n  }\n\n  /**\n   * Returns all information for the given search request\n   * Can only be called by the contract owner or request owner\n   *\n   * @param id The SearchRequest id\n   */\n  function getSearchRequestById(bytes32 id)\n    external\n    view\n    onlyOwnerOrRequestOwner\n    returns (\n      address owner,\n      bytes32 endpointId,\n      uint[] invokedGateways,\n      bytes32 channelId,\n      SearchState state,\n      uint expires\n    )\n  {\n    SearchRequest memory request = searchRequests[id];\n\n    owner = request.owner;\n    endpointId = request.endpointId;\n    invokedGateways = request.invokedGateways;\n    channelId = request.channelId;\n    state = request.state;\n    expires = request.expires;\n  }\n\n  function() external payable {\n    ReceivedFunds(msg.sender, msg.value);\n  }\n\n  function withdrawBalance() external onlyOwner {\n    owner.transfer(this.balance);\n  }\n\n  //============================================================================\n  // INTERNAL FUNCTIONS\n  //============================================================================\n\n  /*\n   * Disburse the channel's funds. If the gatewayIdFound param is set (> 0)\n   * that gateway receives 50% of all other payouts\n   *\n   * @param channelId         The channel id\n   * @param gatewayIdFound    The id of the gateway that located the endpoint.\n   * Set to -1 if no gateway found the endpoint\n   * @param shouldPayGateways Flag for whether the gateways are being paid out\n   */\n  function _disburseFunds(\n      bytes32 channelId,\n      bool endointFound,\n      uint gatewayIdFound,\n      bool shouldPayGateways\n  )\n    internal\n    returns (bool)\n  {\n    Channel storage channel = channels[channelId];\n    ERC20 uvtToken = ERC20(uvtTokenAddress);\n\n    // if user cancelled within grace period, they get refunded\n    if (shouldPayGateways) {\n      // in case they renew the search, paidOut is updated with what they've\n      // already paid\n      uint value = channel.deposit - channel.paidOut;\n\n      // what each gateway should get if evenly distributed\n      uint allPayout = SafeMath.div(value, channel.gatewayIds.length);\n\n      if (endointFound) {\n        // pay gatewayIdFound 20% from everyone else's\n        uint othersPayout = allPayout - SafeMath.div(allPayout, 5);\n        uint finderPayout = SafeMath.mul(\n          SafeMath.div(allPayout, 5),\n          (channel.gatewayIds.length - 1)\n        ) + allPayout;\n\n        for (uint i = 0; i < channel.gatewayIds.length; i++) {\n          if (channel.gatewayIds[i] == gatewayIdFound) {\n            if (!uvtToken.transfer(gateways[channel.gatewayIds[i]].owner, finderPayout)) {\n              return false;\n            }\n          } else {\n            if (!uvtToken.transfer(gateways[channel.gatewayIds[i]].owner, othersPayout)) {\n              return false;\n            }\n          }\n        }\n      } else {\n        // pay everyone equally\n        for (uint j = 0; j < channel.gatewayIds.length; j++) {\n          if (!uvtToken.transfer(gateways[channel.gatewayIds[j]].owner, allPayout)) {\n            return false;\n          }\n        }\n      }\n\n      /* TODO: a require() for the payouts being equal to the value */\n\n      channel.paidOut = channel.deposit;\n    } else {\n      if (!uvtToken.transfer(channel.sender, channel.deposit)) {\n        return false;\n      }\n    }\n\n    return true;\n  }\n\n  /**\n   * Verify that the account has approved the fee\n   *\n   * @param gatewaysCount The number of gateways the account is paying for\n   */\n  function _verifyPayment(uint gatewaysCount) internal view returns (uint) {\n    ERC20 uvtToken = ERC20(uvtTokenAddress);\n    uint totalCost = _searchCost(gatewaysCount);\n\n    // make sure they've approved the fee\n    /* TODO: might not be necessary after first approval */\n    require(uvtToken.allowance(msg.sender, address(this)) >= totalCost);\n\n    return totalCost;\n  }\n\n  /**\n   * The total cost (in UVT) for the search - in this case, the number of\n   * gateways to be invoked\n   *\n   * @param gatewaysCount The number of gateways the account is paying for\n   */\n  function _searchCost(uint gatewaysCount) internal view returns (uint) {\n    return SafeMath.mul(gatewaysCount, GATEWAY_COST_UVT);\n  }\n\n  /**\n   * Verify that the endpoint is valid and signed by the account that initiated\n   * the request.\n   * TODO: ecrecover giving issues sometimes\n   *\n   * @param requestId   Id of the search request\n   * @param h           Data for the endpoint's signed data [hash, r, s]\n   * @param v           The \"v\" value of the endpoint signaure\n   */\n  function _verifyEndpoint(bytes32 requestId, bytes32 endpointId, bytes32[3] h, uint8 v)\n    internal\n    view\n  {\n    // testrpc and parity adds prefix when signing\n    // https://github.com/ethereum/wiki/wiki/JSON-RPC#eth_sign\n    bytes memory prefix = \"\\x19Ethereum Signed Message:\\n32\";\n    bytes32 prefixedHash = keccak256(prefix, h[0]);\n\n    address signer = ecrecover(prefixedHash, v, h[1], h[2]);\n    require(signer == searchRequests[requestId].owner);\n\n    /* TODO: verify the endpointID is the same too */\n  }\n}\n",
  "sourcePath": "/Users/carlos/Documents/github/uvt-network/contracts/UVTCore.sol",
  "compiler": {
    "name": "solc",
    "version": "0.4.18+commit.9cf6e910.Emscripten.clang"
  },
  "schemaVersion": "1.0.1",
  "updatedAt": "2018-02-17T18:15:16.973Z"
}