{
  "contractName": "UVTCore",
  "abi": [
    {
      "constant": true,
      "inputs": [],
      "name": "getSearchRequestStatus",
      "outputs": [
        {
          "name": "state",
          "type": "uint8"
        }
      ],
      "payable": false,
      "stateMutability": "view",
      "type": "function"
    },
    {
      "constant": false,
      "inputs": [
        {
          "name": "ip",
          "type": "string"
        },
        {
          "name": "lat",
          "type": "string"
        },
        {
          "name": "long",
          "type": "string"
        },
        {
          "name": "city",
          "type": "string"
        },
        {
          "name": "area",
          "type": "string"
        },
        {
          "name": "wirelessData",
          "type": "string"
        }
      ],
      "name": "addGateway",
      "outputs": [],
      "payable": false,
      "stateMutability": "nonpayable",
      "type": "function"
    },
    {
      "constant": true,
      "inputs": [
        {
          "name": "city",
          "type": "string"
        },
        {
          "name": "area",
          "type": "string"
        }
      ],
      "name": "getGatewaysInRange",
      "outputs": [
        {
          "name": "",
          "type": "uint256[20]"
        }
      ],
      "payable": false,
      "stateMutability": "view",
      "type": "function"
    },
    {
      "constant": true,
      "inputs": [],
      "name": "getMyGatewayId",
      "outputs": [
        {
          "name": "",
          "type": "uint256"
        }
      ],
      "payable": false,
      "stateMutability": "view",
      "type": "function"
    },
    {
      "constant": true,
      "inputs": [
        {
          "name": "id",
          "type": "uint256"
        }
      ],
      "name": "getGateway",
      "outputs": [
        {
          "name": "owner",
          "type": "address"
        },
        {
          "name": "ip",
          "type": "string"
        },
        {
          "name": "lat",
          "type": "string"
        },
        {
          "name": "long",
          "type": "string"
        },
        {
          "name": "city",
          "type": "string"
        },
        {
          "name": "area",
          "type": "string"
        },
        {
          "name": "wirelessData",
          "type": "string"
        }
      ],
      "payable": false,
      "stateMutability": "view",
      "type": "function"
    },
    {
      "constant": false,
      "inputs": [
        {
          "name": "requestId",
          "type": "bytes32"
        },
        {
          "name": "endpointSig",
          "type": "bytes32[3]"
        },
        {
          "name": "v",
          "type": "uint8"
        },
        {
          "name": "lat",
          "type": "string"
        },
        {
          "name": "long",
          "type": "string"
        }
      ],
      "name": "endpointFound",
      "outputs": [],
      "payable": false,
      "stateMutability": "nonpayable",
      "type": "function"
    },
    {
      "constant": false,
      "inputs": [],
      "name": "withdrawBalance",
      "outputs": [],
      "payable": false,
      "stateMutability": "nonpayable",
      "type": "function"
    },
    {
      "constant": false,
      "inputs": [
        {
          "name": "amount",
          "type": "uint256"
        }
      ],
      "name": "buyUVT",
      "outputs": [],
      "payable": true,
      "stateMutability": "payable",
      "type": "function"
    },
    {
      "constant": true,
      "inputs": [],
      "name": "getSearchRequestId",
      "outputs": [
        {
          "name": "id",
          "type": "bytes32"
        }
      ],
      "payable": false,
      "stateMutability": "view",
      "type": "function"
    },
    {
      "constant": true,
      "inputs": [
        {
          "name": "id",
          "type": "bytes32"
        }
      ],
      "name": "getChannel",
      "outputs": [
        {
          "name": "sender",
          "type": "address"
        },
        {
          "name": "gatewayIds",
          "type": "uint256[]"
        },
        {
          "name": "deposit",
          "type": "uint256"
        },
        {
          "name": "state",
          "type": "uint8"
        },
        {
          "name": "paidOut",
          "type": "uint256"
        }
      ],
      "payable": false,
      "stateMutability": "view",
      "type": "function"
    },
    {
      "constant": true,
      "inputs": [],
      "name": "owner",
      "outputs": [
        {
          "name": "",
          "type": "address"
        }
      ],
      "payable": false,
      "stateMutability": "view",
      "type": "function"
    },
    {
      "constant": true,
      "inputs": [
        {
          "name": "id",
          "type": "bytes32"
        }
      ],
      "name": "getSearchRequestById",
      "outputs": [
        {
          "name": "owner",
          "type": "address"
        },
        {
          "name": "endpointId",
          "type": "bytes32"
        },
        {
          "name": "invokedGateways",
          "type": "uint256[]"
        },
        {
          "name": "channelId",
          "type": "bytes32"
        },
        {
          "name": "state",
          "type": "uint8"
        },
        {
          "name": "expires",
          "type": "uint256"
        }
      ],
      "payable": false,
      "stateMutability": "view",
      "type": "function"
    },
    {
      "constant": false,
      "inputs": [
        {
          "name": "endpointId",
          "type": "bytes32"
        },
        {
          "name": "gatewayIds",
          "type": "uint256[]"
        }
      ],
      "name": "createSearchRequest",
      "outputs": [],
      "payable": false,
      "stateMutability": "nonpayable",
      "type": "function"
    },
    {
      "constant": false,
      "inputs": [
        {
          "name": "id",
          "type": "bytes32"
        }
      ],
      "name": "searchExpired",
      "outputs": [
        {
          "name": "",
          "type": "bool"
        }
      ],
      "payable": false,
      "stateMutability": "nonpayable",
      "type": "function"
    },
    {
      "constant": true,
      "inputs": [],
      "name": "getSearchRequest",
      "outputs": [
        {
          "name": "owner",
          "type": "address"
        },
        {
          "name": "endpointId",
          "type": "bytes32"
        },
        {
          "name": "invokedGateways",
          "type": "uint256[]"
        },
        {
          "name": "channelId",
          "type": "bytes32"
        },
        {
          "name": "state",
          "type": "uint8"
        },
        {
          "name": "expires",
          "type": "uint256"
        }
      ],
      "payable": false,
      "stateMutability": "view",
      "type": "function"
    },
    {
      "constant": false,
      "inputs": [
        {
          "name": "id",
          "type": "bytes32"
        }
      ],
      "name": "cancelSearch",
      "outputs": [],
      "payable": false,
      "stateMutability": "nonpayable",
      "type": "function"
    },
    {
      "constant": true,
      "inputs": [
        {
          "name": "id",
          "type": "bytes32"
        }
      ],
      "name": "getChannelState",
      "outputs": [
        {
          "name": "",
          "type": "uint8"
        }
      ],
      "payable": false,
      "stateMutability": "view",
      "type": "function"
    },
    {
      "constant": false,
      "inputs": [
        {
          "name": "id",
          "type": "uint256"
        }
      ],
      "name": "removeGateway",
      "outputs": [],
      "payable": false,
      "stateMutability": "nonpayable",
      "type": "function"
    },
    {
      "constant": true,
      "inputs": [
        {
          "name": "sender",
          "type": "address"
        }
      ],
      "name": "getChannelId",
      "outputs": [
        {
          "name": "",
          "type": "bytes32"
        }
      ],
      "payable": false,
      "stateMutability": "view",
      "type": "function"
    },
    {
      "constant": true,
      "inputs": [],
      "name": "getGatewaysCount",
      "outputs": [
        {
          "name": "",
          "type": "uint256"
        }
      ],
      "payable": false,
      "stateMutability": "view",
      "type": "function"
    },
    {
      "constant": false,
      "inputs": [
        {
          "name": "newOwner",
          "type": "address"
        }
      ],
      "name": "transferOwnership",
      "outputs": [],
      "payable": false,
      "stateMutability": "nonpayable",
      "type": "function"
    },
    {
      "constant": true,
      "inputs": [
        {
          "name": "id",
          "type": "uint256"
        }
      ],
      "name": "getGatewayCoordinates",
      "outputs": [
        {
          "name": "lat",
          "type": "string"
        },
        {
          "name": "long",
          "type": "string"
        }
      ],
      "payable": false,
      "stateMutability": "view",
      "type": "function"
    },
    {
      "constant": true,
      "inputs": [],
      "name": "GATEWAY_COST_UVT",
      "outputs": [
        {
          "name": "",
          "type": "uint256"
        }
      ],
      "payable": false,
      "stateMutability": "view",
      "type": "function"
    },
    {
      "inputs": [
        {
          "name": "tokenAddress",
          "type": "address"
        }
      ],
      "payable": false,
      "stateMutability": "nonpayable",
      "type": "constructor"
    },
    {
      "payable": true,
      "stateMutability": "payable",
      "type": "fallback"
    },
    {
      "anonymous": false,
      "inputs": [
        {
          "indexed": true,
          "name": "owner",
          "type": "address"
        },
        {
          "indexed": false,
          "name": "id",
          "type": "bytes32"
        },
        {
          "indexed": false,
          "name": "endpointId",
          "type": "bytes32"
        }
      ],
      "name": "SearchInitiated",
      "type": "event"
    },
    {
      "anonymous": false,
      "inputs": [
        {
          "indexed": true,
          "name": "id",
          "type": "uint256"
        },
        {
          "indexed": false,
          "name": "endpointId",
          "type": "bytes32"
        },
        {
          "indexed": false,
          "name": "requestId",
          "type": "bytes32"
        }
      ],
      "name": "InvokeGateway",
      "type": "event"
    },
    {
      "anonymous": false,
      "inputs": [
        {
          "indexed": true,
          "name": "id",
          "type": "bytes32"
        },
        {
          "indexed": false,
          "name": "gatewayId",
          "type": "uint256"
        },
        {
          "indexed": false,
          "name": "time",
          "type": "uint256"
        },
        {
          "indexed": false,
          "name": "lat",
          "type": "string"
        },
        {
          "indexed": false,
          "name": "long",
          "type": "string"
        }
      ],
      "name": "SearchEndpointFound",
      "type": "event"
    },
    {
      "anonymous": false,
      "inputs": [
        {
          "indexed": true,
          "name": "id",
          "type": "bytes32"
        },
        {
          "indexed": false,
          "name": "gatewaysPaid",
          "type": "bool"
        }
      ],
      "name": "SearchCancelled",
      "type": "event"
    },
    {
      "anonymous": false,
      "inputs": [
        {
          "indexed": true,
          "name": "id",
          "type": "bytes32"
        }
      ],
      "name": "SearchExpired",
      "type": "event"
    },
    {
      "anonymous": false,
      "inputs": [
        {
          "indexed": true,
          "name": "account",
          "type": "address"
        },
        {
          "indexed": false,
          "name": "amount",
          "type": "uint256"
        }
      ],
      "name": "PurchasedUVT",
      "type": "event"
    },
    {
      "anonymous": false,
      "inputs": [
        {
          "indexed": false,
          "name": "sender",
          "type": "address"
        },
        {
          "indexed": false,
          "name": "value",
          "type": "uint256"
        }
      ],
      "name": "ReceivedFunds",
      "type": "event"
    },
    {
      "anonymous": false,
      "inputs": [
        {
          "indexed": true,
          "name": "id",
          "type": "bytes32"
        }
      ],
      "name": "ChannelOpened",
      "type": "event"
    },
    {
      "anonymous": false,
      "inputs": [
        {
          "indexed": true,
          "name": "id",
          "type": "bytes32"
        }
      ],
      "name": "ChannelClosed",
      "type": "event"
    },
    {
      "anonymous": false,
      "inputs": [
        {
          "indexed": false,
          "name": "id",
          "type": "uint256"
        },
        {
          "indexed": false,
          "name": "by",
          "type": "address"
        }
      ],
      "name": "GatewayAdded",
      "type": "event"
    },
    {
      "anonymous": false,
      "inputs": [
        {
          "indexed": false,
          "name": "ip",
          "type": "string"
        },
        {
          "indexed": false,
          "name": "by",
          "type": "address"
        }
      ],
      "name": "GatewayRemoved",
      "type": "event"
    },
    {
      "anonymous": false,
      "inputs": [
        {
          "indexed": true,
          "name": "previousOwner",
          "type": "address"
        },
        {
          "indexed": true,
          "name": "newOwner",
          "type": "address"
        }
      ],
      "name": "OwnershipTransferred",
      "type": "event"
    }
  ],
  "bytecode": "0x6060604052600a600955341561001457600080fd5b604051602080614caa83398101604052808051906020019091905050336000806101000a81548173ffffffffffffffffffffffffffffffffffffffff021916908373ffffffffffffffffffffffffffffffffffffffff160217905550336000806101000a81548173ffffffffffffffffffffffffffffffffffffffff021916908373ffffffffffffffffffffffffffffffffffffffff16021790555080600860006101000a81548173ffffffffffffffffffffffffffffffffffffffff021916908373ffffffffffffffffffffffffffffffffffffffff16021790555050614ba9806101016000396000f300606060405260043610610133576000357c0100000000000000000000000000000000000000000000000000000000900463ffffffff1680630eb86c42146101a05780631c398289146101d75780631c4c3f7e14610269578063200f83ec146102e757806330cc0e0c146103105780634143aef0146105fb5780635fd8c7101461065d57806365e0c5fa146106725780638297c1d61461068a578063831c2b82146106bb5780638da5cb5b1461078d578063992a6bc3146107e2578063a1d88770146108cb578063a500fd2014610906578063bf664aeb14610945578063c3cc87f314610a1c578063d18da8b114610a43578063e5dac70314610a8c578063eb295b2714610aaf578063ec97d3d514610b04578063f2fde38b14610b2d578063fbe669d514610b66578063fdc2263614610c6e575b7f5741979df5f3e491501da74d3b0a83dd2496ab1f34929865b3e190a8ad75859a3334604051808373ffffffffffffffffffffffffffffffffffffffff1673ffffffffffffffffffffffffffffffffffffffff1681526020018281526020019250505060405180910390a1005b34156101ab57600080fd5b6101b3610c97565b604051808260038111156101c357fe5b60ff16815260200191505060405180910390f35b34156101e257600080fd5b6102676004808035906020019082018035906020019190919290803590602001908201803590602001919091929080359060200190820180359060200191909192908035906020019082018035906020019190919290803590602001908201803590602001919091929080359060200190820180359060200191909192905050610d62565b005b341561027457600080fd5b6102a96004808035906020019082018035906020019190919290803590602001908201803590602001919091929050506111f5565b6040518082601460200280838360005b838110156102d45780820151818401526020810190506102b9565b5050505090500191505060405180910390f35b34156102f257600080fd5b6102fa611300565b6040518082815260200191505060405180910390f35b341561031b57600080fd5b61033160048080359060200190919050506113c6565b604051808873ffffffffffffffffffffffffffffffffffffffff1673ffffffffffffffffffffffffffffffffffffffff16815260200180602001806020018060200180602001806020018060200187810387528d818151815260200191508051906020019080838360005b838110156103b757808201518184015260208101905061039c565b50505050905090810190601f1680156103e45780820380516001836020036101000a031916815260200191505b5087810386528c818151815260200191508051906020019080838360005b8381101561041d578082015181840152602081019050610402565b50505050905090810190601f16801561044a5780820380516001836020036101000a031916815260200191505b5087810385528b818151815260200191508051906020019080838360005b83811015610483578082015181840152602081019050610468565b50505050905090810190601f1680156104b05780820380516001836020036101000a031916815260200191505b5087810384528a818151815260200191508051906020019080838360005b838110156104e95780820151818401526020810190506104ce565b50505050905090810190601f1680156105165780820380516001836020036101000a031916815260200191505b50878103835289818151815260200191508051906020019080838360005b8381101561054f578082015181840152602081019050610534565b50505050905090810190601f16801561057c5780820380516001836020036101000a031916815260200191505b50878103825288818151815260200191508051906020019080838360005b838110156105b557808201518184015260208101905061059a565b50505050905090810190601f1680156105e25780820380516001836020036101000a031916815260200191505b509d505050505050505050505050505060405180910390f35b341561060657600080fd5b61065b6004808035600019169060200190919080606001909190803560ff169060200190919080359060200190820180359060200191909192908035906020019082018035906020019190919290505061196e565b005b341561066857600080fd5b610670611c85565b005b6106886004808035906020019091905050611d5a565b005b341561069557600080fd5b61069d611eb2565b60405180826000191660001916815260200191505060405180910390f35b34156106c657600080fd5b6106e0600480803560001916906020019091905050611f52565b604051808673ffffffffffffffffffffffffffffffffffffffff1673ffffffffffffffffffffffffffffffffffffffff1681526020018060200185815260200184600181111561072c57fe5b60ff168152602001838152602001828103825286818151815260200191508051906020019060200280838360005b8381101561077557808201518184015260208101905061075a565b50505050905001965050505050505060405180910390f35b341561079857600080fd5b6107a06120de565b604051808273ffffffffffffffffffffffffffffffffffffffff1673ffffffffffffffffffffffffffffffffffffffff16815260200191505060405180910390f35b34156107ed57600080fd5b610807600480803560001916906020019091905050612103565b604051808773ffffffffffffffffffffffffffffffffffffffff1673ffffffffffffffffffffffffffffffffffffffff168152602001866000191660001916815260200180602001856000191660001916815260200184600381111561086957fe5b60ff168152602001838152602001828103825286818151815260200191508051906020019060200280838360005b838110156108b2578082015181840152602081019050610897565b5050505090500197505050505050505060405180910390f35b34156108d657600080fd5b61090460048080356000191690602001909190803590602001908201803590602001919091929050506122dc565b005b341561091157600080fd5b61092b60048080356000191690602001909190505061268b565b604051808215151515815260200191505060405180910390f35b341561095057600080fd5b6109586128f2565b604051808773ffffffffffffffffffffffffffffffffffffffff1673ffffffffffffffffffffffffffffffffffffffff16815260200186600019166000191681526020018060200185600019166000191681526020018460038111156109ba57fe5b60ff168152602001838152602001828103825286818151815260200191508051906020019060200280838360005b83811015610a035780820151818401526020810190506109e8565b5050505090500197505050505050505060405180910390f35b3415610a2757600080fd5b610a41600480803560001916906020019091905050612b08565b005b3415610a4e57600080fd5b610a68600480803560001916906020019091905050612d61565b60405180826001811115610a7857fe5b60ff16815260200191505060405180910390f35b3415610a9757600080fd5b610aad6004808035906020019091905050612dc6565b005b3415610aba57600080fd5b610ae6600480803573ffffffffffffffffffffffffffffffffffffffff16906020019091905050613572565b60405180826000191660001916815260200191505060405180910390f35b3415610b0f57600080fd5b610b176135bb565b6040518082815260200191505060405180910390f35b3415610b3857600080fd5b610b64600480803573ffffffffffffffffffffffffffffffffffffffff16906020019091905050613623565b005b3415610b7157600080fd5b610b876004808035906020019091905050613778565b604051808060200180602001838103835285818151815260200191508051906020019080838360005b83811015610bcb578082015181840152602081019050610bb0565b50505050905090810190601f168015610bf85780820380516001836020036101000a031916815260200191505b50838103825284818151815260200191508051906020019080838360005b83811015610c31578082015181840152602081019050610c16565b50505050905090810190601f168015610c5e5780820380516001836020036101000a031916815260200191505b5094505050505060405180910390f35b3415610c7957600080fd5b610c81613981565b6040518082815260200191505060405180910390f35b60008060010260001916600760003373ffffffffffffffffffffffffffffffffffffffff1673ffffffffffffffffffffffffffffffffffffffff168152602001908152602001600020546000191614151515610cf257600080fd5b60066000600760003373ffffffffffffffffffffffffffffffffffffffff1673ffffffffffffffffffffffffffffffffffffffff168152602001908152602001600020546000191660001916815260200190815260200160002060040160009054906101000a900460ff16905090565b610d6a61476f565b600080600260003373ffffffffffffffffffffffffffffffffffffffff1673ffffffffffffffffffffffffffffffffffffffff16815260200190815260200160002054141515610db957600080fd5b60008e8e905014151515610dcc57600080fd5b60008c8c905014151515610ddf57600080fd5b60008a8a905014151515610df257600080fd5b610100604051908101604052803373ffffffffffffffffffffffffffffffffffffffff1681526020018f8f8080601f01602080910402602001604051908101604052809392919081815260200183838082843782019150505050505081526020018d8d8080601f01602080910402602001604051908101604052809392919081815260200183838082843782019150505050505081526020018b8b8080601f016020809104026020016040519081016040528093929190818152602001838380828437820191505050505050815260200189898080601f016020809104026020016040519081016040528093929190818152602001838380828437820191505050505050815260200187878080601f016020809104026020016040519081016040528093929190818152602001838380828437820191505050505050815260200185858080601f0160208091040260200160405190810160405280939291908181526020018383808284378201915050505050508152602001600081525091506001808054806001018281610f8791906147ef565b9160005260206000209060080201600085909190915060008201518160000160006101000a81548173ffffffffffffffffffffffffffffffffffffffff021916908373ffffffffffffffffffffffffffffffffffffffff1602179055506020820151816001019080519060200190611000929190614821565b50604082015181600201908051906020019061101d929190614821565b50606082015181600301908051906020019061103a929190614821565b506080820151816004019080519060200190611057929190614821565b5060a0820151816005019080519060200190611074929190614821565b5060c0820151816006019080519060200190611091929190614821565b5060e08201518160070155505003905080600260003373ffffffffffffffffffffffffffffffffffffffff1673ffffffffffffffffffffffffffffffffffffffff168152602001908152602001600020819055506001600389896040518083838082843782019150509250505090815260200160405180910390208787604051808383808284378201915050925050509081526020016040518091039020805480600101828161114191906148a1565b91600052602060002090016000849091909150550360018281548110151561116557fe5b9060005260206000209060080201600701819055507fa22c26e0a527742ea27221a5cc724d945aa88edbf15a26013bf34c6d56566c018133604051808381526020018273ffffffffffffffffffffffffffffffffffffffff1673ffffffffffffffffffffffffffffffffffffffff1681526020019250505060405180910390a15050505050505050505050505050565b6111fd6148cd565b6112056148f6565b61120d6148cd565b60006003888860405180838380828437820191505092505050908152602001604051809103902086866040518083838082843782019150509250505090815260200160405180910390208054806020026020016040519081016040528092919081815260200182805480156112a157602002820191906000526020600020905b81548152602001906001019080831161128d575b50505050509250600090505b82518110156112f25782818151811015156112c457fe5b9060200190602002015182826014811015156112dc57fe5b60200201818152505080806001019150506112ad565b819350505050949350505050565b600080600260003373ffffffffffffffffffffffffffffffffffffffff1673ffffffffffffffffffffffffffffffffffffffff1681526020019081526020016000205490503373ffffffffffffffffffffffffffffffffffffffff1660018281548110151561136b57fe5b906000526020600020906008020160000160009054906101000a900473ffffffffffffffffffffffffffffffffffffffff1673ffffffffffffffffffffffffffffffffffffffff161415156113bf57600080fd5b8091505090565b60006113d061490a565b6113d861490a565b6113e061490a565b6113e861490a565b6113f061490a565b6113f861490a565b61140061476f565b6000809054906101000a900473ffffffffffffffffffffffffffffffffffffffff1673ffffffffffffffffffffffffffffffffffffffff163373ffffffffffffffffffffffffffffffffffffffff1614151561145b57600080fd5b88600073ffffffffffffffffffffffffffffffffffffffff1660018281548110151561148357fe5b906000526020600020906008020160000160009054906101000a900473ffffffffffffffffffffffffffffffffffffffff1673ffffffffffffffffffffffffffffffffffffffff16141515156114d857600080fd5b60018a8154811015156114e757fe5b906000526020600020906008020161010060405190810160405290816000820160009054906101000a900473ffffffffffffffffffffffffffffffffffffffff1673ffffffffffffffffffffffffffffffffffffffff1673ffffffffffffffffffffffffffffffffffffffff168152602001600182018054600181600116156101000203166002900480601f0160208091040260200160405190810160405280929190818152602001828054600181600116156101000203166002900480156115f15780601f106115c6576101008083540402835291602001916115f1565b820191906000526020600020905b8154815290600101906020018083116115d457829003601f168201915b50505050508152602001600282018054600181600116156101000203166002900480601f0160208091040260200160405190810160405280929190818152602001828054600181600116156101000203166002900480156116935780601f1061166857610100808354040283529160200191611693565b820191906000526020600020905b81548152906001019060200180831161167657829003601f168201915b50505050508152602001600382018054600181600116156101000203166002900480601f0160208091040260200160405190810160405280929190818152602001828054600181600116156101000203166002900480156117355780601f1061170a57610100808354040283529160200191611735565b820191906000526020600020905b81548152906001019060200180831161171857829003601f168201915b50505050508152602001600482018054600181600116156101000203166002900480601f0160208091040260200160405190810160405280929190818152602001828054600181600116156101000203166002900480156117d75780601f106117ac576101008083540402835291602001916117d7565b820191906000526020600020905b8154815290600101906020018083116117ba57829003601f168201915b50505050508152602001600582018054600181600116156101000203166002900480601f0160208091040260200160405190810160405280929190818152602001828054600181600116156101000203166002900480156118795780601f1061184e57610100808354040283529160200191611879565b820191906000526020600020905b81548152906001019060200180831161185c57829003601f168201915b50505050508152602001600682018054600181600116156101000203166002900480601f01602080910402602001604051908101604052809291908181526020018280546001816001161561010002031660029004801561191b5780601f106118f05761010080835404028352916020019161191b565b820191906000526020600020905b8154815290600101906020018083116118fe57829003601f168201915b50505050508152602001600782015481525050915081600001519850816020015197508160400151965081606001519550816080015194508160a0015193508160c0015192505050919395979092949650565b60008088600073ffffffffffffffffffffffffffffffffffffffff1660066000836000191660001916815260200190815260200160002060000160009054906101000a900473ffffffffffffffffffffffffffffffffffffffff1673ffffffffffffffffffffffffffffffffffffffff16141515156119ec57600080fd5b894260066000836000191660001916815260200190815260200160002060050154111515611a1957600080fd5b3373ffffffffffffffffffffffffffffffffffffffff166001600260003373ffffffffffffffffffffffffffffffffffffffff1673ffffffffffffffffffffffffffffffffffffffff16815260200190815260200160002054815481101515611a7e57fe5b906000526020600020906008020160000160009054906101000a900473ffffffffffffffffffffffffffffffffffffffff1673ffffffffffffffffffffffffffffffffffffffff16141515611ad257600080fd5b600260003373ffffffffffffffffffffffffffffffffffffffff1673ffffffffffffffffffffffffffffffffffffffff168152602001908152602001600020549350600660008c600019166000191681526020019081526020016000209250611b668b84600101548c600380602002604051908101604052809291908260036020028082843782019150505050508c613987565b611b7883600301546001866001613b82565b50611b868360030154614159565b5060018360040160006101000a81548160ff02191690836003811115611ba857fe5b0217905550600760003373ffffffffffffffffffffffffffffffffffffffff1673ffffffffffffffffffffffffffffffffffffffff168152602001908152602001600020600090558a600019167f251c0e6973c1af719986613a7fb64206214a19eeddd90b6f1fad5a93b423fba785428b8b8b8b60405180878152602001868152602001806020018060200183810383528787828181526020019250808284378201915050838103825285858281815260200192508082843782019150509850505050505050505060405180910390a25050505050505050505050565b6000809054906101000a900473ffffffffffffffffffffffffffffffffffffffff1673ffffffffffffffffffffffffffffffffffffffff163373ffffffffffffffffffffffffffffffffffffffff16141515611ce057600080fd5b6000809054906101000a900473ffffffffffffffffffffffffffffffffffffffff1673ffffffffffffffffffffffffffffffffffffffff166108fc3073ffffffffffffffffffffffffffffffffffffffff16319081150290604051600060405180830381858888f193505050501515611d5857600080fd5b565b60008134141515611d6a57600080fd5b600860009054906101000a900473ffffffffffffffffffffffffffffffffffffffff1690508073ffffffffffffffffffffffffffffffffffffffff1663a9059cbb33846000604051602001526040518363ffffffff167c0100000000000000000000000000000000000000000000000000000000028152600401808373ffffffffffffffffffffffffffffffffffffffff1673ffffffffffffffffffffffffffffffffffffffff16815260200182815260200192505050602060405180830381600087803b1515611e3a57600080fd5b6102c65a03f11515611e4b57600080fd5b505050604051805190501515611e6057600080fd5b3373ffffffffffffffffffffffffffffffffffffffff167f0f6830e83634599a8b9cb956c7162a03638744c637464b528f7a86fe1250f866836040518082815260200191505060405180910390a25050565b60008060010260001916600760003373ffffffffffffffffffffffffffffffffffffffff1673ffffffffffffffffffffffffffffffffffffffff168152602001908152602001600020546000191614151515611f0d57600080fd5b600760003373ffffffffffffffffffffffffffffffffffffffff1673ffffffffffffffffffffffffffffffffffffffff16815260200190815260200160002054905090565b6000611f5c6148f6565b6000806000611f6961491e565b8660006004600083600019166000191681526020019081526020016000206002015414151515611f9857600080fd5b60046000896000191660001916815260200190815260200160002060a060405190810160405290816000820160009054906101000a900473ffffffffffffffffffffffffffffffffffffffff1673ffffffffffffffffffffffffffffffffffffffff1673ffffffffffffffffffffffffffffffffffffffff1681526020016001820180548060200260200160405190810160405280929190818152602001828054801561206457602002820191906000526020600020905b815481526020019060010190808311612050575b50505050508152602001600282015481526020016003820160009054906101000a900460ff16600181111561209557fe5b60018111156120a057fe5b815260200160048201548152505091508160000151965081602001519550816040015194508160600151935081608001519250505091939590929450565b6000809054906101000a900473ffffffffffffffffffffffffffffffffffffffff1681565b60008061210e6148f6565b600080600061211b614975565b6000809054906101000a900473ffffffffffffffffffffffffffffffffffffffff1673ffffffffffffffffffffffffffffffffffffffff163373ffffffffffffffffffffffffffffffffffffffff1614151561217657600080fd5b60066000896000191660001916815260200190815260200160002060c060405190810160405290816000820160009054906101000a900473ffffffffffffffffffffffffffffffffffffffff1673ffffffffffffffffffffffffffffffffffffffff1673ffffffffffffffffffffffffffffffffffffffff1681526020016001820154600019166000191681526020016002820180548060200260200160405190810160405280929190818152602001828054801561225457602002820191906000526020600020905b815481526020019060010190808311612240575b505050505081526020016003820154600019166000191681526020016004820160009054906101000a900460ff16600381111561228d57fe5b600381111561229857fe5b8152602001600582015481525050905080600001519650806020015195508060400151945080606001519350806080015192508060a0015191505091939550919395565b60008060006122e9614975565b6000806001026000191688600019161415151561230557600080fd5b6000878790501415151561231857600080fd5b612324878790506142a8565b945061238287878080602002602001604051908101604052809392919081815260200183836020028082843782019150505050505086600860009054906101000a900473ffffffffffffffffffffffffffffffffffffffff166143e7565b9350338442604051808473ffffffffffffffffffffffffffffffffffffffff1673ffffffffffffffffffffffffffffffffffffffff166c01000000000000000000000000028152601401836000191660001916815260200182815260200193505050506040518091039020925060c0604051908101604052803373ffffffffffffffffffffffffffffffffffffffff168152602001896000191681526020018888808060200260200160405190810160405280939291908181526020018383602002808284378201915050505050508152602001856000191681526020016000600381111561246d57fe5b8152602001610e10420181525091508160066000856000191660001916815260200190815260200160002060008201518160000160006101000a81548173ffffffffffffffffffffffffffffffffffffffff021916908373ffffffffffffffffffffffffffffffffffffffff16021790555060208201518160010190600019169055604082015181600201908051906020019061250b9291906149d9565b506060820151816003019060001916905560808201518160040160006101000a81548160ff0219169083600381111561254057fe5b021790555060a0820151816005015590505082600760003373ffffffffffffffffffffffffffffffffffffffff1673ffffffffffffffffffffffffffffffffffffffff16815260200190815260200160002081600019169055503373ffffffffffffffffffffffffffffffffffffffff167f6dbed0ca6b6711aef30d0a1175094855f83d0d6b9d7a7d0bf104862c9170a2e6848a60405180836000191660001916815260200182600019166000191681526020019250505060405180910390a2600090505b8686905081101561268157868682818110151561261e57fe5b905060200201357f028712afc64b05883886f38c7937529d87a27e1738b955a0569401b6c13cc526898560405180836000191660001916815260200182600019166000191681526020019250505060405180910390a28080600101915050612605565b5050505050505050565b600081600073ffffffffffffffffffffffffffffffffffffffff1660066000836000191660001916815260200190815260200160002060000160009054906101000a900473ffffffffffffffffffffffffffffffffffffffff1673ffffffffffffffffffffffffffffffffffffffff161415151561270857600080fd5b600060010260001916600760003373ffffffffffffffffffffffffffffffffffffffff1673ffffffffffffffffffffffffffffffffffffffff16815260200190815260200160002054600019161415151561276257600080fd5b6000600381111561276f57fe5b60066000856000191660001916815260200190815260200160002060040160009054906101000a900460ff1660038111156127a657fe5b1480156127d057504260066000856000191660001916815260200190815260200160002060050154105b156128e757612801600660008560001916600019168152602001908152602001600020600301546000806001613b82565b5061282960066000856000191660001916815260200190815260200160002060030154614159565b50600360066000856000191660001916815260200190815260200160002060040160006101000a81548160ff0219169083600381111561286557fe5b021790555082600019167f04388b6f7fba70cae8baa27ebc0929159f5e767b2de8814e79e59ce1ea7a705e60405160405180910390a2600760003373ffffffffffffffffffffffffffffffffffffffff1673ffffffffffffffffffffffffffffffffffffffff16815260200190815260200160002060009055600191506128ec565b600091505b50919050565b6000806128fd6148f6565b600080600061290a614975565b600060010260001916600760003373ffffffffffffffffffffffffffffffffffffffff1673ffffffffffffffffffffffffffffffffffffffff16815260200190815260200160002054600019161415151561296457600080fd5b60066000600760003373ffffffffffffffffffffffffffffffffffffffff1673ffffffffffffffffffffffffffffffffffffffff168152602001908152602001600020546000191660001916815260200190815260200160002060c060405190810160405290816000820160009054906101000a900473ffffffffffffffffffffffffffffffffffffffff1673ffffffffffffffffffffffffffffffffffffffff1673ffffffffffffffffffffffffffffffffffffffff16815260200160018201546000191660001916815260200160028201805480602002602001604051908101604052809291908181526020018280548015612a8157602002820191906000526020600020905b815481526020019060010190808311612a6d575b505050505081526020016003820154600019166000191681526020016004820160009054906101000a900460ff166003811115612aba57fe5b6003811115612ac557fe5b8152602001600582015481525050905080600001519650806020015195508060400151945080606001519350806080015192508060a00151915050909192939495565b600081600073ffffffffffffffffffffffffffffffffffffffff1660066000836000191660001916815260200190815260200160002060000160009054906101000a900473ffffffffffffffffffffffffffffffffffffffff1673ffffffffffffffffffffffffffffffffffffffff1614151515612b8557600080fd5b824260066000836000191660001916815260200190815260200160002060050154111515612bb257600080fd5b600060010260001916600760003373ffffffffffffffffffffffffffffffffffffffff1673ffffffffffffffffffffffffffffffffffffffff168152602001908152602001600020546000191614151515612c0c57600080fd5b610a8c4260066000876000191660001916815260200190815260200160002060050154031115612c3f5760009250612c44565b600192505b612c6f6006600086600019166000191681526020019081526020016000206003015460008086613b82565b50612c9760066000866000191660001916815260200190815260200160002060030154614159565b50600260066000866000191660001916815260200190815260200160002060040160006101000a81548160ff02191690836003811115612cd357fe5b0217905550600760003373ffffffffffffffffffffffffffffffffffffffff1673ffffffffffffffffffffffffffffffffffffffff1681526020019081526020016000206000905583600019167f667043bfb51a81e4328acc863f6e40a64851a37e88152011d1a7db47286ae60b84604051808215151515815260200191505060405180910390a250505050565b60008160006004600083600019166000191681526020019081526020016000206002015414151515612d9257600080fd5b60046000846000191660001916815260200190815260200160002060030160009054906101000a900460ff16915050919050565b612dce61476f565b612dd661490a565b3373ffffffffffffffffffffffffffffffffffffffff16600184815481101515612dfc57fe5b906000526020600020906008020160000160009054906101000a900473ffffffffffffffffffffffffffffffffffffffff1673ffffffffffffffffffffffffffffffffffffffff16141515612e5057600080fd5b600183815481101515612e5f57fe5b906000526020600020906008020161010060405190810160405290816000820160009054906101000a900473ffffffffffffffffffffffffffffffffffffffff1673ffffffffffffffffffffffffffffffffffffffff1673ffffffffffffffffffffffffffffffffffffffff168152602001600182018054600181600116156101000203166002900480601f016020809104026020016040519081016040528092919081815260200182805460018160011615610100020316600290048015612f695780601f10612f3e57610100808354040283529160200191612f69565b820191906000526020600020905b815481529060010190602001808311612f4c57829003601f168201915b50505050508152602001600282018054600181600116156101000203166002900480601f01602080910402602001604051908101604052809291908181526020018280546001816001161561010002031660029004801561300b5780601f10612fe05761010080835404028352916020019161300b565b820191906000526020600020905b815481529060010190602001808311612fee57829003601f168201915b50505050508152602001600382018054600181600116156101000203166002900480601f0160208091040260200160405190810160405280929190818152602001828054600181600116156101000203166002900480156130ad5780601f10613082576101008083540402835291602001916130ad565b820191906000526020600020905b81548152906001019060200180831161309057829003601f168201915b50505050508152602001600482018054600181600116156101000203166002900480601f01602080910402602001604051908101604052809291908181526020018280546001816001161561010002031660029004801561314f5780601f106131245761010080835404028352916020019161314f565b820191906000526020600020905b81548152906001019060200180831161313257829003601f168201915b50505050508152602001600582018054600181600116156101000203166002900480601f0160208091040260200160405190810160405280929190818152602001828054600181600116156101000203166002900480156131f15780601f106131c6576101008083540402835291602001916131f1565b820191906000526020600020905b8154815290600101906020018083116131d457829003601f168201915b50505050508152602001600682018054600181600116156101000203166002900480601f0160208091040260200160405190810160405280929190818152602001828054600181600116156101000203166002900480156132935780601f1061326857610100808354040283529160200191613293565b820191906000526020600020905b81548152906001019060200180831161327657829003601f168201915b50505050508152602001600782015481525050915081602001519050600382608001516040518082805190602001908083835b6020831015156132eb57805182526020820191506020810190506020830392506132c6565b6001836020036101000a03801982511681845116808217855250505050505090500191505090815260200160405180910390208260a001516040518082805190602001908083835b6020831015156133585780518252602082019150602081019050602083039250613333565b6001836020036101000a03801982511681845116808217855250505050505090500191505090815260200160405180910390208260e0015181548110151561339c57fe5b9060005260206000209001600090556001838154811015156133ba57fe5b9060005260206000209060080201600080820160006101000a81549073ffffffffffffffffffffffffffffffffffffffff02191690556001820160006134009190614a26565b6002820160006134109190614a26565b6003820160006134209190614a26565b6004820160006134309190614a26565b6005820160006134409190614a26565b6006820160006134509190614a26565b60078201600090555050600260003373ffffffffffffffffffffffffffffffffffffffff1673ffffffffffffffffffffffffffffffffffffffff168152602001908152602001600020600090557fe5e6e5f3b122e8a87f58ce846d5ece95208ab36e03181ea1c48599922411167f813360405180806020018373ffffffffffffffffffffffffffffffffffffffff1673ffffffffffffffffffffffffffffffffffffffff168152602001828103825284818151815260200191508051906020019080838360005b83811015613532578082015181840152602081019050613517565b50505050905090810190601f16801561355f5780820380516001836020036101000a031916815260200191505b50935050505060405180910390a1505050565b6000600560008373ffffffffffffffffffffffffffffffffffffffff1673ffffffffffffffffffffffffffffffffffffffff168152602001908152602001600020549050919050565b60008060009054906101000a900473ffffffffffffffffffffffffffffffffffffffff1673ffffffffffffffffffffffffffffffffffffffff163373ffffffffffffffffffffffffffffffffffffffff1614151561361857600080fd5b600180549050905090565b6000809054906101000a900473ffffffffffffffffffffffffffffffffffffffff1673ffffffffffffffffffffffffffffffffffffffff163373ffffffffffffffffffffffffffffffffffffffff1614151561367e57600080fd5b600073ffffffffffffffffffffffffffffffffffffffff168173ffffffffffffffffffffffffffffffffffffffff16141515156136ba57600080fd5b8073ffffffffffffffffffffffffffffffffffffffff166000809054906101000a900473ffffffffffffffffffffffffffffffffffffffff1673ffffffffffffffffffffffffffffffffffffffff167f8be0079c531659141344cd1fd0a4f28419497f9722a3daafe3b4186f6b6457e060405160405180910390a3806000806101000a81548173ffffffffffffffffffffffffffffffffffffffff021916908373ffffffffffffffffffffffffffffffffffffffff16021790555050565b61378061490a565b61378861490a565b82600073ffffffffffffffffffffffffffffffffffffffff166001828154811015156137b057fe5b906000526020600020906008020160000160009054906101000a900473ffffffffffffffffffffffffffffffffffffffff1673ffffffffffffffffffffffffffffffffffffffff161415151561380557600080fd5b60018481548110151561381457fe5b90600052602060002090600802016002018054600181600116156101000203166002900480601f0160208091040260200160405190810160405280929190818152602001828054600181600116156101000203166002900480156138b95780601f1061388e576101008083540402835291602001916138b9565b820191906000526020600020905b81548152906001019060200180831161389c57829003601f168201915b505050505092506001848154811015156138cf57fe5b90600052602060002090600802016003018054600181600116156101000203166002900480601f0160208091040260200160405190810160405280929190818152602001828054600181600116156101000203166002900480156139745780601f1061394957610100808354040283529160200191613974565b820191906000526020600020905b81548152906001019060200180831161395757829003601f168201915b5050505050915050915091565b60095481565b61398f614a6e565b6000806040805190810160405280601c81526020017f19457468657265756d205369676e6564204d6573736167653a0a3332000000008152509250828560006003811015156139da57fe5b60200201516040518083805190602001908083835b602083101515613a1457805182526020820191506020810190506020830392506139ef565b6001836020036101000a0380198251168184511680821785525050505050509050018260001916600019168152602001925050506040518091039020915060018285876001600381101515613a6557fe5b6020020151886002600381101515613a7957fe5b6020020151604051600081526020016040526000604051602001526040518085600019166000191681526020018460ff1660ff16815260200183600019166000191681526020018260001916600019168152602001945050505050602060405160208103908084039060008661646e5a03f11515613af657600080fd5b505060206040510351905060066000886000191660001916815260200190815260200160002060000160009054906101000a900473ffffffffffffffffffffffffffffffffffffffff1673ffffffffffffffffffffffffffffffffffffffff168173ffffffffffffffffffffffffffffffffffffffff16141515613b7957600080fd5b50505050505050565b6000806000806000806000806000600460008e600019166000191681526020019081526020016000209750600860009054906101000a900473ffffffffffffffffffffffffffffffffffffffff16965089156140465787600401548860020154039550613bf6868960010180549050614704565b94508b15613ee157613c09856005614704565b8503935084613c2c613c1c876005614704565b60018b600101805490500361471f565b019250600091505b8760010180549050821015613edc578a8860010183815481101515613c5557fe5b9060005260206000209001541415613d9d578673ffffffffffffffffffffffffffffffffffffffff1663a9059cbb60018a60010185815481101515613c9657fe5b906000526020600020900154815481101515613cae57fe5b906000526020600020906008020160000160009054906101000a900473ffffffffffffffffffffffffffffffffffffffff16856000604051602001526040518363ffffffff167c0100000000000000000000000000000000000000000000000000000000028152600401808373ffffffffffffffffffffffffffffffffffffffff1673ffffffffffffffffffffffffffffffffffffffff16815260200182815260200192505050602060405180830381600087803b1515613d6e57600080fd5b6102c65a03f11515613d7f57600080fd5b505050604051805190501515613d985760009850614149565b613ecf565b8673ffffffffffffffffffffffffffffffffffffffff1663a9059cbb60018a60010185815481101515613dcc57fe5b906000526020600020900154815481101515613de457fe5b906000526020600020906008020160000160009054906101000a900473ffffffffffffffffffffffffffffffffffffffff16866000604051602001526040518363ffffffff167c0100000000000000000000000000000000000000000000000000000000028152600401808373ffffffffffffffffffffffffffffffffffffffff1673ffffffffffffffffffffffffffffffffffffffff16815260200182815260200192505050602060405180830381600087803b1515613ea457600080fd5b6102c65a03f11515613eb557600080fd5b505050604051805190501515613ece5760009850614149565b5b8180600101925050613c34565b614034565b600090505b8760010180549050811015614033578673ffffffffffffffffffffffffffffffffffffffff1663a9059cbb60018a60010184815481101515613f2457fe5b906000526020600020900154815481101515613f3c57fe5b906000526020600020906008020160000160009054906101000a900473ffffffffffffffffffffffffffffffffffffffff16876000604051602001526040518363ffffffff167c0100000000000000000000000000000000000000000000000000000000028152600401808373ffffffffffffffffffffffffffffffffffffffff1673ffffffffffffffffffffffffffffffffffffffff16815260200182815260200192505050602060405180830381600087803b1515613ffc57600080fd5b6102c65a03f1151561400d57600080fd5b5050506040518051905015156140265760009850614149565b8080600101915050613ee6565b5b87600201548860040181905550614144565b8673ffffffffffffffffffffffffffffffffffffffff1663a9059cbb8960000160009054906101000a900473ffffffffffffffffffffffffffffffffffffffff168a600201546000604051602001526040518363ffffffff167c0100000000000000000000000000000000000000000000000000000000028152600401808373ffffffffffffffffffffffffffffffffffffffff1673ffffffffffffffffffffffffffffffffffffffff16815260200182815260200192505050602060405180830381600087803b151561411957600080fd5b6102c65a03f1151561412a57600080fd5b5050506040518051905015156141435760009850614149565b5b600198505b5050505050505050949350505050565b60008160018081111561416857fe5b60046000836000191660001916815260200190815260200160002060030160009054906101000a900460ff16600181111561419f57fe5b141515156141ac57600080fd5b600160046000856000191660001916815260200190815260200160002060030160006101000a81548160ff021916908360018111156141e757fe5b02179055506005600060046000866000191660001916815260200190815260200160002060000160009054906101000a900473ffffffffffffffffffffffffffffffffffffffff1673ffffffffffffffffffffffffffffffffffffffff1673ffffffffffffffffffffffffffffffffffffffff1681526020019081526020016000206000905582600019167fceeab2eef998c17fe96f30f83fbf3c55fc5047f6e40c55a0cf72d236e9d2ba7260405160405180910390a26001915050919050565b6000806000600860009054906101000a900473ffffffffffffffffffffffffffffffffffffffff1691506142db8461475a565b9050808273ffffffffffffffffffffffffffffffffffffffff1663dd62ed3e33306000604051602001526040518363ffffffff167c0100000000000000000000000000000000000000000000000000000000028152600401808373ffffffffffffffffffffffffffffffffffffffff1673ffffffffffffffffffffffffffffffffffffffff1681526020018273ffffffffffffffffffffffffffffffffffffffff1673ffffffffffffffffffffffffffffffffffffffff16815260200192505050602060405180830381600087803b15156143b557600080fd5b6102c65a03f115156143c657600080fd5b50505060405180519050101515156143dd57600080fd5b8092505050919050565b6000806143f261491e565b3386600081518110151561440257fe5b9060200190602002015142604051808473ffffffffffffffffffffffffffffffffffffffff1673ffffffffffffffffffffffffffffffffffffffff166c0100000000000000000000000002815260140183815260200182815260200193505050506040518091039020915060a0604051908101604052803373ffffffffffffffffffffffffffffffffffffffff168152602001878152602001868152602001600060018111156144ae57fe5b8152602001600081525090508373ffffffffffffffffffffffffffffffffffffffff166323b872dd3330886000604051602001526040518463ffffffff167c0100000000000000000000000000000000000000000000000000000000028152600401808473ffffffffffffffffffffffffffffffffffffffff1673ffffffffffffffffffffffffffffffffffffffff1681526020018373ffffffffffffffffffffffffffffffffffffffff1673ffffffffffffffffffffffffffffffffffffffff1681526020018281526020019350505050602060405180830381600087803b151561459957600080fd5b6102c65a03f115156145aa57600080fd5b5050506040518051905015156145bf57600080fd5b8060046000846000191660001916815260200190815260200160002060008201518160000160006101000a81548173ffffffffffffffffffffffffffffffffffffffff021916908373ffffffffffffffffffffffffffffffffffffffff160217905550602082015181600101908051906020019061463e9291906149d9565b506040820151816002015560608201518160030160006101000a81548160ff0219169083600181111561466d57fe5b02179055506080820151816004015590505081600560003373ffffffffffffffffffffffffffffffffffffffff1673ffffffffffffffffffffffffffffffffffffffff168152602001908152602001600020816000191690555081600019167f7ffc675d721b8768e035a323722842743bb523487b535906abc97e6b3e2095d060405160405180910390a281925050509392505050565b600080828481151561471257fe5b0490508091505092915050565b60008060008414156147345760009150614753565b828402905082848281151561474557fe5b0414151561474f57fe5b8091505b5092915050565b60006147688260095461471f565b9050919050565b61010060405190810160405280600073ffffffffffffffffffffffffffffffffffffffff1681526020016147a1614a82565b81526020016147ae614a82565b81526020016147bb614a82565b81526020016147c8614a82565b81526020016147d5614a82565b81526020016147e2614a82565b8152602001600081525090565b81548183558181151161481c5760080281600802836000526020600020918201910161481b9190614a96565b5b505050565b828054600181600116156101000203166002900490600052602060002090601f016020900481019282601f1061486257805160ff1916838001178555614890565b82800160010185558215614890579182015b8281111561488f578251825591602001919060010190614874565b5b50905061489d9190614b44565b5090565b8154818355818115116148c8578183600052602060002091820191016148c79190614b44565b5b505050565b610280604051908101604052806014905b60008152602001906001900390816148de5790505090565b602060405190810160405280600081525090565b602060405190810160405280600081525090565b60a060405190810160405280600073ffffffffffffffffffffffffffffffffffffffff16815260200161494f614b69565b8152602001600081526020016000600181111561496857fe5b8152602001600081525090565b60c060405190810160405280600073ffffffffffffffffffffffffffffffffffffffff168152602001600080191681526020016149b0614b69565b815260200160008019168152602001600060038111156149cc57fe5b8152602001600081525090565b828054828255906000526020600020908101928215614a15579160200282015b82811115614a145782518255916020019190600101906149f9565b5b509050614a229190614b44565b5090565b50805460018160011615610100020316600290046000825580601f10614a4c5750614a6b565b601f016020900490600052602060002090810190614a6a9190614b44565b5b50565b602060405190810160405280600081525090565b602060405190810160405280600081525090565b614b4191905b80821115614b3d57600080820160006101000a81549073ffffffffffffffffffffffffffffffffffffffff0219169055600182016000614adc9190614a26565b600282016000614aec9190614a26565b600382016000614afc9190614a26565b600482016000614b0c9190614a26565b600582016000614b1c9190614a26565b600682016000614b2c9190614a26565b600782016000905550600801614a9c565b5090565b90565b614b6691905b80821115614b62576000816000905550600101614b4a565b5090565b90565b6020604051908101604052806000815250905600a165627a7a72305820a9dba7f8318add6fd8eec2e3d4eeed72c94729bd374ab0101559d91729c7fbe30029",
  "source": "pragma solidity ^0.4.18;\n//pragma experimental ABIEncoderV2;\n\nimport './OpenDeviceRegistry.sol';\nimport './UVTChannels.sol';\nimport '../node_modules/zeppelin-solidity/contracts/math/SafeMath.sol';\nimport '../node_modules/zeppelin-solidity/contracts/token/ERC20.sol';\n\n\n/**\n * @title UVTCore\n * @author Carlos Beltran <imthatcarlos@gmail.com>\n *\n * @dev This contract manages the ODR, payment channels, and the invokation\n * of gateways when a user submits a search request. Certain functionality\n * is limited to the contract's owner, such as manually closing channels.\n * TODO: Contract is too large, gas exceeds the mainnet gasLimit\n * OpenDeviceRegistry could be deployed on its own\n */\ncontract UVTCore is OpenDeviceRegistry, UVTChannels {\n\n  //============================================================================\n  // EVENTS\n  //============================================================================\n\n  event SearchInitiated(address indexed owner, bytes32 id, bytes32 endpointId);\n  event InvokeGateway(uint indexed id, bytes32 endpointId, bytes32 requestId);\n  event SearchEndpointFound(bytes32 indexed id, uint gatewayId, uint time, string lat, string long);\n  event SearchCancelled(bytes32 indexed id, bool gatewaysPaid);\n  event SearchExpired(bytes32 indexed id);\n\n  event PurchasedUVT(address indexed account, uint amount);\n  event ReceivedFunds(address sender, uint value);\n\n  //============================================================================\n  // STORAGE\n  //============================================================================\n\n  enum SearchState { Searching, Found, Cancelled, Expired }\n\n  struct SearchRequest {\n    address owner;\n    bytes32 endpointId;\n    uint[] invokedGateways;\n    bytes32 channelId;\n    SearchState state;\n    uint expires;\n  }\n\n  mapping (bytes32 => SearchRequest) searchRequests;\n  mapping (address => bytes32) accountToRequestIds;\n\n  address uvtTokenAddress;\n\n  uint public GATEWAY_COST_UVT = 10;\n\n  //============================================================================\n  // MODIFIERS\n  //============================================================================\n\n  modifier validRequest(bytes32 id) {\n    require(searchRequests[id].owner != address(0));\n    _;\n  }\n\n  modifier notExpired(bytes32 id) {\n    require(searchRequests[id].expires > now);\n    _;\n  }\n\n  modifier onlyRequestOwner {\n    require(accountToRequestIds[msg.sender] != bytes32(0));\n    _;\n  }\n\n  /**\n   * The contract's constructor\n   * Upon initializing, the owner MUST send UVT to this contract in order to\n   * fund accounts when they would like to buy UVT with ETH.\n   *\n   * @param tokenAddress The address of the UVTToken contract\n   */\n  function UVTCore(address tokenAddress) public {\n    owner = msg.sender;\n    uvtTokenAddress = tokenAddress;\n  }\n\n  //============================================================================\n  // EXTERNAL FUNCTIONS\n  //============================================================================\n\n  /**\n   * Transfer UVT tokens to the account in exchange for ETH\n   * TODO: the exchange is 1-1 for demo purposes\n   */\n  function buyUVT(uint amount) external payable {\n    require(msg.value == amount);\n\n    ERC20 uvtToken = ERC20(uvtTokenAddress);\n    require(uvtToken.transfer(msg.sender, amount));\n    PurchasedUVT(msg.sender, amount);\n  }\n\n  /**\n   * Create a new search request. By now, the user has selected which gateways\n   * to invoke and has approved the fee.\n   * A channel is created between the user and the invoked gateways, depositing\n   * UVT tokens from user's account.\n   * Invoked gateways are notified of the request.\n   * The search is set to expire in 1 hour\n   *\n   * @param endpointId      The id of the endpoint gateways are to find\n   * @param gatewayIds The ids of gateways to be invoked\n   */\n  function createSearchRequest(bytes32 endpointId, uint[] gatewayIds)\n    external\n  {\n    // sanity checks\n    require(endpointId != bytes32(0));\n    require(gatewayIds.length != 0);\n\n    uint totalCost = _verifyPayment(gatewayIds.length);\n\n    // open the channel and fund it with the account's tokens\n    bytes32 channelId = _openChannel(gatewayIds, totalCost, ERC20(uvtTokenAddress));\n\n    // create the request\n    bytes32 id = keccak256(msg.sender, channelId, now);\n    SearchRequest memory request = SearchRequest({\n      owner: msg.sender,\n      endpointId: endpointId,\n      invokedGateways: gatewayIds,\n      channelId: channelId,\n      state: SearchState.Searching,\n      expires: (now + 1 hours)\n    });\n\n    // save to storage and lookup table\n    searchRequests[id] = request;\n    accountToRequestIds[msg.sender] = id;\n\n    // invoke gateways\n    SearchInitiated(msg.sender, id, endpointId);\n    for(uint i = 0; i < gatewayIds.length; i++) {\n      InvokeGateway(gatewayIds[i], endpointId, id);\n    }\n  }\n\n  /**\n   * Called from a gateway when it locates the missing item. Broadcasts an event\n   * for the endpoint's owner to acknowledge\n   *\n   * @param requestId   The id of the search request\n   * @param endpointSig [hash, r, s] Signature data provided by the missing item's LoRa\n   * transmitter proving that it was indeed found\n   * @param v           The \"v\" value of endpointSig\n   * @param lat         The latitude part of the endpoint's current location\n   * @param long        The longitude part of the endpoint's current location\n   */\n  function endpointFound(\n    bytes32 requestId,\n    bytes32[3] endpointSig,\n    uint8 v,\n    string lat,\n    string long\n  )\n    external\n    validRequest(requestId)\n    notExpired(requestId)\n    onlyGatewayOwner\n  {\n    uint gatewayId = ownerToGatewayIds[msg.sender];\n    SearchRequest storage request = searchRequests[requestId];\n    // verify the endpoint's signaure\n    _verifyEndpoint(requestId, request.endpointId, endpointSig, v);\n\n    // disburse the funds and close the channel\n    _disburseFunds(request.channelId, true, gatewayId, true);\n    _closeChannel(request.channelId);\n\n    // update search state\n    request.state = SearchState.Found;\n\n    // remove from lookup table\n    delete accountToRequestIds[msg.sender];\n\n    SearchEndpointFound(requestId, gatewayId, now, lat, long);\n  }\n\n  /**\n   * Called to check if the request has expired, and if so, update the state\n   * and close the channel.\n   * This is called by the software client after the search period - the\n   * invoked gateways should manage themselves\n   */\n  function searchExpired(bytes32 id)\n    external\n    validRequest(id)\n    onlyRequestOwner\n    returns (bool)\n  {\n    if (searchRequests[id].state == SearchState.Searching &&\n      searchRequests[id].expires < now)\n    {\n      // disburse the funds and close the channel\n      _disburseFunds(searchRequests[id].channelId, false, 0, true);\n      _closeChannel(searchRequests[id].channelId);\n\n      // update search state\n      searchRequests[id].state = SearchState.Expired;\n      SearchExpired(id);\n\n      // remove from lookup table\n      delete accountToRequestIds[msg.sender];\n\n      return true;\n    } else {\n      return false;\n    }\n  }\n\n  /**\n   * Cancels the search request. The account is given a grace period of\n   * 15 minutes where they cancel and be refunded their UVT tokens.\n   * This is called by the search request owner\n   */\n  function cancelSearch(bytes32 id)\n    external\n    validRequest(id)\n    notExpired(id)\n    onlyRequestOwner\n  {\n    // diff between expiry and now should be > 45 min for refund\n    bool shouldPayGateways;\n    if ((searchRequests[id].expires - now) > 45 minutes) {\n      shouldPayGateways = false;\n    } else {\n      shouldPayGateways = true;\n    }\n\n    // disburse the funds and close the channel\n    _disburseFunds(searchRequests[id].channelId, false, 0, shouldPayGateways);\n    _closeChannel(searchRequests[id].channelId);\n\n    // update search state\n    searchRequests[id].state = SearchState.Cancelled;\n\n    // remove from lookup table\n    delete accountToRequestIds[msg.sender];\n\n    SearchCancelled(id, shouldPayGateways);\n  }\n\n  /**\n   * Renews the search request with the same parameters\n   * Can only be called if the state is != Searching\n   * NOTE: only possible because we don't clear the request OR channels from storage...\n   * TODO: we should do this without an extra transaction, just update the channel's value\n   * and notify the gateways to extend the expiry\n   */\n  /* function renewSearch(bytes32 id)\n    external\n    validRequest(id)\n    onlyRequestOwner\n  {\n    SearchRequest storage request = searchRequests[id];\n\n    // can only renew an expired or cancelled request\n    require(request.state != SearchState.Searching);\n\n    uint[] memory gatewayIds = channels[request.channelId].gatewayIds;\n\n    // might not be necessary?\n    _verifyPayment(gatewayIds.length);\n\n    // open the channel and fund it with the account's tokens\n    _reopenChannel(request.channelId);\n    require(ERC20(uvtTokenAddress).transferFrom(\n      msg.sender,\n      address(this),\n      channels[request.channelId].deposit\n    ));\n\n    // opened with same number of gateways, so new cost is the same\n    channels[request.channelId].deposit = channels[request.channelId].deposit + channels[request.channelId].deposit;\n\n    // update search state & expire time\n    request.state = SearchState.Searching;\n    request.expires = now + 1 hours;\n\n    // re-add to lookup table\n    accountToRequestIds[msg.sender] = id;\n\n    // invoke gateways\n    SearchInitiated(msg.sender, id, request.endpointId);\n    for(uint i = 0; i < gatewayIds.length; i++) {\n      InvokeGateway(gatewayIds[i], request.endpointId, id);\n    }\n  } */\n\n  /**\n   * Returns the id of the owner's search request\n   * Can only be called by the owner of the request\n   */\n  function getSearchRequestId()\n    external\n    view\n    onlyRequestOwner\n    returns (bytes32 id)\n  {\n    return accountToRequestIds[msg.sender];\n  }\n\n  /**\n   * Returns all information for the owner's search request\n   * Can only be called by the owner of the request\n   */\n  function getSearchRequest()\n    external\n    view\n    onlyRequestOwner\n    returns (\n      address owner,\n      bytes32 endpointId,\n      uint[] invokedGateways,\n      bytes32 channelId,\n      SearchState state,\n      uint expires\n    )\n  {\n    SearchRequest memory request = searchRequests[accountToRequestIds[msg.sender]];\n\n    owner = request.owner;\n    endpointId = request.endpointId;\n    invokedGateways = request.invokedGateways;\n    channelId = request.channelId;\n    state = request.state;\n    expires = request.expires;\n  }\n\n  /**\n   * Returns the state of the owner's search request\n   * Can only be called by the owner of the request\n   */\n  function getSearchRequestStatus()\n    external\n    view\n    onlyRequestOwner\n    returns (SearchState state)\n  {\n    return searchRequests[accountToRequestIds[msg.sender]].state;\n  }\n\n  /**\n   * Returns all information for the given search request\n   * Can only be called by the contract owner\n   *\n   * @param id The SearchRequest id\n   */\n  function getSearchRequestById(bytes32 id)\n    external\n    view\n    onlyOwner\n    returns (\n      address owner,\n      bytes32 endpointId,\n      uint[] invokedGateways,\n      bytes32 channelId,\n      SearchState state,\n      uint expires\n    )\n  {\n    SearchRequest memory request = searchRequests[id];\n\n    owner = request.owner;\n    endpointId = request.endpointId;\n    invokedGateways = request.invokedGateways;\n    channelId = request.channelId;\n    state = request.state;\n    expires = request.expires;\n  }\n\n  function() external payable {\n    ReceivedFunds(msg.sender, msg.value);\n  }\n\n  function withdrawBalance() external onlyOwner {\n    owner.transfer(this.balance);\n  }\n\n  //============================================================================\n  // INTERNAL FUNCTIONS\n  //============================================================================\n\n  /*\n   * Disburse the channel's funds. If the gatewayIdFound param is set (> 0)\n   * that gateway receives 50% of all other payouts\n   *\n   * @param channelId         The channel id\n   * @param gatewayIdFound    The id of the gateway that located the endpoint.\n   * Set to -1 if no gateway found the endpoint\n   * @param shouldPayGateways Flag for whether the gateways are being paid out\n   */\n  function _disburseFunds(\n      bytes32 channelId,\n      bool endointFound,\n      uint gatewayIdFound,\n      bool shouldPayGateways\n  )\n    internal\n    returns (bool)\n  {\n    Channel storage channel = channels[channelId];\n    ERC20 uvtToken = ERC20(uvtTokenAddress);\n\n    // if user cancelled within grace period, they get refunded\n    if (shouldPayGateways) {\n      // in case they renew the search, paidOut is updated with what they've\n      // already paid\n      uint value = channel.deposit - channel.paidOut;\n\n      // what each gateway should get if evenly distributed\n      uint allPayout = SafeMath.div(value, channel.gatewayIds.length);\n\n      if (endointFound) {\n        // pay gatewayIdFound 20% from everyone else's\n        uint othersPayout = allPayout - SafeMath.div(allPayout, 5);\n        uint finderPayout = SafeMath.mul(\n          SafeMath.div(allPayout, 5),\n          (channel.gatewayIds.length - 1)\n        ) + allPayout;\n\n        for (uint i = 0; i < channel.gatewayIds.length; i++) {\n          if (channel.gatewayIds[i] == gatewayIdFound) {\n            if (!uvtToken.transfer(gateways[channel.gatewayIds[i]].owner, finderPayout)) {\n              return false;\n            }\n          } else {\n            if (!uvtToken.transfer(gateways[channel.gatewayIds[i]].owner, othersPayout)) {\n              return false;\n            }\n          }\n        }\n      } else {\n        // pay everyone equally\n        for (uint j = 0; j < channel.gatewayIds.length; j++) {\n          if (!uvtToken.transfer(gateways[channel.gatewayIds[j]].owner, allPayout)) {\n            return false;\n          }\n        }\n      }\n\n      /* TODO: a require() for the payouts being equal to the value */\n\n      channel.paidOut = channel.deposit;\n    } else {\n      if (!uvtToken.transfer(channel.sender, channel.deposit)) {\n        return false;\n      }\n    }\n\n    return true;\n  }\n\n  /**\n   * Verify that the account has approved the fee\n   *\n   * @param gatewaysCount The number of gateways the account is paying for\n   */\n  function _verifyPayment(uint gatewaysCount) internal view returns (uint) {\n    ERC20 uvtToken = ERC20(uvtTokenAddress);\n    uint totalCost = _searchCost(gatewaysCount);\n\n    // make sure they've approved the fee\n    /* TODO: might not be necessary after first approval */\n    require(uvtToken.allowance(msg.sender, address(this)) >= totalCost);\n\n    return totalCost;\n  }\n\n  /**\n   * The total cost (in UVT) for the search - in this case, the number of\n   * gateways to be invoked\n   *\n   * @param gatewaysCount The number of gateways the account is paying for\n   */\n  function _searchCost(uint gatewaysCount) internal view returns (uint) {\n    return SafeMath.mul(gatewaysCount, GATEWAY_COST_UVT);\n  }\n\n  /**\n   * Verify that the endpoint is valid and signed by the account that initiated\n   * the request.\n   *\n   * @param requestId   Id of the search request\n   * @param h           Data for the endpoint's signed data [hash, r, s]\n   * @param v           The \"v\" value of the endpoint signaure\n   */\n  function _verifyEndpoint(bytes32 requestId, bytes32 endpointId, bytes32[3] h, uint8 v)\n    internal\n    view\n  {\n    // testrpc and parity adds prefix when signing\n    // https://github.com/ethereum/wiki/wiki/JSON-RPC#eth_sign\n    bytes memory prefix = \"\\x19Ethereum Signed Message:\\n32\";\n    bytes32 prefixedHash = keccak256(prefix, h[0]);\n\n    address signer = ecrecover(prefixedHash, v, h[1], h[2]);\n    require(signer == searchRequests[requestId].owner);\n\n    /* TODO: verify the endpointID is the same too */\n  }\n}\n",
  "sourcePath": "/Users/carlos/Documents/github/uvt-network/contracts/UVTCore.sol",
  "compiler": {
    "name": "solc",
    "version": "0.4.18+commit.9cf6e910.Emscripten.clang"
  },
  "schemaVersion": "1.0.1",
  "updatedAt": "2018-02-02T19:22:10.028Z"
}