{
  "contractName": "UVTCore",
  "abi": [
    {
      "constant": true,
      "inputs": [],
      "name": "getSearchRequestStatus",
      "outputs": [
        {
          "name": "state",
          "type": "uint8"
        }
      ],
      "payable": false,
      "stateMutability": "view",
      "type": "function"
    },
    {
      "constant": false,
      "inputs": [
        {
          "name": "ip",
          "type": "string"
        },
        {
          "name": "lat",
          "type": "string"
        },
        {
          "name": "long",
          "type": "string"
        },
        {
          "name": "city",
          "type": "string"
        },
        {
          "name": "area",
          "type": "string"
        },
        {
          "name": "wirelessData",
          "type": "string"
        }
      ],
      "name": "addGateway",
      "outputs": [],
      "payable": false,
      "stateMutability": "nonpayable",
      "type": "function"
    },
    {
      "constant": true,
      "inputs": [
        {
          "name": "city",
          "type": "string"
        },
        {
          "name": "area",
          "type": "string"
        }
      ],
      "name": "getGatewaysInRange",
      "outputs": [
        {
          "name": "",
          "type": "uint256[20]"
        }
      ],
      "payable": false,
      "stateMutability": "view",
      "type": "function"
    },
    {
      "constant": true,
      "inputs": [],
      "name": "getMyGatewayId",
      "outputs": [
        {
          "name": "",
          "type": "uint256"
        }
      ],
      "payable": false,
      "stateMutability": "view",
      "type": "function"
    },
    {
      "constant": true,
      "inputs": [
        {
          "name": "id",
          "type": "uint256"
        }
      ],
      "name": "getGateway",
      "outputs": [
        {
          "name": "owner",
          "type": "address"
        },
        {
          "name": "ip",
          "type": "string"
        },
        {
          "name": "lat",
          "type": "string"
        },
        {
          "name": "long",
          "type": "string"
        },
        {
          "name": "city",
          "type": "string"
        },
        {
          "name": "area",
          "type": "string"
        },
        {
          "name": "wirelessData",
          "type": "string"
        }
      ],
      "payable": false,
      "stateMutability": "view",
      "type": "function"
    },
    {
      "constant": false,
      "inputs": [
        {
          "name": "requestId",
          "type": "bytes32"
        },
        {
          "name": "endpointSig",
          "type": "bytes32[3]"
        },
        {
          "name": "v",
          "type": "uint8"
        },
        {
          "name": "lat",
          "type": "string"
        },
        {
          "name": "long",
          "type": "string"
        }
      ],
      "name": "endpointFound",
      "outputs": [],
      "payable": false,
      "stateMutability": "nonpayable",
      "type": "function"
    },
    {
      "constant": false,
      "inputs": [],
      "name": "withdrawBalance",
      "outputs": [],
      "payable": false,
      "stateMutability": "nonpayable",
      "type": "function"
    },
    {
      "constant": false,
      "inputs": [
        {
          "name": "amount",
          "type": "uint256"
        }
      ],
      "name": "buyUVT",
      "outputs": [],
      "payable": true,
      "stateMutability": "payable",
      "type": "function"
    },
    {
      "constant": true,
      "inputs": [],
      "name": "getSearchRequestId",
      "outputs": [
        {
          "name": "id",
          "type": "bytes32"
        }
      ],
      "payable": false,
      "stateMutability": "view",
      "type": "function"
    },
    {
      "constant": true,
      "inputs": [
        {
          "name": "id",
          "type": "bytes32"
        }
      ],
      "name": "getChannel",
      "outputs": [
        {
          "name": "sender",
          "type": "address"
        },
        {
          "name": "gatewayIds",
          "type": "uint256[]"
        },
        {
          "name": "deposit",
          "type": "uint256"
        },
        {
          "name": "state",
          "type": "uint8"
        },
        {
          "name": "paidOut",
          "type": "uint256"
        }
      ],
      "payable": false,
      "stateMutability": "view",
      "type": "function"
    },
    {
      "constant": true,
      "inputs": [],
      "name": "owner",
      "outputs": [
        {
          "name": "",
          "type": "address"
        }
      ],
      "payable": false,
      "stateMutability": "view",
      "type": "function"
    },
    {
      "constant": true,
      "inputs": [
        {
          "name": "id",
          "type": "bytes32"
        }
      ],
      "name": "getSearchRequestById",
      "outputs": [
        {
          "name": "owner",
          "type": "address"
        },
        {
          "name": "endpointId",
          "type": "bytes32"
        },
        {
          "name": "invokedGateways",
          "type": "uint256[]"
        },
        {
          "name": "channelId",
          "type": "bytes32"
        },
        {
          "name": "state",
          "type": "uint8"
        },
        {
          "name": "expires",
          "type": "uint256"
        }
      ],
      "payable": false,
      "stateMutability": "view",
      "type": "function"
    },
    {
      "constant": false,
      "inputs": [
        {
          "name": "endpointId",
          "type": "bytes32"
        },
        {
          "name": "gatewayIds",
          "type": "uint256[]"
        }
      ],
      "name": "createSearchRequest",
      "outputs": [],
      "payable": false,
      "stateMutability": "nonpayable",
      "type": "function"
    },
    {
      "constant": false,
      "inputs": [
        {
          "name": "id",
          "type": "bytes32"
        }
      ],
      "name": "searchExpired",
      "outputs": [
        {
          "name": "",
          "type": "bool"
        }
      ],
      "payable": false,
      "stateMutability": "nonpayable",
      "type": "function"
    },
    {
      "constant": true,
      "inputs": [],
      "name": "getMyGateway",
      "outputs": [
        {
          "name": "id",
          "type": "uint256"
        },
        {
          "name": "ip",
          "type": "string"
        },
        {
          "name": "lat",
          "type": "string"
        },
        {
          "name": "long",
          "type": "string"
        },
        {
          "name": "city",
          "type": "string"
        },
        {
          "name": "area",
          "type": "string"
        },
        {
          "name": "wirelessData",
          "type": "string"
        }
      ],
      "payable": false,
      "stateMutability": "view",
      "type": "function"
    },
    {
      "constant": true,
      "inputs": [],
      "name": "getSearchRequest",
      "outputs": [
        {
          "name": "owner",
          "type": "address"
        },
        {
          "name": "endpointId",
          "type": "bytes32"
        },
        {
          "name": "invokedGateways",
          "type": "uint256[]"
        },
        {
          "name": "channelId",
          "type": "bytes32"
        },
        {
          "name": "state",
          "type": "uint8"
        },
        {
          "name": "expires",
          "type": "uint256"
        }
      ],
      "payable": false,
      "stateMutability": "view",
      "type": "function"
    },
    {
      "constant": false,
      "inputs": [
        {
          "name": "id",
          "type": "bytes32"
        }
      ],
      "name": "cancelSearch",
      "outputs": [],
      "payable": false,
      "stateMutability": "nonpayable",
      "type": "function"
    },
    {
      "constant": true,
      "inputs": [
        {
          "name": "id",
          "type": "bytes32"
        }
      ],
      "name": "getChannelState",
      "outputs": [
        {
          "name": "",
          "type": "uint8"
        }
      ],
      "payable": false,
      "stateMutability": "view",
      "type": "function"
    },
    {
      "constant": false,
      "inputs": [
        {
          "name": "id",
          "type": "uint256"
        }
      ],
      "name": "removeGateway",
      "outputs": [],
      "payable": false,
      "stateMutability": "nonpayable",
      "type": "function"
    },
    {
      "constant": true,
      "inputs": [
        {
          "name": "sender",
          "type": "address"
        }
      ],
      "name": "getChannelId",
      "outputs": [
        {
          "name": "",
          "type": "bytes32"
        }
      ],
      "payable": false,
      "stateMutability": "view",
      "type": "function"
    },
    {
      "constant": true,
      "inputs": [],
      "name": "getGatewaysCount",
      "outputs": [
        {
          "name": "",
          "type": "uint256"
        }
      ],
      "payable": false,
      "stateMutability": "view",
      "type": "function"
    },
    {
      "constant": false,
      "inputs": [
        {
          "name": "newOwner",
          "type": "address"
        }
      ],
      "name": "transferOwnership",
      "outputs": [],
      "payable": false,
      "stateMutability": "nonpayable",
      "type": "function"
    },
    {
      "constant": true,
      "inputs": [
        {
          "name": "id",
          "type": "uint256"
        }
      ],
      "name": "getGatewayCoordinates",
      "outputs": [
        {
          "name": "lat",
          "type": "string"
        },
        {
          "name": "long",
          "type": "string"
        }
      ],
      "payable": false,
      "stateMutability": "view",
      "type": "function"
    },
    {
      "constant": true,
      "inputs": [],
      "name": "GATEWAY_COST_UVT",
      "outputs": [
        {
          "name": "",
          "type": "uint256"
        }
      ],
      "payable": false,
      "stateMutability": "view",
      "type": "function"
    },
    {
      "inputs": [
        {
          "name": "tokenAddress",
          "type": "address"
        }
      ],
      "payable": false,
      "stateMutability": "nonpayable",
      "type": "constructor"
    },
    {
      "payable": true,
      "stateMutability": "payable",
      "type": "fallback"
    },
    {
      "anonymous": false,
      "inputs": [
        {
          "indexed": true,
          "name": "owner",
          "type": "address"
        },
        {
          "indexed": false,
          "name": "id",
          "type": "bytes32"
        },
        {
          "indexed": false,
          "name": "endpointId",
          "type": "bytes32"
        }
      ],
      "name": "SearchInitiated",
      "type": "event"
    },
    {
      "anonymous": false,
      "inputs": [
        {
          "indexed": true,
          "name": "id",
          "type": "uint256"
        },
        {
          "indexed": false,
          "name": "endpointId",
          "type": "bytes32"
        },
        {
          "indexed": false,
          "name": "requestId",
          "type": "bytes32"
        }
      ],
      "name": "InvokeGateway",
      "type": "event"
    },
    {
      "anonymous": false,
      "inputs": [
        {
          "indexed": true,
          "name": "id",
          "type": "bytes32"
        },
        {
          "indexed": false,
          "name": "gatewayId",
          "type": "uint256"
        },
        {
          "indexed": false,
          "name": "time",
          "type": "uint256"
        },
        {
          "indexed": false,
          "name": "lat",
          "type": "string"
        },
        {
          "indexed": false,
          "name": "long",
          "type": "string"
        }
      ],
      "name": "SearchEndpointFound",
      "type": "event"
    },
    {
      "anonymous": false,
      "inputs": [
        {
          "indexed": true,
          "name": "id",
          "type": "bytes32"
        },
        {
          "indexed": false,
          "name": "gatewaysPaid",
          "type": "bool"
        }
      ],
      "name": "SearchCancelled",
      "type": "event"
    },
    {
      "anonymous": false,
      "inputs": [
        {
          "indexed": true,
          "name": "id",
          "type": "bytes32"
        }
      ],
      "name": "SearchExpired",
      "type": "event"
    },
    {
      "anonymous": false,
      "inputs": [
        {
          "indexed": true,
          "name": "account",
          "type": "address"
        },
        {
          "indexed": false,
          "name": "amount",
          "type": "uint256"
        }
      ],
      "name": "PurchasedUVT",
      "type": "event"
    },
    {
      "anonymous": false,
      "inputs": [
        {
          "indexed": false,
          "name": "sender",
          "type": "address"
        },
        {
          "indexed": false,
          "name": "value",
          "type": "uint256"
        }
      ],
      "name": "ReceivedFunds",
      "type": "event"
    },
    {
      "anonymous": false,
      "inputs": [
        {
          "indexed": true,
          "name": "id",
          "type": "bytes32"
        }
      ],
      "name": "ChannelOpened",
      "type": "event"
    },
    {
      "anonymous": false,
      "inputs": [
        {
          "indexed": true,
          "name": "id",
          "type": "bytes32"
        }
      ],
      "name": "ChannelClosed",
      "type": "event"
    },
    {
      "anonymous": false,
      "inputs": [
        {
          "indexed": false,
          "name": "id",
          "type": "uint256"
        },
        {
          "indexed": false,
          "name": "by",
          "type": "address"
        }
      ],
      "name": "GatewayAdded",
      "type": "event"
    },
    {
      "anonymous": false,
      "inputs": [
        {
          "indexed": false,
          "name": "ip",
          "type": "string"
        },
        {
          "indexed": false,
          "name": "by",
          "type": "address"
        }
      ],
      "name": "GatewayRemoved",
      "type": "event"
    },
    {
      "anonymous": false,
      "inputs": [
        {
          "indexed": true,
          "name": "previousOwner",
          "type": "address"
        },
        {
          "indexed": true,
          "name": "newOwner",
          "type": "address"
        }
      ],
      "name": "OwnershipTransferred",
      "type": "event"
    }
  ],
  "bytecode": "0x6060604052600a600955341561001457600080fd5b60405160208061556683398101604052808051906020019091905050336000806101000a81548173ffffffffffffffffffffffffffffffffffffffff021916908373ffffffffffffffffffffffffffffffffffffffff160217905550336000806101000a81548173ffffffffffffffffffffffffffffffffffffffff021916908373ffffffffffffffffffffffffffffffffffffffff16021790555080600860006101000a81548173ffffffffffffffffffffffffffffffffffffffff021916908373ffffffffffffffffffffffffffffffffffffffff16021790555050615465806101016000396000f30060606040526004361061013e576000357c0100000000000000000000000000000000000000000000000000000000900463ffffffff1680630eb86c42146101ab5780631c398289146101e25780631c4c3f7e14610274578063200f83ec146102f257806330cc0e0c1461031b5780634143aef0146106065780635fd8c7101461066857806365e0c5fa1461067d5780638297c1d614610695578063831c2b82146106c65780638da5cb5b14610798578063992a6bc3146107ed578063a1d88770146108d6578063a500fd2014610911578063ba6ea59f14610950578063bf664aeb14610c01578063c3cc87f314610cd8578063d18da8b114610cff578063e5dac70314610d48578063eb295b2714610d6b578063ec97d3d514610dc0578063f2fde38b14610de9578063fbe669d514610e22578063fdc2263614610f2a575b7f5741979df5f3e491501da74d3b0a83dd2496ab1f34929865b3e190a8ad75859a3334604051808373ffffffffffffffffffffffffffffffffffffffff1673ffffffffffffffffffffffffffffffffffffffff1681526020018281526020019250505060405180910390a1005b34156101b657600080fd5b6101be610f53565b604051808260038111156101ce57fe5b60ff16815260200191505060405180910390f35b34156101ed57600080fd5b610272600480803590602001908201803590602001919091929080359060200190820180359060200191909192908035906020019082018035906020019190919290803590602001908201803590602001919091929080359060200190820180359060200191909192908035906020019082018035906020019190919290505061101e565b005b341561027f57600080fd5b6102b46004808035906020019082018035906020019190919290803590602001908201803590602001919091929050506114b1565b6040518082601460200280838360005b838110156102df5780820151818401526020810190506102c4565b5050505090500191505060405180910390f35b34156102fd57600080fd5b6103056115bc565b6040518082815260200191505060405180910390f35b341561032657600080fd5b61033c6004808035906020019091905050611682565b604051808873ffffffffffffffffffffffffffffffffffffffff1673ffffffffffffffffffffffffffffffffffffffff16815260200180602001806020018060200180602001806020018060200187810387528d818151815260200191508051906020019080838360005b838110156103c25780820151818401526020810190506103a7565b50505050905090810190601f1680156103ef5780820380516001836020036101000a031916815260200191505b5087810386528c818151815260200191508051906020019080838360005b8381101561042857808201518184015260208101905061040d565b50505050905090810190601f1680156104555780820380516001836020036101000a031916815260200191505b5087810385528b818151815260200191508051906020019080838360005b8381101561048e578082015181840152602081019050610473565b50505050905090810190601f1680156104bb5780820380516001836020036101000a031916815260200191505b5087810384528a818151815260200191508051906020019080838360005b838110156104f45780820151818401526020810190506104d9565b50505050905090810190601f1680156105215780820380516001836020036101000a031916815260200191505b50878103835289818151815260200191508051906020019080838360005b8381101561055a57808201518184015260208101905061053f565b50505050905090810190601f1680156105875780820380516001836020036101000a031916815260200191505b50878103825288818151815260200191508051906020019080838360005b838110156105c05780820151818401526020810190506105a5565b50505050905090810190601f1680156105ed5780820380516001836020036101000a031916815260200191505b509d505050505050505050505050505060405180910390f35b341561061157600080fd5b6106666004808035600019169060200190919080606001909190803560ff1690602001909190803590602001908201803590602001919091929080359060200190820180359060200191909192905050611c2a565b005b341561067357600080fd5b61067b611f41565b005b6106936004808035906020019091905050612016565b005b34156106a057600080fd5b6106a861216e565b60405180826000191660001916815260200191505060405180910390f35b34156106d157600080fd5b6106eb60048080356000191690602001909190505061220e565b604051808673ffffffffffffffffffffffffffffffffffffffff1673ffffffffffffffffffffffffffffffffffffffff1681526020018060200185815260200184600181111561073757fe5b60ff168152602001838152602001828103825286818151815260200191508051906020019060200280838360005b83811015610780578082015181840152602081019050610765565b50505050905001965050505050505060405180910390f35b34156107a357600080fd5b6107ab61239a565b604051808273ffffffffffffffffffffffffffffffffffffffff1673ffffffffffffffffffffffffffffffffffffffff16815260200191505060405180910390f35b34156107f857600080fd5b6108126004808035600019169060200190919050506123bf565b604051808773ffffffffffffffffffffffffffffffffffffffff1673ffffffffffffffffffffffffffffffffffffffff168152602001866000191660001916815260200180602001856000191660001916815260200184600381111561087457fe5b60ff168152602001838152602001828103825286818151815260200191508051906020019060200280838360005b838110156108bd5780820151818401526020810190506108a2565b5050505090500197505050505050505060405180910390f35b34156108e157600080fd5b61090f6004808035600019169060200190919080359060200190820180359060200191909192905050612598565b005b341561091c57600080fd5b610936600480803560001916906020019091905050612947565b604051808215151515815260200191505060405180910390f35b341561095b57600080fd5b610963612bae565b6040518088815260200180602001806020018060200180602001806020018060200187810387528d818151815260200191508051906020019080838360005b838110156109bd5780820151818401526020810190506109a2565b50505050905090810190601f1680156109ea5780820380516001836020036101000a031916815260200191505b5087810386528c818151815260200191508051906020019080838360005b83811015610a23578082015181840152602081019050610a08565b50505050905090810190601f168015610a505780820380516001836020036101000a031916815260200191505b5087810385528b818151815260200191508051906020019080838360005b83811015610a89578082015181840152602081019050610a6e565b50505050905090810190601f168015610ab65780820380516001836020036101000a031916815260200191505b5087810384528a818151815260200191508051906020019080838360005b83811015610aef578082015181840152602081019050610ad4565b50505050905090810190601f168015610b1c5780820380516001836020036101000a031916815260200191505b50878103835289818151815260200191508051906020019080838360005b83811015610b55578082015181840152602081019050610b3a565b50505050905090810190601f168015610b825780820380516001836020036101000a031916815260200191505b50878103825288818151815260200191508051906020019080838360005b83811015610bbb578082015181840152602081019050610ba0565b50505050905090810190601f168015610be85780820380516001836020036101000a031916815260200191505b509d505050505050505050505050505060405180910390f35b3415610c0c57600080fd5b610c146131ae565b604051808773ffffffffffffffffffffffffffffffffffffffff1673ffffffffffffffffffffffffffffffffffffffff1681526020018660001916600019168152602001806020018560001916600019168152602001846003811115610c7657fe5b60ff168152602001838152602001828103825286818151815260200191508051906020019060200280838360005b83811015610cbf578082015181840152602081019050610ca4565b5050505090500197505050505050505060405180910390f35b3415610ce357600080fd5b610cfd6004808035600019169060200190919050506133c4565b005b3415610d0a57600080fd5b610d2460048080356000191690602001909190505061361d565b60405180826001811115610d3457fe5b60ff16815260200191505060405180910390f35b3415610d5357600080fd5b610d696004808035906020019091905050613682565b005b3415610d7657600080fd5b610da2600480803573ffffffffffffffffffffffffffffffffffffffff16906020019091905050613e2e565b60405180826000191660001916815260200191505060405180910390f35b3415610dcb57600080fd5b610dd3613e77565b6040518082815260200191505060405180910390f35b3415610df457600080fd5b610e20600480803573ffffffffffffffffffffffffffffffffffffffff16906020019091905050613edf565b005b3415610e2d57600080fd5b610e436004808035906020019091905050614034565b604051808060200180602001838103835285818151815260200191508051906020019080838360005b83811015610e87578082015181840152602081019050610e6c565b50505050905090810190601f168015610eb45780820380516001836020036101000a031916815260200191505b50838103825284818151815260200191508051906020019080838360005b83811015610eed578082015181840152602081019050610ed2565b50505050905090810190601f168015610f1a5780820380516001836020036101000a031916815260200191505b5094505050505060405180910390f35b3415610f3557600080fd5b610f3d61423d565b6040518082815260200191505060405180910390f35b60008060010260001916600760003373ffffffffffffffffffffffffffffffffffffffff1673ffffffffffffffffffffffffffffffffffffffff168152602001908152602001600020546000191614151515610fae57600080fd5b60066000600760003373ffffffffffffffffffffffffffffffffffffffff1673ffffffffffffffffffffffffffffffffffffffff168152602001908152602001600020546000191660001916815260200190815260200160002060040160009054906101000a900460ff16905090565b61102661502b565b600080600260003373ffffffffffffffffffffffffffffffffffffffff1673ffffffffffffffffffffffffffffffffffffffff1681526020019081526020016000205414151561107557600080fd5b60008e8e90501415151561108857600080fd5b60008c8c90501415151561109b57600080fd5b60008a8a9050141515156110ae57600080fd5b610100604051908101604052803373ffffffffffffffffffffffffffffffffffffffff1681526020018f8f8080601f01602080910402602001604051908101604052809392919081815260200183838082843782019150505050505081526020018d8d8080601f01602080910402602001604051908101604052809392919081815260200183838082843782019150505050505081526020018b8b8080601f016020809104026020016040519081016040528093929190818152602001838380828437820191505050505050815260200189898080601f016020809104026020016040519081016040528093929190818152602001838380828437820191505050505050815260200187878080601f016020809104026020016040519081016040528093929190818152602001838380828437820191505050505050815260200185858080601f016020809104026020016040519081016040528093929190818152602001838380828437820191505050505050815260200160008152509150600180805480600101828161124391906150ab565b9160005260206000209060080201600085909190915060008201518160000160006101000a81548173ffffffffffffffffffffffffffffffffffffffff021916908373ffffffffffffffffffffffffffffffffffffffff16021790555060208201518160010190805190602001906112bc9291906150dd565b5060408201518160020190805190602001906112d99291906150dd565b5060608201518160030190805190602001906112f69291906150dd565b5060808201518160040190805190602001906113139291906150dd565b5060a08201518160050190805190602001906113309291906150dd565b5060c082015181600601908051906020019061134d9291906150dd565b5060e08201518160070155505003905080600260003373ffffffffffffffffffffffffffffffffffffffff1673ffffffffffffffffffffffffffffffffffffffff16815260200190815260200160002081905550600160038989604051808383808284378201915050925050509081526020016040518091039020878760405180838380828437820191505092505050908152602001604051809103902080548060010182816113fd919061515d565b91600052602060002090016000849091909150550360018281548110151561142157fe5b9060005260206000209060080201600701819055507fa22c26e0a527742ea27221a5cc724d945aa88edbf15a26013bf34c6d56566c018133604051808381526020018273ffffffffffffffffffffffffffffffffffffffff1673ffffffffffffffffffffffffffffffffffffffff1681526020019250505060405180910390a15050505050505050505050505050565b6114b9615189565b6114c16151b2565b6114c9615189565b600060038888604051808383808284378201915050925050509081526020016040518091039020868660405180838380828437820191505092505050908152602001604051809103902080548060200260200160405190810160405280929190818152602001828054801561155d57602002820191906000526020600020905b815481526020019060010190808311611549575b50505050509250600090505b82518110156115ae57828181518110151561158057fe5b90602001906020020151828260148110151561159857fe5b6020020181815250508080600101915050611569565b819350505050949350505050565b600080600260003373ffffffffffffffffffffffffffffffffffffffff1673ffffffffffffffffffffffffffffffffffffffff1681526020019081526020016000205490503373ffffffffffffffffffffffffffffffffffffffff1660018281548110151561162757fe5b906000526020600020906008020160000160009054906101000a900473ffffffffffffffffffffffffffffffffffffffff1673ffffffffffffffffffffffffffffffffffffffff1614151561167b57600080fd5b8091505090565b600061168c6151c6565b6116946151c6565b61169c6151c6565b6116a46151c6565b6116ac6151c6565b6116b46151c6565b6116bc61502b565b6000809054906101000a900473ffffffffffffffffffffffffffffffffffffffff1673ffffffffffffffffffffffffffffffffffffffff163373ffffffffffffffffffffffffffffffffffffffff1614151561171757600080fd5b88600073ffffffffffffffffffffffffffffffffffffffff1660018281548110151561173f57fe5b906000526020600020906008020160000160009054906101000a900473ffffffffffffffffffffffffffffffffffffffff1673ffffffffffffffffffffffffffffffffffffffff161415151561179457600080fd5b60018a8154811015156117a357fe5b906000526020600020906008020161010060405190810160405290816000820160009054906101000a900473ffffffffffffffffffffffffffffffffffffffff1673ffffffffffffffffffffffffffffffffffffffff1673ffffffffffffffffffffffffffffffffffffffff168152602001600182018054600181600116156101000203166002900480601f0160208091040260200160405190810160405280929190818152602001828054600181600116156101000203166002900480156118ad5780601f10611882576101008083540402835291602001916118ad565b820191906000526020600020905b81548152906001019060200180831161189057829003601f168201915b50505050508152602001600282018054600181600116156101000203166002900480601f01602080910402602001604051908101604052809291908181526020018280546001816001161561010002031660029004801561194f5780601f106119245761010080835404028352916020019161194f565b820191906000526020600020905b81548152906001019060200180831161193257829003601f168201915b50505050508152602001600382018054600181600116156101000203166002900480601f0160208091040260200160405190810160405280929190818152602001828054600181600116156101000203166002900480156119f15780601f106119c6576101008083540402835291602001916119f1565b820191906000526020600020905b8154815290600101906020018083116119d457829003601f168201915b50505050508152602001600482018054600181600116156101000203166002900480601f016020809104026020016040519081016040528092919081815260200182805460018160011615610100020316600290048015611a935780601f10611a6857610100808354040283529160200191611a93565b820191906000526020600020905b815481529060010190602001808311611a7657829003601f168201915b50505050508152602001600582018054600181600116156101000203166002900480601f016020809104026020016040519081016040528092919081815260200182805460018160011615610100020316600290048015611b355780601f10611b0a57610100808354040283529160200191611b35565b820191906000526020600020905b815481529060010190602001808311611b1857829003601f168201915b50505050508152602001600682018054600181600116156101000203166002900480601f016020809104026020016040519081016040528092919081815260200182805460018160011615610100020316600290048015611bd75780601f10611bac57610100808354040283529160200191611bd7565b820191906000526020600020905b815481529060010190602001808311611bba57829003601f168201915b50505050508152602001600782015481525050915081600001519850816020015197508160400151965081606001519550816080015194508160a0015193508160c0015192505050919395979092949650565b60008088600073ffffffffffffffffffffffffffffffffffffffff1660066000836000191660001916815260200190815260200160002060000160009054906101000a900473ffffffffffffffffffffffffffffffffffffffff1673ffffffffffffffffffffffffffffffffffffffff1614151515611ca857600080fd5b894260066000836000191660001916815260200190815260200160002060050154111515611cd557600080fd5b3373ffffffffffffffffffffffffffffffffffffffff166001600260003373ffffffffffffffffffffffffffffffffffffffff1673ffffffffffffffffffffffffffffffffffffffff16815260200190815260200160002054815481101515611d3a57fe5b906000526020600020906008020160000160009054906101000a900473ffffffffffffffffffffffffffffffffffffffff1673ffffffffffffffffffffffffffffffffffffffff16141515611d8e57600080fd5b600260003373ffffffffffffffffffffffffffffffffffffffff1673ffffffffffffffffffffffffffffffffffffffff168152602001908152602001600020549350600660008c600019166000191681526020019081526020016000209250611e228b84600101548c600380602002604051908101604052809291908260036020028082843782019150505050508c614243565b611e348360030154600186600161443e565b50611e428360030154614a15565b5060018360040160006101000a81548160ff02191690836003811115611e6457fe5b0217905550600760003373ffffffffffffffffffffffffffffffffffffffff1673ffffffffffffffffffffffffffffffffffffffff168152602001908152602001600020600090558a600019167f251c0e6973c1af719986613a7fb64206214a19eeddd90b6f1fad5a93b423fba785428b8b8b8b60405180878152602001868152602001806020018060200183810383528787828181526020019250808284378201915050838103825285858281815260200192508082843782019150509850505050505050505060405180910390a25050505050505050505050565b6000809054906101000a900473ffffffffffffffffffffffffffffffffffffffff1673ffffffffffffffffffffffffffffffffffffffff163373ffffffffffffffffffffffffffffffffffffffff16141515611f9c57600080fd5b6000809054906101000a900473ffffffffffffffffffffffffffffffffffffffff1673ffffffffffffffffffffffffffffffffffffffff166108fc3073ffffffffffffffffffffffffffffffffffffffff16319081150290604051600060405180830381858888f19350505050151561201457600080fd5b565b6000813414151561202657600080fd5b600860009054906101000a900473ffffffffffffffffffffffffffffffffffffffff1690508073ffffffffffffffffffffffffffffffffffffffff1663a9059cbb33846000604051602001526040518363ffffffff167c0100000000000000000000000000000000000000000000000000000000028152600401808373ffffffffffffffffffffffffffffffffffffffff1673ffffffffffffffffffffffffffffffffffffffff16815260200182815260200192505050602060405180830381600087803b15156120f657600080fd5b6102c65a03f1151561210757600080fd5b50505060405180519050151561211c57600080fd5b3373ffffffffffffffffffffffffffffffffffffffff167f0f6830e83634599a8b9cb956c7162a03638744c637464b528f7a86fe1250f866836040518082815260200191505060405180910390a25050565b60008060010260001916600760003373ffffffffffffffffffffffffffffffffffffffff1673ffffffffffffffffffffffffffffffffffffffff1681526020019081526020016000205460001916141515156121c957600080fd5b600760003373ffffffffffffffffffffffffffffffffffffffff1673ffffffffffffffffffffffffffffffffffffffff16815260200190815260200160002054905090565b60006122186151b2565b60008060006122256151da565b866000600460008360001916600019168152602001908152602001600020600201541415151561225457600080fd5b60046000896000191660001916815260200190815260200160002060a060405190810160405290816000820160009054906101000a900473ffffffffffffffffffffffffffffffffffffffff1673ffffffffffffffffffffffffffffffffffffffff1673ffffffffffffffffffffffffffffffffffffffff1681526020016001820180548060200260200160405190810160405280929190818152602001828054801561232057602002820191906000526020600020905b81548152602001906001019080831161230c575b50505050508152602001600282015481526020016003820160009054906101000a900460ff16600181111561235157fe5b600181111561235c57fe5b815260200160048201548152505091508160000151965081602001519550816040015194508160600151935081608001519250505091939590929450565b6000809054906101000a900473ffffffffffffffffffffffffffffffffffffffff1681565b6000806123ca6151b2565b60008060006123d7615231565b6000809054906101000a900473ffffffffffffffffffffffffffffffffffffffff1673ffffffffffffffffffffffffffffffffffffffff163373ffffffffffffffffffffffffffffffffffffffff1614151561243257600080fd5b60066000896000191660001916815260200190815260200160002060c060405190810160405290816000820160009054906101000a900473ffffffffffffffffffffffffffffffffffffffff1673ffffffffffffffffffffffffffffffffffffffff1673ffffffffffffffffffffffffffffffffffffffff1681526020016001820154600019166000191681526020016002820180548060200260200160405190810160405280929190818152602001828054801561251057602002820191906000526020600020905b8154815260200190600101908083116124fc575b505050505081526020016003820154600019166000191681526020016004820160009054906101000a900460ff16600381111561254957fe5b600381111561255457fe5b8152602001600582015481525050905080600001519650806020015195508060400151945080606001519350806080015192508060a0015191505091939550919395565b60008060006125a5615231565b600080600102600019168860001916141515156125c157600080fd5b600087879050141515156125d457600080fd5b6125e087879050614b64565b945061263e87878080602002602001604051908101604052809392919081815260200183836020028082843782019150505050505086600860009054906101000a900473ffffffffffffffffffffffffffffffffffffffff16614ca3565b9350338442604051808473ffffffffffffffffffffffffffffffffffffffff1673ffffffffffffffffffffffffffffffffffffffff166c01000000000000000000000000028152601401836000191660001916815260200182815260200193505050506040518091039020925060c0604051908101604052803373ffffffffffffffffffffffffffffffffffffffff168152602001896000191681526020018888808060200260200160405190810160405280939291908181526020018383602002808284378201915050505050508152602001856000191681526020016000600381111561272957fe5b8152602001610e10420181525091508160066000856000191660001916815260200190815260200160002060008201518160000160006101000a81548173ffffffffffffffffffffffffffffffffffffffff021916908373ffffffffffffffffffffffffffffffffffffffff1602179055506020820151816001019060001916905560408201518160020190805190602001906127c7929190615295565b506060820151816003019060001916905560808201518160040160006101000a81548160ff021916908360038111156127fc57fe5b021790555060a0820151816005015590505082600760003373ffffffffffffffffffffffffffffffffffffffff1673ffffffffffffffffffffffffffffffffffffffff16815260200190815260200160002081600019169055503373ffffffffffffffffffffffffffffffffffffffff167f6dbed0ca6b6711aef30d0a1175094855f83d0d6b9d7a7d0bf104862c9170a2e6848a60405180836000191660001916815260200182600019166000191681526020019250505060405180910390a2600090505b8686905081101561293d5786868281811015156128da57fe5b905060200201357f028712afc64b05883886f38c7937529d87a27e1738b955a0569401b6c13cc526898560405180836000191660001916815260200182600019166000191681526020019250505060405180910390a280806001019150506128c1565b5050505050505050565b600081600073ffffffffffffffffffffffffffffffffffffffff1660066000836000191660001916815260200190815260200160002060000160009054906101000a900473ffffffffffffffffffffffffffffffffffffffff1673ffffffffffffffffffffffffffffffffffffffff16141515156129c457600080fd5b600060010260001916600760003373ffffffffffffffffffffffffffffffffffffffff1673ffffffffffffffffffffffffffffffffffffffff168152602001908152602001600020546000191614151515612a1e57600080fd5b60006003811115612a2b57fe5b60066000856000191660001916815260200190815260200160002060040160009054906101000a900460ff166003811115612a6257fe5b148015612a8c57504260066000856000191660001916815260200190815260200160002060050154105b15612ba357612abd60066000856000191660001916815260200190815260200160002060030154600080600161443e565b50612ae560066000856000191660001916815260200190815260200160002060030154614a15565b50600360066000856000191660001916815260200190815260200160002060040160006101000a81548160ff02191690836003811115612b2157fe5b021790555082600019167f04388b6f7fba70cae8baa27ebc0929159f5e767b2de8814e79e59ce1ea7a705e60405160405180910390a2600760003373ffffffffffffffffffffffffffffffffffffffff1673ffffffffffffffffffffffffffffffffffffffff1681526020019081526020016000206000905560019150612ba8565b600091505b50919050565b6000612bb86151c6565b612bc06151c6565b612bc86151c6565b612bd06151c6565b612bd86151c6565b612be06151c6565b612be861502b565b3373ffffffffffffffffffffffffffffffffffffffff166001600260003373ffffffffffffffffffffffffffffffffffffffff1673ffffffffffffffffffffffffffffffffffffffff16815260200190815260200160002054815481101515612c4d57fe5b906000526020600020906008020160000160009054906101000a900473ffffffffffffffffffffffffffffffffffffffff1673ffffffffffffffffffffffffffffffffffffffff16141515612ca157600080fd5b6001600260003373ffffffffffffffffffffffffffffffffffffffff1673ffffffffffffffffffffffffffffffffffffffff16815260200190815260200160002054815481101515612cef57fe5b906000526020600020906008020161010060405190810160405290816000820160009054906101000a900473ffffffffffffffffffffffffffffffffffffffff1673ffffffffffffffffffffffffffffffffffffffff1673ffffffffffffffffffffffffffffffffffffffff168152602001600182018054600181600116156101000203166002900480601f016020809104026020016040519081016040528092919081815260200182805460018160011615610100020316600290048015612df95780601f10612dce57610100808354040283529160200191612df9565b820191906000526020600020905b815481529060010190602001808311612ddc57829003601f168201915b50505050508152602001600282018054600181600116156101000203166002900480601f016020809104026020016040519081016040528092919081815260200182805460018160011615610100020316600290048015612e9b5780601f10612e7057610100808354040283529160200191612e9b565b820191906000526020600020905b815481529060010190602001808311612e7e57829003601f168201915b50505050508152602001600382018054600181600116156101000203166002900480601f016020809104026020016040519081016040528092919081815260200182805460018160011615610100020316600290048015612f3d5780601f10612f1257610100808354040283529160200191612f3d565b820191906000526020600020905b815481529060010190602001808311612f2057829003601f168201915b50505050508152602001600482018054600181600116156101000203166002900480601f016020809104026020016040519081016040528092919081815260200182805460018160011615610100020316600290048015612fdf5780601f10612fb457610100808354040283529160200191612fdf565b820191906000526020600020905b815481529060010190602001808311612fc257829003601f168201915b50505050508152602001600582018054600181600116156101000203166002900480601f0160208091040260200160405190810160405280929190818152602001828054600181600116156101000203166002900480156130815780601f1061305657610100808354040283529160200191613081565b820191906000526020600020905b81548152906001019060200180831161306457829003601f168201915b50505050508152602001600682018054600181600116156101000203166002900480601f0160208091040260200160405190810160405280929190818152602001828054600181600116156101000203166002900480156131235780601f106130f857610100808354040283529160200191613123565b820191906000526020600020905b81548152906001019060200180831161310657829003601f168201915b505050505081526020016007820154815250509050600260003373ffffffffffffffffffffffffffffffffffffffff1673ffffffffffffffffffffffffffffffffffffffff168152602001908152602001600020549750806020015196508060400151955080606001519450806080015193508060a0015192508060c0015191505090919293949596565b6000806131b96151b2565b60008060006131c6615231565b600060010260001916600760003373ffffffffffffffffffffffffffffffffffffffff1673ffffffffffffffffffffffffffffffffffffffff16815260200190815260200160002054600019161415151561322057600080fd5b60066000600760003373ffffffffffffffffffffffffffffffffffffffff1673ffffffffffffffffffffffffffffffffffffffff168152602001908152602001600020546000191660001916815260200190815260200160002060c060405190810160405290816000820160009054906101000a900473ffffffffffffffffffffffffffffffffffffffff1673ffffffffffffffffffffffffffffffffffffffff1673ffffffffffffffffffffffffffffffffffffffff1681526020016001820154600019166000191681526020016002820180548060200260200160405190810160405280929190818152602001828054801561333d57602002820191906000526020600020905b815481526020019060010190808311613329575b505050505081526020016003820154600019166000191681526020016004820160009054906101000a900460ff16600381111561337657fe5b600381111561338157fe5b8152602001600582015481525050905080600001519650806020015195508060400151945080606001519350806080015192508060a00151915050909192939495565b600081600073ffffffffffffffffffffffffffffffffffffffff1660066000836000191660001916815260200190815260200160002060000160009054906101000a900473ffffffffffffffffffffffffffffffffffffffff1673ffffffffffffffffffffffffffffffffffffffff161415151561344157600080fd5b82426006600083600019166000191681526020019081526020016000206005015411151561346e57600080fd5b600060010260001916600760003373ffffffffffffffffffffffffffffffffffffffff1673ffffffffffffffffffffffffffffffffffffffff1681526020019081526020016000205460001916141515156134c857600080fd5b610a8c42600660008760001916600019168152602001908152602001600020600501540311156134fb5760009250613500565b600192505b61352b600660008660001916600019168152602001908152602001600020600301546000808661443e565b5061355360066000866000191660001916815260200190815260200160002060030154614a15565b50600260066000866000191660001916815260200190815260200160002060040160006101000a81548160ff0219169083600381111561358f57fe5b0217905550600760003373ffffffffffffffffffffffffffffffffffffffff1673ffffffffffffffffffffffffffffffffffffffff1681526020019081526020016000206000905583600019167f667043bfb51a81e4328acc863f6e40a64851a37e88152011d1a7db47286ae60b84604051808215151515815260200191505060405180910390a250505050565b6000816000600460008360001916600019168152602001908152602001600020600201541415151561364e57600080fd5b60046000846000191660001916815260200190815260200160002060030160009054906101000a900460ff16915050919050565b61368a61502b565b6136926151c6565b3373ffffffffffffffffffffffffffffffffffffffff166001848154811015156136b857fe5b906000526020600020906008020160000160009054906101000a900473ffffffffffffffffffffffffffffffffffffffff1673ffffffffffffffffffffffffffffffffffffffff1614151561370c57600080fd5b60018381548110151561371b57fe5b906000526020600020906008020161010060405190810160405290816000820160009054906101000a900473ffffffffffffffffffffffffffffffffffffffff1673ffffffffffffffffffffffffffffffffffffffff1673ffffffffffffffffffffffffffffffffffffffff168152602001600182018054600181600116156101000203166002900480601f0160208091040260200160405190810160405280929190818152602001828054600181600116156101000203166002900480156138255780601f106137fa57610100808354040283529160200191613825565b820191906000526020600020905b81548152906001019060200180831161380857829003601f168201915b50505050508152602001600282018054600181600116156101000203166002900480601f0160208091040260200160405190810160405280929190818152602001828054600181600116156101000203166002900480156138c75780601f1061389c576101008083540402835291602001916138c7565b820191906000526020600020905b8154815290600101906020018083116138aa57829003601f168201915b50505050508152602001600382018054600181600116156101000203166002900480601f0160208091040260200160405190810160405280929190818152602001828054600181600116156101000203166002900480156139695780601f1061393e57610100808354040283529160200191613969565b820191906000526020600020905b81548152906001019060200180831161394c57829003601f168201915b50505050508152602001600482018054600181600116156101000203166002900480601f016020809104026020016040519081016040528092919081815260200182805460018160011615610100020316600290048015613a0b5780601f106139e057610100808354040283529160200191613a0b565b820191906000526020600020905b8154815290600101906020018083116139ee57829003601f168201915b50505050508152602001600582018054600181600116156101000203166002900480601f016020809104026020016040519081016040528092919081815260200182805460018160011615610100020316600290048015613aad5780601f10613a8257610100808354040283529160200191613aad565b820191906000526020600020905b815481529060010190602001808311613a9057829003601f168201915b50505050508152602001600682018054600181600116156101000203166002900480601f016020809104026020016040519081016040528092919081815260200182805460018160011615610100020316600290048015613b4f5780601f10613b2457610100808354040283529160200191613b4f565b820191906000526020600020905b815481529060010190602001808311613b3257829003601f168201915b50505050508152602001600782015481525050915081602001519050600382608001516040518082805190602001908083835b602083101515613ba75780518252602082019150602081019050602083039250613b82565b6001836020036101000a03801982511681845116808217855250505050505090500191505090815260200160405180910390208260a001516040518082805190602001908083835b602083101515613c145780518252602082019150602081019050602083039250613bef565b6001836020036101000a03801982511681845116808217855250505050505090500191505090815260200160405180910390208260e00151815481101515613c5857fe5b906000526020600020900160009055600183815481101515613c7657fe5b9060005260206000209060080201600080820160006101000a81549073ffffffffffffffffffffffffffffffffffffffff0219169055600182016000613cbc91906152e2565b600282016000613ccc91906152e2565b600382016000613cdc91906152e2565b600482016000613cec91906152e2565b600582016000613cfc91906152e2565b600682016000613d0c91906152e2565b60078201600090555050600260003373ffffffffffffffffffffffffffffffffffffffff1673ffffffffffffffffffffffffffffffffffffffff168152602001908152602001600020600090557fe5e6e5f3b122e8a87f58ce846d5ece95208ab36e03181ea1c48599922411167f813360405180806020018373ffffffffffffffffffffffffffffffffffffffff1673ffffffffffffffffffffffffffffffffffffffff168152602001828103825284818151815260200191508051906020019080838360005b83811015613dee578082015181840152602081019050613dd3565b50505050905090810190601f168015613e1b5780820380516001836020036101000a031916815260200191505b50935050505060405180910390a1505050565b6000600560008373ffffffffffffffffffffffffffffffffffffffff1673ffffffffffffffffffffffffffffffffffffffff168152602001908152602001600020549050919050565b60008060009054906101000a900473ffffffffffffffffffffffffffffffffffffffff1673ffffffffffffffffffffffffffffffffffffffff163373ffffffffffffffffffffffffffffffffffffffff16141515613ed457600080fd5b600180549050905090565b6000809054906101000a900473ffffffffffffffffffffffffffffffffffffffff1673ffffffffffffffffffffffffffffffffffffffff163373ffffffffffffffffffffffffffffffffffffffff16141515613f3a57600080fd5b600073ffffffffffffffffffffffffffffffffffffffff168173ffffffffffffffffffffffffffffffffffffffff1614151515613f7657600080fd5b8073ffffffffffffffffffffffffffffffffffffffff166000809054906101000a900473ffffffffffffffffffffffffffffffffffffffff1673ffffffffffffffffffffffffffffffffffffffff167f8be0079c531659141344cd1fd0a4f28419497f9722a3daafe3b4186f6b6457e060405160405180910390a3806000806101000a81548173ffffffffffffffffffffffffffffffffffffffff021916908373ffffffffffffffffffffffffffffffffffffffff16021790555050565b61403c6151c6565b6140446151c6565b82600073ffffffffffffffffffffffffffffffffffffffff1660018281548110151561406c57fe5b906000526020600020906008020160000160009054906101000a900473ffffffffffffffffffffffffffffffffffffffff1673ffffffffffffffffffffffffffffffffffffffff16141515156140c157600080fd5b6001848154811015156140d057fe5b90600052602060002090600802016002018054600181600116156101000203166002900480601f0160208091040260200160405190810160405280929190818152602001828054600181600116156101000203166002900480156141755780601f1061414a57610100808354040283529160200191614175565b820191906000526020600020905b81548152906001019060200180831161415857829003601f168201915b5050505050925060018481548110151561418b57fe5b90600052602060002090600802016003018054600181600116156101000203166002900480601f0160208091040260200160405190810160405280929190818152602001828054600181600116156101000203166002900480156142305780601f1061420557610100808354040283529160200191614230565b820191906000526020600020905b81548152906001019060200180831161421357829003601f168201915b5050505050915050915091565b60095481565b61424b61532a565b6000806040805190810160405280601c81526020017f19457468657265756d205369676e6564204d6573736167653a0a33320000000081525092508285600060038110151561429657fe5b60200201516040518083805190602001908083835b6020831015156142d057805182526020820191506020810190506020830392506142ab565b6001836020036101000a038019825116818451168082178552505050505050905001826000191660001916815260200192505050604051809103902091506001828587600160038110151561432157fe5b602002015188600260038110151561433557fe5b6020020151604051600081526020016040526000604051602001526040518085600019166000191681526020018460ff1660ff16815260200183600019166000191681526020018260001916600019168152602001945050505050602060405160208103908084039060008661646e5a03f115156143b257600080fd5b505060206040510351905060066000886000191660001916815260200190815260200160002060000160009054906101000a900473ffffffffffffffffffffffffffffffffffffffff1673ffffffffffffffffffffffffffffffffffffffff168173ffffffffffffffffffffffffffffffffffffffff1614151561443557600080fd5b50505050505050565b6000806000806000806000806000600460008e600019166000191681526020019081526020016000209750600860009054906101000a900473ffffffffffffffffffffffffffffffffffffffff169650891561490257876004015488600201540395506144b2868960010180549050614fc0565b94508b1561479d576144c5856005614fc0565b85039350846144e86144d8876005614fc0565b60018b6001018054905003614fdb565b019250600091505b8760010180549050821015614798578a886001018381548110151561451157fe5b9060005260206000209001541415614659578673ffffffffffffffffffffffffffffffffffffffff1663a9059cbb60018a6001018581548110151561455257fe5b90600052602060002090015481548110151561456a57fe5b906000526020600020906008020160000160009054906101000a900473ffffffffffffffffffffffffffffffffffffffff16856000604051602001526040518363ffffffff167c0100000000000000000000000000000000000000000000000000000000028152600401808373ffffffffffffffffffffffffffffffffffffffff1673ffffffffffffffffffffffffffffffffffffffff16815260200182815260200192505050602060405180830381600087803b151561462a57600080fd5b6102c65a03f1151561463b57600080fd5b5050506040518051905015156146545760009850614a05565b61478b565b8673ffffffffffffffffffffffffffffffffffffffff1663a9059cbb60018a6001018581548110151561468857fe5b9060005260206000209001548154811015156146a057fe5b906000526020600020906008020160000160009054906101000a900473ffffffffffffffffffffffffffffffffffffffff16866000604051602001526040518363ffffffff167c0100000000000000000000000000000000000000000000000000000000028152600401808373ffffffffffffffffffffffffffffffffffffffff1673ffffffffffffffffffffffffffffffffffffffff16815260200182815260200192505050602060405180830381600087803b151561476057600080fd5b6102c65a03f1151561477157600080fd5b50505060405180519050151561478a5760009850614a05565b5b81806001019250506144f0565b6148f0565b600090505b87600101805490508110156148ef578673ffffffffffffffffffffffffffffffffffffffff1663a9059cbb60018a600101848154811015156147e057fe5b9060005260206000209001548154811015156147f857fe5b906000526020600020906008020160000160009054906101000a900473ffffffffffffffffffffffffffffffffffffffff16876000604051602001526040518363ffffffff167c0100000000000000000000000000000000000000000000000000000000028152600401808373ffffffffffffffffffffffffffffffffffffffff1673ffffffffffffffffffffffffffffffffffffffff16815260200182815260200192505050602060405180830381600087803b15156148b857600080fd5b6102c65a03f115156148c957600080fd5b5050506040518051905015156148e25760009850614a05565b80806001019150506147a2565b5b87600201548860040181905550614a00565b8673ffffffffffffffffffffffffffffffffffffffff1663a9059cbb8960000160009054906101000a900473ffffffffffffffffffffffffffffffffffffffff168a600201546000604051602001526040518363ffffffff167c0100000000000000000000000000000000000000000000000000000000028152600401808373ffffffffffffffffffffffffffffffffffffffff1673ffffffffffffffffffffffffffffffffffffffff16815260200182815260200192505050602060405180830381600087803b15156149d557600080fd5b6102c65a03f115156149e657600080fd5b5050506040518051905015156149ff5760009850614a05565b5b600198505b5050505050505050949350505050565b600081600180811115614a2457fe5b60046000836000191660001916815260200190815260200160002060030160009054906101000a900460ff166001811115614a5b57fe5b14151515614a6857600080fd5b600160046000856000191660001916815260200190815260200160002060030160006101000a81548160ff02191690836001811115614aa357fe5b02179055506005600060046000866000191660001916815260200190815260200160002060000160009054906101000a900473ffffffffffffffffffffffffffffffffffffffff1673ffffffffffffffffffffffffffffffffffffffff1673ffffffffffffffffffffffffffffffffffffffff1681526020019081526020016000206000905582600019167fceeab2eef998c17fe96f30f83fbf3c55fc5047f6e40c55a0cf72d236e9d2ba7260405160405180910390a26001915050919050565b6000806000600860009054906101000a900473ffffffffffffffffffffffffffffffffffffffff169150614b9784615016565b9050808273ffffffffffffffffffffffffffffffffffffffff1663dd62ed3e33306000604051602001526040518363ffffffff167c0100000000000000000000000000000000000000000000000000000000028152600401808373ffffffffffffffffffffffffffffffffffffffff1673ffffffffffffffffffffffffffffffffffffffff1681526020018273ffffffffffffffffffffffffffffffffffffffff1673ffffffffffffffffffffffffffffffffffffffff16815260200192505050602060405180830381600087803b1515614c7157600080fd5b6102c65a03f11515614c8257600080fd5b5050506040518051905010151515614c9957600080fd5b8092505050919050565b600080614cae6151da565b33866000815181101515614cbe57fe5b9060200190602002015142604051808473ffffffffffffffffffffffffffffffffffffffff1673ffffffffffffffffffffffffffffffffffffffff166c0100000000000000000000000002815260140183815260200182815260200193505050506040518091039020915060a0604051908101604052803373ffffffffffffffffffffffffffffffffffffffff16815260200187815260200186815260200160006001811115614d6a57fe5b8152602001600081525090508373ffffffffffffffffffffffffffffffffffffffff166323b872dd3330886000604051602001526040518463ffffffff167c0100000000000000000000000000000000000000000000000000000000028152600401808473ffffffffffffffffffffffffffffffffffffffff1673ffffffffffffffffffffffffffffffffffffffff1681526020018373ffffffffffffffffffffffffffffffffffffffff1673ffffffffffffffffffffffffffffffffffffffff1681526020018281526020019350505050602060405180830381600087803b1515614e5557600080fd5b6102c65a03f11515614e6657600080fd5b505050604051805190501515614e7b57600080fd5b8060046000846000191660001916815260200190815260200160002060008201518160000160006101000a81548173ffffffffffffffffffffffffffffffffffffffff021916908373ffffffffffffffffffffffffffffffffffffffff1602179055506020820151816001019080519060200190614efa929190615295565b506040820151816002015560608201518160030160006101000a81548160ff02191690836001811115614f2957fe5b02179055506080820151816004015590505081600560003373ffffffffffffffffffffffffffffffffffffffff1673ffffffffffffffffffffffffffffffffffffffff168152602001908152602001600020816000191690555081600019167f7ffc675d721b8768e035a323722842743bb523487b535906abc97e6b3e2095d060405160405180910390a281925050509392505050565b6000808284811515614fce57fe5b0490508091505092915050565b6000806000841415614ff0576000915061500f565b828402905082848281151561500157fe5b0414151561500b57fe5b8091505b5092915050565b600061502482600954614fdb565b9050919050565b61010060405190810160405280600073ffffffffffffffffffffffffffffffffffffffff16815260200161505d61533e565b815260200161506a61533e565b815260200161507761533e565b815260200161508461533e565b815260200161509161533e565b815260200161509e61533e565b8152602001600081525090565b8154818355818115116150d8576008028160080283600052602060002091820191016150d79190615352565b5b505050565b828054600181600116156101000203166002900490600052602060002090601f016020900481019282601f1061511e57805160ff191683800117855561514c565b8280016001018555821561514c579182015b8281111561514b578251825591602001919060010190615130565b5b5090506151599190615400565b5090565b815481835581811511615184578183600052602060002091820191016151839190615400565b5b505050565b610280604051908101604052806014905b600081526020019060019003908161519a5790505090565b602060405190810160405280600081525090565b602060405190810160405280600081525090565b60a060405190810160405280600073ffffffffffffffffffffffffffffffffffffffff16815260200161520b615425565b8152602001600081526020016000600181111561522457fe5b8152602001600081525090565b60c060405190810160405280600073ffffffffffffffffffffffffffffffffffffffff1681526020016000801916815260200161526c615425565b8152602001600080191681526020016000600381111561528857fe5b8152602001600081525090565b8280548282559060005260206000209081019282156152d1579160200282015b828111156152d05782518255916020019190600101906152b5565b5b5090506152de9190615400565b5090565b50805460018160011615610100020316600290046000825580601f106153085750615327565b601f0160209004906000526020600020908101906153269190615400565b5b50565b602060405190810160405280600081525090565b602060405190810160405280600081525090565b6153fd91905b808211156153f957600080820160006101000a81549073ffffffffffffffffffffffffffffffffffffffff021916905560018201600061539891906152e2565b6002820160006153a891906152e2565b6003820160006153b891906152e2565b6004820160006153c891906152e2565b6005820160006153d891906152e2565b6006820160006153e891906152e2565b600782016000905550600801615358565b5090565b90565b61542291905b8082111561541e576000816000905550600101615406565b5090565b90565b6020604051908101604052806000815250905600a165627a7a723058204abce4b598207d1ee6ac7ecec400437f3308bcfea025ed4aa20ca6bdfbf19c2f0029",
  "source": "pragma solidity ^0.4.18;\n//pragma experimental ABIEncoderV2;\n\nimport './OpenDeviceRegistry.sol';\nimport './UVTChannels.sol';\nimport '../node_modules/zeppelin-solidity/contracts/math/SafeMath.sol';\nimport '../node_modules/zeppelin-solidity/contracts/token/ERC20.sol';\n\n\n/**\n * @title UVTCore\n * @author Carlos Beltran <imthatcarlos@gmail.com>\n *\n * @dev This contract manages the ODR, payment channels, and the invokation\n * of gateways when a user submits a search request. Certain functionality\n * is limited to the contract's owner, such as manually closing channels.\n * TODO: Contract is too large, gas exceeds the mainnet gasLimit\n * OpenDeviceRegistry could be deployed on its own\n */\ncontract UVTCore is OpenDeviceRegistry, UVTChannels {\n\n  //============================================================================\n  // EVENTS\n  //============================================================================\n\n  event SearchInitiated(address indexed owner, bytes32 id, bytes32 endpointId);\n  event InvokeGateway(uint indexed id, bytes32 endpointId, bytes32 requestId);\n  event SearchEndpointFound(bytes32 indexed id, uint gatewayId, uint time, string lat, string long);\n  event SearchCancelled(bytes32 indexed id, bool gatewaysPaid);\n  event SearchExpired(bytes32 indexed id);\n\n  event PurchasedUVT(address indexed account, uint amount);\n  event ReceivedFunds(address sender, uint value);\n\n  //============================================================================\n  // STORAGE\n  //============================================================================\n\n  enum SearchState { Searching, Found, Cancelled, Expired }\n\n  struct SearchRequest {\n    address owner;\n    bytes32 endpointId;\n    uint[] invokedGateways;\n    bytes32 channelId;\n    SearchState state;\n    uint expires;\n  }\n\n  mapping (bytes32 => SearchRequest) searchRequests;\n  mapping (address => bytes32) accountToRequestIds;\n\n  address uvtTokenAddress;\n\n  uint public GATEWAY_COST_UVT = 10;\n\n  //============================================================================\n  // MODIFIERS\n  //============================================================================\n\n  modifier validRequest(bytes32 id) {\n    require(searchRequests[id].owner != address(0));\n    _;\n  }\n\n  modifier notExpired(bytes32 id) {\n    require(searchRequests[id].expires > now);\n    _;\n  }\n\n  modifier onlyRequestOwner {\n    require(accountToRequestIds[msg.sender] != bytes32(0));\n    _;\n  }\n\n  /**\n   * The contract's constructor\n   * Upon initializing, the owner MUST send UVT to this contract in order to\n   * fund accounts when they would like to buy UVT with ETH.\n   *\n   * @param tokenAddress The address of the UVTToken contract\n   */\n  function UVTCore(address tokenAddress) public {\n    owner = msg.sender;\n    uvtTokenAddress = tokenAddress;\n  }\n\n  //============================================================================\n  // EXTERNAL FUNCTIONS\n  //============================================================================\n\n  /**\n   * Transfer UVT tokens to the account in exchange for ETH\n   * TODO: the exchange is 1-1 for demo purposes\n   */\n  function buyUVT(uint amount) external payable {\n    require(msg.value == amount);\n\n    ERC20 uvtToken = ERC20(uvtTokenAddress);\n    require(uvtToken.transfer(msg.sender, amount));\n    PurchasedUVT(msg.sender, amount);\n  }\n\n  /**\n   * Create a new search request. By now, the user has selected which gateways\n   * to invoke and has approved the fee.\n   * A channel is created between the user and the invoked gateways, depositing\n   * UVT tokens from user's account.\n   * Invoked gateways are notified of the request.\n   * The search is set to expire in 1 hour\n   *\n   * @param endpointId      The id of the endpoint gateways are to find\n   * @param gatewayIds The ids of gateways to be invoked\n   */\n  function createSearchRequest(bytes32 endpointId, uint[] gatewayIds)\n    external\n  {\n    // sanity checks\n    require(endpointId != bytes32(0));\n    require(gatewayIds.length != 0);\n\n    uint totalCost = _verifyPayment(gatewayIds.length);\n\n    // open the channel and fund it with the account's tokens\n    bytes32 channelId = _openChannel(gatewayIds, totalCost, ERC20(uvtTokenAddress));\n\n    // create the request\n    bytes32 id = keccak256(msg.sender, channelId, now);\n    SearchRequest memory request = SearchRequest({\n      owner: msg.sender,\n      endpointId: endpointId,\n      invokedGateways: gatewayIds,\n      channelId: channelId,\n      state: SearchState.Searching,\n      expires: (now + 1 hours)\n    });\n\n    // save to storage and lookup table\n    searchRequests[id] = request;\n    accountToRequestIds[msg.sender] = id;\n\n    // invoke gateways\n    SearchInitiated(msg.sender, id, endpointId);\n    for(uint i = 0; i < gatewayIds.length; i++) {\n      InvokeGateway(gatewayIds[i], endpointId, id);\n    }\n  }\n\n  /**\n   * Called from a gateway when it locates the missing item. Broadcasts an event\n   * for the endpoint's owner to acknowledge\n   *\n   * @param requestId   The id of the search request\n   * @param endpointSig [hash, r, s] Signature data provided by the missing item's LoRa\n   * transmitter proving that it was indeed found\n   * @param v           The \"v\" value of endpointSig\n   * @param lat         The latitude part of the endpoint's current location\n   * @param long        The longitude part of the endpoint's current location\n   */\n  function endpointFound(\n    bytes32 requestId,\n    bytes32[3] endpointSig,\n    uint8 v,\n    string lat,\n    string long\n  )\n    external\n    validRequest(requestId)\n    notExpired(requestId)\n    onlyGatewayOwner\n  {\n    uint gatewayId = ownerToGatewayIds[msg.sender];\n    SearchRequest storage request = searchRequests[requestId];\n    // verify the endpoint's signaure\n    _verifyEndpoint(requestId, request.endpointId, endpointSig, v);\n\n    // disburse the funds and close the channel\n    _disburseFunds(request.channelId, true, gatewayId, true);\n    _closeChannel(request.channelId);\n\n    // update search state\n    request.state = SearchState.Found;\n\n    // remove from lookup table\n    delete accountToRequestIds[msg.sender];\n\n    SearchEndpointFound(requestId, gatewayId, now, lat, long);\n  }\n\n  /**\n   * Called to check if the request has expired, and if so, update the state\n   * and close the channel.\n   * This is called by the software client after the search period - the\n   * invoked gateways should manage themselves\n   */\n  function searchExpired(bytes32 id)\n    external\n    validRequest(id)\n    onlyRequestOwner\n    returns (bool)\n  {\n    if (searchRequests[id].state == SearchState.Searching &&\n      searchRequests[id].expires < now)\n    {\n      // disburse the funds and close the channel\n      _disburseFunds(searchRequests[id].channelId, false, 0, true);\n      _closeChannel(searchRequests[id].channelId);\n\n      // update search state\n      searchRequests[id].state = SearchState.Expired;\n      SearchExpired(id);\n\n      // remove from lookup table\n      delete accountToRequestIds[msg.sender];\n\n      return true;\n    } else {\n      return false;\n    }\n  }\n\n  /**\n   * Cancels the search request. The account is given a grace period of\n   * 15 minutes where they cancel and be refunded their UVT tokens.\n   * This is called by the search request owner\n   */\n  function cancelSearch(bytes32 id)\n    external\n    validRequest(id)\n    notExpired(id)\n    onlyRequestOwner\n  {\n    // diff between expiry and now should be > 45 min for refund\n    bool shouldPayGateways;\n    if ((searchRequests[id].expires - now) > 45 minutes) {\n      shouldPayGateways = false;\n    } else {\n      shouldPayGateways = true;\n    }\n\n    // disburse the funds and close the channel\n    _disburseFunds(searchRequests[id].channelId, false, 0, shouldPayGateways);\n    _closeChannel(searchRequests[id].channelId);\n\n    // update search state\n    searchRequests[id].state = SearchState.Cancelled;\n\n    // remove from lookup table\n    delete accountToRequestIds[msg.sender];\n\n    SearchCancelled(id, shouldPayGateways);\n  }\n\n  /**\n   * Renews the search request with the same parameters\n   * Can only be called if the state is != Searching\n   * NOTE: only possible because we don't clear the request OR channels from storage...\n   * TODO: we should do this without an extra transaction, just update the channel's value\n   * and notify the gateways to extend the expiry\n   */\n  /* function renewSearch(bytes32 id)\n    external\n    validRequest(id)\n    onlyRequestOwner\n  {\n    SearchRequest storage request = searchRequests[id];\n\n    // can only renew an expired or cancelled request\n    require(request.state != SearchState.Searching);\n\n    uint[] memory gatewayIds = channels[request.channelId].gatewayIds;\n\n    // might not be necessary?\n    _verifyPayment(gatewayIds.length);\n\n    // open the channel and fund it with the account's tokens\n    _reopenChannel(request.channelId);\n    require(ERC20(uvtTokenAddress).transferFrom(\n      msg.sender,\n      address(this),\n      channels[request.channelId].deposit\n    ));\n\n    // opened with same number of gateways, so new cost is the same\n    channels[request.channelId].deposit = channels[request.channelId].deposit + channels[request.channelId].deposit;\n\n    // update search state & expire time\n    request.state = SearchState.Searching;\n    request.expires = now + 1 hours;\n\n    // re-add to lookup table\n    accountToRequestIds[msg.sender] = id;\n\n    // invoke gateways\n    SearchInitiated(msg.sender, id, request.endpointId);\n    for(uint i = 0; i < gatewayIds.length; i++) {\n      InvokeGateway(gatewayIds[i], request.endpointId, id);\n    }\n  } */\n\n  /**\n   * Returns the id of the owner's search request\n   * Can only be called by the owner of the request\n   */\n  function getSearchRequestId()\n    external\n    view\n    onlyRequestOwner\n    returns (bytes32 id)\n  {\n    return accountToRequestIds[msg.sender];\n  }\n\n  /**\n   * Returns all information for the owner's search request\n   * Can only be called by the owner of the request\n   */\n  function getSearchRequest()\n    external\n    view\n    onlyRequestOwner\n    returns (\n      address owner,\n      bytes32 endpointId,\n      uint[] invokedGateways,\n      bytes32 channelId,\n      SearchState state,\n      uint expires\n    )\n  {\n    SearchRequest memory request = searchRequests[accountToRequestIds[msg.sender]];\n\n    owner = request.owner;\n    endpointId = request.endpointId;\n    invokedGateways = request.invokedGateways;\n    channelId = request.channelId;\n    state = request.state;\n    expires = request.expires;\n  }\n\n  /**\n   * Returns the state of the owner's search request\n   * Can only be called by the owner of the request\n   */\n  function getSearchRequestStatus()\n    external\n    view\n    onlyRequestOwner\n    returns (SearchState state)\n  {\n    return searchRequests[accountToRequestIds[msg.sender]].state;\n  }\n\n  /**\n   * Returns all information for the given search request\n   * Can only be called by the contract owner\n   *\n   * @param id The SearchRequest id\n   */\n  function getSearchRequestById(bytes32 id)\n    external\n    view\n    onlyOwner\n    returns (\n      address owner,\n      bytes32 endpointId,\n      uint[] invokedGateways,\n      bytes32 channelId,\n      SearchState state,\n      uint expires\n    )\n  {\n    SearchRequest memory request = searchRequests[id];\n\n    owner = request.owner;\n    endpointId = request.endpointId;\n    invokedGateways = request.invokedGateways;\n    channelId = request.channelId;\n    state = request.state;\n    expires = request.expires;\n  }\n\n  function() external payable {\n    ReceivedFunds(msg.sender, msg.value);\n  }\n\n  function withdrawBalance() external onlyOwner {\n    owner.transfer(this.balance);\n  }\n\n  //============================================================================\n  // INTERNAL FUNCTIONS\n  //============================================================================\n\n  /*\n   * Disburse the channel's funds. If the gatewayIdFound param is set (> 0)\n   * that gateway receives 50% of all other payouts\n   *\n   * @param channelId         The channel id\n   * @param gatewayIdFound    The id of the gateway that located the endpoint.\n   * Set to -1 if no gateway found the endpoint\n   * @param shouldPayGateways Flag for whether the gateways are being paid out\n   */\n  function _disburseFunds(\n      bytes32 channelId,\n      bool endointFound,\n      uint gatewayIdFound,\n      bool shouldPayGateways\n  )\n    internal\n    returns (bool)\n  {\n    Channel storage channel = channels[channelId];\n    ERC20 uvtToken = ERC20(uvtTokenAddress);\n\n    // if user cancelled within grace period, they get refunded\n    if (shouldPayGateways) {\n      // in case they renew the search, paidOut is updated with what they've\n      // already paid\n      uint value = channel.deposit - channel.paidOut;\n\n      // what each gateway should get if evenly distributed\n      uint allPayout = SafeMath.div(value, channel.gatewayIds.length);\n\n      if (endointFound) {\n        // pay gatewayIdFound 20% from everyone else's\n        uint othersPayout = allPayout - SafeMath.div(allPayout, 5);\n        uint finderPayout = SafeMath.mul(\n          SafeMath.div(allPayout, 5),\n          (channel.gatewayIds.length - 1)\n        ) + allPayout;\n\n        for (uint i = 0; i < channel.gatewayIds.length; i++) {\n          if (channel.gatewayIds[i] == gatewayIdFound) {\n            if (!uvtToken.transfer(gateways[channel.gatewayIds[i]].owner, finderPayout)) {\n              return false;\n            }\n          } else {\n            if (!uvtToken.transfer(gateways[channel.gatewayIds[i]].owner, othersPayout)) {\n              return false;\n            }\n          }\n        }\n      } else {\n        // pay everyone equally\n        for (uint j = 0; j < channel.gatewayIds.length; j++) {\n          if (!uvtToken.transfer(gateways[channel.gatewayIds[j]].owner, allPayout)) {\n            return false;\n          }\n        }\n      }\n\n      /* TODO: a require() for the payouts being equal to the value */\n\n      channel.paidOut = channel.deposit;\n    } else {\n      if (!uvtToken.transfer(channel.sender, channel.deposit)) {\n        return false;\n      }\n    }\n\n    return true;\n  }\n\n  /**\n   * Verify that the account has approved the fee\n   *\n   * @param gatewaysCount The number of gateways the account is paying for\n   */\n  function _verifyPayment(uint gatewaysCount) internal view returns (uint) {\n    ERC20 uvtToken = ERC20(uvtTokenAddress);\n    uint totalCost = _searchCost(gatewaysCount);\n\n    // make sure they've approved the fee\n    /* TODO: might not be necessary after first approval */\n    require(uvtToken.allowance(msg.sender, address(this)) >= totalCost);\n\n    return totalCost;\n  }\n\n  /**\n   * The total cost (in UVT) for the search - in this case, the number of\n   * gateways to be invoked\n   *\n   * @param gatewaysCount The number of gateways the account is paying for\n   */\n  function _searchCost(uint gatewaysCount) internal view returns (uint) {\n    return SafeMath.mul(gatewaysCount, GATEWAY_COST_UVT);\n  }\n\n  /**\n   * Verify that the endpoint is valid and signed by the account that initiated\n   * the request.\n   *\n   * @param requestId   Id of the search request\n   * @param h           Data for the endpoint's signed data [hash, r, s]\n   * @param v           The \"v\" value of the endpoint signaure\n   */\n  function _verifyEndpoint(bytes32 requestId, bytes32 endpointId, bytes32[3] h, uint8 v)\n    internal\n    view\n  {\n    // testrpc and parity adds prefix when signing\n    // https://github.com/ethereum/wiki/wiki/JSON-RPC#eth_sign\n    bytes memory prefix = \"\\x19Ethereum Signed Message:\\n32\";\n    bytes32 prefixedHash = keccak256(prefix, h[0]);\n\n    address signer = ecrecover(prefixedHash, v, h[1], h[2]);\n    require(signer == searchRequests[requestId].owner);\n\n    /* TODO: verify the endpointID is the same too */\n  }\n}\n",
  "sourcePath": "/Users/carlos/Documents/github/uvt-network/contracts/UVTCore.sol",
  "compiler": {
    "name": "solc",
    "version": "0.4.18+commit.9cf6e910.Emscripten.clang"
  },
  "schemaVersion": "1.0.1",
  "updatedAt": "2018-02-09T02:28:59.071Z"
}